{"abi":[{"inputs":[{"internalType":"address","name":"creator","type":"address"},{"internalType":"string","name":"_version","type":"string"}],"stateMutability":"nonpayable","type":"constructor"},{"inputs":[],"name":"advancePosition","outputs":[],"stateMutability":"nonpayable","type":"function"},{"inputs":[],"name":"closeContract","outputs":[],"stateMutability":"nonpayable","type":"function"},{"inputs":[],"name":"contractIsOpen","outputs":[{"internalType":"bool","name":"","type":"bool"}],"stateMutability":"view","type":"function"},{"inputs":[],"name":"getDetails","outputs":[{"internalType":"uint256","name":"","type":"uint256"},{"internalType":"uint256","name":"","type":"uint256"},{"internalType":"uint256","name":"","type":"uint256"},{"internalType":"bool","name":"","type":"bool"}],"stateMutability":"view","type":"function"},{"inputs":[{"internalType":"uint256","name":"examineeID","type":"uint256"}],"name":"getExaminee","outputs":[{"internalType":"string","name":"","type":"string"}],"stateMutability":"view","type":"function"},{"inputs":[{"internalType":"uint256","name":"hospitalID","type":"uint256"}],"name":"getHospitalName","outputs":[{"internalType":"string","name":"","type":"string"}],"stateMutability":"view","type":"function"},{"inputs":[{"internalType":"uint256","name":"hospitalID","type":"uint256"},{"internalType":"uint256","name":"serviceID","type":"uint256"}],"name":"getHospitalService","outputs":[{"components":[{"internalType":"string","name":"department","type":"string"},{"internalType":"uint256","name":"ammount","type":"uint256"}],"internalType":"struct MIR_Hospital_Selection.Service","name":"","type":"tuple"}],"stateMutability":"view","type":"function"},{"inputs":[{"internalType":"uint256","name":"hospitalID","type":"uint256"},{"internalType":"uint256","name":"serviceID","type":"uint256"}],"name":"getServiceInHospital","outputs":[{"components":[{"internalType":"string","name":"department","type":"string"},{"internalType":"uint256","name":"ammount","type":"uint256"}],"internalType":"struct MIR_Hospital_Selection.Service","name":"","type":"tuple"}],"stateMutability":"view","type":"function"},{"inputs":[{"internalType":"string","name":"name","type":"string"},{"internalType":"string","name":"surnames","type":"string"}],"name":"joinExaminee","outputs":[{"internalType":"uint256","name":"examineeID","type":"uint256"}],"stateMutability":"nonpayable","type":"function"},{"inputs":[],"name":"manager","outputs":[{"internalType":"address","name":"","type":"address"}],"stateMutability":"view","type":"function"},{"inputs":[{"internalType":"string","name":"externalID","type":"string"},{"internalType":"string","name":"hospitalName","type":"string"}],"name":"newHospital","outputs":[{"internalType":"uint256","name":"hospitalID","type":"uint256"}],"stateMutability":"nonpayable","type":"function"},{"inputs":[{"internalType":"uint256","name":"hospitalID","type":"uint256"},{"internalType":"string","name":"department","type":"string"},{"internalType":"uint256","name":"ammount","type":"uint256"}],"name":"newServiceInHopsital","outputs":[{"internalType":"uint256","name":"serviceID","type":"uint256"}],"stateMutability":"nonpayable","type":"function"},{"inputs":[],"name":"numExaminees","outputs":[{"internalType":"uint256","name":"","type":"uint256"}],"stateMutability":"view","type":"function"},{"inputs":[],"name":"numHospitals","outputs":[{"internalType":"uint256","name":"","type":"uint256"}],"stateMutability":"view","type":"function"},{"inputs":[],"name":"numSelections","outputs":[{"internalType":"uint256","name":"","type":"uint256"}],"stateMutability":"view","type":"function"},{"inputs":[{"internalType":"uint256","name":"hospitalID","type":"uint256"},{"internalType":"uint256","name":"serviceID","type":"uint256"},{"internalType":"uint256","name":"examineePosition","type":"uint256"}],"name":"takePosition","outputs":[{"internalType":"bool","name":"","type":"bool"}],"stateMutability":"nonpayable","type":"function"},{"inputs":[],"name":"version","outputs":[{"internalType":"string","name":"","type":"string"}],"stateMutability":"view","type":"function"}],"devdoc":{"kind":"dev","methods":{},"version":1},"evm":{"assembly":"    /* \"contractFile\":452:4672  contract MIR_Hospital_Selection {... */\n  mstore(0x40, 0x80)\n    /* \"contractFile\":1255:1584  constructor(address creator, string memory _version) {... */\n  callvalue\n  dup1\n  iszero\n  tag_1\n  jumpi\n  0x00\n  dup1\n  revert\ntag_1:\n  pop\n  mload(0x40)\n  sub(codesize, bytecodeSize)\n  dup1\n  bytecodeSize\n  dup4\n  codecopy\n  dup2\n  dup2\n  add\n  0x40\n  mstore\n  dup2\n  add\n  swap1\n  tag_2\n  swap2\n  swap1\n  tag_3\n  jump\t// in\ntag_2:\n    /* \"contractFile\":1432:1439  creator */\n  dup2\n    /* \"contractFile\":1422:1429  manager */\n  0x00\n  dup1\n    /* \"contractFile\":1422:1439  manager = creator */\n  0x0100\n  exp\n  dup2\n  sload\n  dup2\n  0xffffffffffffffffffffffffffffffffffffffff\n  mul\n  not\n  and\n  swap1\n  dup4\n  0xffffffffffffffffffffffffffffffffffffffff\n  and\n  mul\n  or\n  swap1\n  sstore\n  pop\n    /* \"contractFile\":1459:1467  _version */\n  dup1\n    /* \"contractFile\":1449:1456  version */\n  0x01\n    /* \"contractFile\":1449:1467  version = _version */\n  swap1\n  dup1\n  mload\n  swap1\n  0x20\n  add\n  swap1\n  tag_6\n  swap3\n  swap2\n  swap1\n  tag_7\n  jump\t// in\ntag_6:\n  pop\n    /* \"contractFile\":1494:1498  true */\n  0x01\n    /* \"contractFile\":1477:1491  contractIsOpen */\n  0x02\n  0x00\n    /* \"contractFile\":1477:1498  contractIsOpen = true */\n  0x0100\n  exp\n  dup2\n  sload\n  dup2\n  0xff\n  mul\n  not\n  and\n  swap1\n  dup4\n  iszero\n  iszero\n  mul\n  or\n  swap1\n  sstore\n  pop\n    /* \"contractFile\":1523:1524  0 */\n  0x00\n    /* \"contractFile\":1508:1520  numHospitals */\n  0x03\n    /* \"contractFile\":1508:1524  numHospitals = 0 */\n  dup2\n  swap1\n  sstore\n  pop\n    /* \"contractFile\":1549:1550  0 */\n  0x00\n    /* \"contractFile\":1534:1546  numExaminees */\n  0x05\n    /* \"contractFile\":1534:1550  numExaminees = 0 */\n  dup2\n  swap1\n  sstore\n  pop\n    /* \"contractFile\":1576:1577  0 */\n  0x00\n    /* \"contractFile\":1560:1573  numSelections */\n  0x07\n    /* \"contractFile\":1560:1577  numSelections = 0 */\n  dup2\n  swap1\n  sstore\n  pop\n    /* \"contractFile\":1255:1584  constructor(address creator, string memory _version) {... */\n  pop\n  pop\n    /* \"contractFile\":452:4672  contract MIR_Hospital_Selection {... */\n  jump(tag_8)\ntag_7:\n  dup3\n  dup1\n  sload\n  tag_9\n  swap1\n  tag_10\n  jump\t// in\ntag_9:\n  swap1\n  0x00\n  mstore\n  keccak256(0x00, 0x20)\n  swap1\n  0x1f\n  add\n  0x20\n  swap1\n  div\n  dup2\n  add\n  swap3\n  dup3\n  tag_12\n  jumpi\n  0x00\n  dup6\n  sstore\n  jump(tag_11)\ntag_12:\n  dup3\n  0x1f\n  lt\n  tag_13\n  jumpi\n  dup1\n  mload\n  not(0xff)\n  and\n  dup4\n  dup1\n  add\n  or\n  dup6\n  sstore\n  jump(tag_11)\ntag_13:\n  dup3\n  dup1\n  add\n  0x01\n  add\n  dup6\n  sstore\n  dup3\n  iszero\n  tag_11\n  jumpi\n  swap2\n  dup3\n  add\ntag_14:\n  dup3\n  dup2\n  gt\n  iszero\n  tag_15\n  jumpi\n  dup3\n  mload\n  dup3\n  sstore\n  swap2\n  0x20\n  add\n  swap2\n  swap1\n  0x01\n  add\n  swap1\n  jump(tag_14)\ntag_15:\ntag_11:\n  pop\n  swap1\n  pop\n  tag_16\n  swap2\n  swap1\n  tag_17\n  jump\t// in\ntag_16:\n  pop\n  swap1\n  jump\t// out\ntag_17:\ntag_18:\n  dup1\n  dup3\n  gt\n  iszero\n  tag_19\n  jumpi\n  0x00\n  dup2\n  0x00\n  swap1\n  sstore\n  pop\n  0x01\n  add\n  jump(tag_18)\ntag_19:\n  pop\n  swap1\n  jump\t// out\n    /* \"#utility.yul\":7:82   */\ntag_20:\n    /* \"#utility.yul\":40:46   */\n  0x00\n    /* \"#utility.yul\":73:75   */\n  0x40\n    /* \"#utility.yul\":67:76   */\n  mload\n    /* \"#utility.yul\":57:76   */\n  swap1\n  pop\n    /* \"#utility.yul\":7:82   */\n  swap1\n  jump\t// out\n    /* \"#utility.yul\":88:205   */\ntag_21:\n    /* \"#utility.yul\":197:198   */\n  0x00\n    /* \"#utility.yul\":194:195   */\n  dup1\n    /* \"#utility.yul\":187:199   */\n  revert\n    /* \"#utility.yul\":211:328   */\ntag_22:\n    /* \"#utility.yul\":320:321   */\n  0x00\n    /* \"#utility.yul\":317:318   */\n  dup1\n    /* \"#utility.yul\":310:322   */\n  revert\n    /* \"#utility.yul\":334:460   */\ntag_23:\n    /* \"#utility.yul\":371:378   */\n  0x00\n    /* \"#utility.yul\":411:453   */\n  0xffffffffffffffffffffffffffffffffffffffff\n    /* \"#utility.yul\":404:409   */\n  dup3\n    /* \"#utility.yul\":400:454   */\n  and\n    /* \"#utility.yul\":389:454   */\n  swap1\n  pop\n    /* \"#utility.yul\":334:460   */\n  swap2\n  swap1\n  pop\n  jump\t// out\n    /* \"#utility.yul\":466:562   */\ntag_24:\n    /* \"#utility.yul\":503:510   */\n  0x00\n    /* \"#utility.yul\":532:556   */\n  tag_44\n    /* \"#utility.yul\":550:555   */\n  dup3\n    /* \"#utility.yul\":532:556   */\n  tag_23\n  jump\t// in\ntag_44:\n    /* \"#utility.yul\":521:556   */\n  swap1\n  pop\n    /* \"#utility.yul\":466:562   */\n  swap2\n  swap1\n  pop\n  jump\t// out\n    /* \"#utility.yul\":568:690   */\ntag_25:\n    /* \"#utility.yul\":641:665   */\n  tag_46\n    /* \"#utility.yul\":659:664   */\n  dup2\n    /* \"#utility.yul\":641:665   */\n  tag_24\n  jump\t// in\ntag_46:\n    /* \"#utility.yul\":634:639   */\n  dup2\n    /* \"#utility.yul\":631:666   */\n  eq\n    /* \"#utility.yul\":621:684   */\n  tag_47\n  jumpi\n    /* \"#utility.yul\":680:681   */\n  0x00\n    /* \"#utility.yul\":677:678   */\n  dup1\n    /* \"#utility.yul\":670:682   */\n  revert\n    /* \"#utility.yul\":621:684   */\ntag_47:\n    /* \"#utility.yul\":568:690   */\n  pop\n  jump\t// out\n    /* \"#utility.yul\":696:839   */\ntag_26:\n    /* \"#utility.yul\":753:758   */\n  0x00\n    /* \"#utility.yul\":784:790   */\n  dup2\n    /* \"#utility.yul\":778:791   */\n  mload\n    /* \"#utility.yul\":769:791   */\n  swap1\n  pop\n    /* \"#utility.yul\":800:833   */\n  tag_49\n    /* \"#utility.yul\":827:832   */\n  dup2\n    /* \"#utility.yul\":800:833   */\n  tag_25\n  jump\t// in\ntag_49:\n    /* \"#utility.yul\":696:839   */\n  swap3\n  swap2\n  pop\n  pop\n  jump\t// out\n    /* \"#utility.yul\":845:962   */\ntag_27:\n    /* \"#utility.yul\":954:955   */\n  0x00\n    /* \"#utility.yul\":951:952   */\n  dup1\n    /* \"#utility.yul\":944:956   */\n  revert\n    /* \"#utility.yul\":968:1085   */\ntag_28:\n    /* \"#utility.yul\":1077:1078   */\n  0x00\n    /* \"#utility.yul\":1074:1075   */\n  dup1\n    /* \"#utility.yul\":1067:1079   */\n  revert\n    /* \"#utility.yul\":1091:1193   */\ntag_29:\n    /* \"#utility.yul\":1132:1138   */\n  0x00\n    /* \"#utility.yul\":1183:1185   */\n  0x1f\n    /* \"#utility.yul\":1179:1186   */\n  not\n    /* \"#utility.yul\":1174:1176   */\n  0x1f\n    /* \"#utility.yul\":1167:1172   */\n  dup4\n    /* \"#utility.yul\":1163:1177   */\n  add\n    /* \"#utility.yul\":1159:1187   */\n  and\n    /* \"#utility.yul\":1149:1187   */\n  swap1\n  pop\n    /* \"#utility.yul\":1091:1193   */\n  swap2\n  swap1\n  pop\n  jump\t// out\n    /* \"#utility.yul\":1199:1379   */\ntag_30:\n    /* \"#utility.yul\":1247:1324   */\n  0x4e487b7100000000000000000000000000000000000000000000000000000000\n    /* \"#utility.yul\":1244:1245   */\n  0x00\n    /* \"#utility.yul\":1237:1325   */\n  mstore\n    /* \"#utility.yul\":1344:1348   */\n  0x41\n    /* \"#utility.yul\":1341:1342   */\n  0x04\n    /* \"#utility.yul\":1334:1349   */\n  mstore\n    /* \"#utility.yul\":1368:1372   */\n  0x24\n    /* \"#utility.yul\":1365:1366   */\n  0x00\n    /* \"#utility.yul\":1358:1373   */\n  revert\n    /* \"#utility.yul\":1385:1666   */\ntag_31:\n    /* \"#utility.yul\":1468:1495   */\n  tag_55\n    /* \"#utility.yul\":1490:1494   */\n  dup3\n    /* \"#utility.yul\":1468:1495   */\n  tag_29\n  jump\t// in\ntag_55:\n    /* \"#utility.yul\":1460:1466   */\n  dup2\n    /* \"#utility.yul\":1456:1496   */\n  add\n    /* \"#utility.yul\":1598:1604   */\n  dup2\n    /* \"#utility.yul\":1586:1596   */\n  dup2\n    /* \"#utility.yul\":1583:1605   */\n  lt\n    /* \"#utility.yul\":1562:1580   */\n  0xffffffffffffffff\n    /* \"#utility.yul\":1550:1560   */\n  dup3\n    /* \"#utility.yul\":1547:1581   */\n  gt\n    /* \"#utility.yul\":1544:1606   */\n  or\n    /* \"#utility.yul\":1541:1629   */\n  iszero\n  tag_56\n  jumpi\n    /* \"#utility.yul\":1609:1627   */\n  tag_57\n  tag_30\n  jump\t// in\ntag_57:\n    /* \"#utility.yul\":1541:1629   */\ntag_56:\n    /* \"#utility.yul\":1649:1659   */\n  dup1\n    /* \"#utility.yul\":1645:1647   */\n  0x40\n    /* \"#utility.yul\":1638:1660   */\n  mstore\n    /* \"#utility.yul\":1428:1666   */\n  pop\n    /* \"#utility.yul\":1385:1666   */\n  pop\n  pop\n  jump\t// out\n    /* \"#utility.yul\":1672:1801   */\ntag_32:\n    /* \"#utility.yul\":1706:1712   */\n  0x00\n    /* \"#utility.yul\":1733:1753   */\n  tag_59\n  tag_20\n  jump\t// in\ntag_59:\n    /* \"#utility.yul\":1723:1753   */\n  swap1\n  pop\n    /* \"#utility.yul\":1762:1795   */\n  tag_60\n    /* \"#utility.yul\":1790:1794   */\n  dup3\n    /* \"#utility.yul\":1782:1788   */\n  dup3\n    /* \"#utility.yul\":1762:1795   */\n  tag_31\n  jump\t// in\ntag_60:\n    /* \"#utility.yul\":1672:1801   */\n  swap2\n  swap1\n  pop\n  jump\t// out\n    /* \"#utility.yul\":1807:2115   */\ntag_33:\n    /* \"#utility.yul\":1869:1873   */\n  0x00\n    /* \"#utility.yul\":1959:1977   */\n  0xffffffffffffffff\n    /* \"#utility.yul\":1951:1957   */\n  dup3\n    /* \"#utility.yul\":1948:1978   */\n  gt\n    /* \"#utility.yul\":1945:2001   */\n  iszero\n  tag_62\n  jumpi\n    /* \"#utility.yul\":1981:1999   */\n  tag_63\n  tag_30\n  jump\t// in\ntag_63:\n    /* \"#utility.yul\":1945:2001   */\ntag_62:\n    /* \"#utility.yul\":2019:2048   */\n  tag_64\n    /* \"#utility.yul\":2041:2047   */\n  dup3\n    /* \"#utility.yul\":2019:2048   */\n  tag_29\n  jump\t// in\ntag_64:\n    /* \"#utility.yul\":2011:2048   */\n  swap1\n  pop\n    /* \"#utility.yul\":2103:2107   */\n  0x20\n    /* \"#utility.yul\":2097:2101   */\n  dup2\n    /* \"#utility.yul\":2093:2108   */\n  add\n    /* \"#utility.yul\":2085:2108   */\n  swap1\n  pop\n    /* \"#utility.yul\":1807:2115   */\n  swap2\n  swap1\n  pop\n  jump\t// out\n    /* \"#utility.yul\":2121:2428   */\ntag_34:\n    /* \"#utility.yul\":2189:2190   */\n  0x00\n    /* \"#utility.yul\":2199:2312   */\ntag_66:\n    /* \"#utility.yul\":2213:2219   */\n  dup4\n    /* \"#utility.yul\":2210:2211   */\n  dup2\n    /* \"#utility.yul\":2207:2220   */\n  lt\n    /* \"#utility.yul\":2199:2312   */\n  iszero\n  tag_68\n  jumpi\n    /* \"#utility.yul\":2298:2299   */\n  dup1\n    /* \"#utility.yul\":2293:2296   */\n  dup3\n    /* \"#utility.yul\":2289:2300   */\n  add\n    /* \"#utility.yul\":2283:2301   */\n  mload\n    /* \"#utility.yul\":2279:2280   */\n  dup2\n    /* \"#utility.yul\":2274:2277   */\n  dup5\n    /* \"#utility.yul\":2270:2281   */\n  add\n    /* \"#utility.yul\":2263:2302   */\n  mstore\n    /* \"#utility.yul\":2235:2237   */\n  0x20\n    /* \"#utility.yul\":2232:2233   */\n  dup2\n    /* \"#utility.yul\":2228:2238   */\n  add\n    /* \"#utility.yul\":2223:2238   */\n  swap1\n  pop\n    /* \"#utility.yul\":2199:2312   */\n  jump(tag_66)\ntag_68:\n    /* \"#utility.yul\":2330:2336   */\n  dup4\n    /* \"#utility.yul\":2327:2328   */\n  dup2\n    /* \"#utility.yul\":2324:2337   */\n  gt\n    /* \"#utility.yul\":2321:2422   */\n  iszero\n  tag_69\n  jumpi\n    /* \"#utility.yul\":2410:2411   */\n  0x00\n    /* \"#utility.yul\":2401:2407   */\n  dup5\n    /* \"#utility.yul\":2396:2399   */\n  dup5\n    /* \"#utility.yul\":2392:2408   */\n  add\n    /* \"#utility.yul\":2385:2412   */\n  mstore\n    /* \"#utility.yul\":2321:2422   */\ntag_69:\n    /* \"#utility.yul\":2170:2428   */\n  pop\n    /* \"#utility.yul\":2121:2428   */\n  pop\n  pop\n  pop\n  jump\t// out\n    /* \"#utility.yul\":2434:2855   */\ntag_35:\n    /* \"#utility.yul\":2523:2528   */\n  0x00\n    /* \"#utility.yul\":2548:2614   */\n  tag_71\n    /* \"#utility.yul\":2564:2613   */\n  tag_72\n    /* \"#utility.yul\":2606:2612   */\n  dup5\n    /* \"#utility.yul\":2564:2613   */\n  tag_33\n  jump\t// in\ntag_72:\n    /* \"#utility.yul\":2548:2614   */\n  tag_32\n  jump\t// in\ntag_71:\n    /* \"#utility.yul\":2539:2614   */\n  swap1\n  pop\n    /* \"#utility.yul\":2637:2643   */\n  dup3\n    /* \"#utility.yul\":2630:2635   */\n  dup2\n    /* \"#utility.yul\":2623:2644   */\n  mstore\n    /* \"#utility.yul\":2675:2679   */\n  0x20\n    /* \"#utility.yul\":2668:2673   */\n  dup2\n    /* \"#utility.yul\":2664:2680   */\n  add\n    /* \"#utility.yul\":2713:2716   */\n  dup5\n    /* \"#utility.yul\":2704:2710   */\n  dup5\n    /* \"#utility.yul\":2699:2702   */\n  dup5\n    /* \"#utility.yul\":2695:2711   */\n  add\n    /* \"#utility.yul\":2692:2717   */\n  gt\n    /* \"#utility.yul\":2689:2801   */\n  iszero\n  tag_73\n  jumpi\n    /* \"#utility.yul\":2720:2799   */\n  tag_74\n  tag_28\n  jump\t// in\ntag_74:\n    /* \"#utility.yul\":2689:2801   */\ntag_73:\n    /* \"#utility.yul\":2810:2849   */\n  tag_75\n    /* \"#utility.yul\":2842:2848   */\n  dup5\n    /* \"#utility.yul\":2837:2840   */\n  dup3\n    /* \"#utility.yul\":2832:2835   */\n  dup6\n    /* \"#utility.yul\":2810:2849   */\n  tag_34\n  jump\t// in\ntag_75:\n    /* \"#utility.yul\":2529:2855   */\n  pop\n    /* \"#utility.yul\":2434:2855   */\n  swap4\n  swap3\n  pop\n  pop\n  pop\n  jump\t// out\n    /* \"#utility.yul\":2875:3230   */\ntag_36:\n    /* \"#utility.yul\":2942:2947   */\n  0x00\n    /* \"#utility.yul\":2991:2994   */\n  dup3\n    /* \"#utility.yul\":2984:2988   */\n  0x1f\n    /* \"#utility.yul\":2976:2982   */\n  dup4\n    /* \"#utility.yul\":2972:2989   */\n  add\n    /* \"#utility.yul\":2968:2995   */\n  slt\n    /* \"#utility.yul\":2958:3080   */\n  tag_77\n  jumpi\n    /* \"#utility.yul\":2999:3078   */\n  tag_78\n  tag_27\n  jump\t// in\ntag_78:\n    /* \"#utility.yul\":2958:3080   */\ntag_77:\n    /* \"#utility.yul\":3109:3115   */\n  dup2\n    /* \"#utility.yul\":3103:3116   */\n  mload\n    /* \"#utility.yul\":3134:3224   */\n  tag_79\n    /* \"#utility.yul\":3220:3223   */\n  dup5\n    /* \"#utility.yul\":3212:3218   */\n  dup3\n    /* \"#utility.yul\":3205:3209   */\n  0x20\n    /* \"#utility.yul\":3197:3203   */\n  dup7\n    /* \"#utility.yul\":3193:3210   */\n  add\n    /* \"#utility.yul\":3134:3224   */\n  tag_35\n  jump\t// in\ntag_79:\n    /* \"#utility.yul\":3125:3224   */\n  swap2\n  pop\n    /* \"#utility.yul\":2948:3230   */\n  pop\n    /* \"#utility.yul\":2875:3230   */\n  swap3\n  swap2\n  pop\n  pop\n  jump\t// out\n    /* \"#utility.yul\":3236:3916   */\ntag_3:\n    /* \"#utility.yul\":3325:3331   */\n  0x00\n    /* \"#utility.yul\":3333:3339   */\n  dup1\n    /* \"#utility.yul\":3382:3384   */\n  0x40\n    /* \"#utility.yul\":3370:3379   */\n  dup4\n    /* \"#utility.yul\":3361:3368   */\n  dup6\n    /* \"#utility.yul\":3357:3380   */\n  sub\n    /* \"#utility.yul\":3353:3385   */\n  slt\n    /* \"#utility.yul\":3350:3469   */\n  iszero\n  tag_81\n  jumpi\n    /* \"#utility.yul\":3388:3467   */\n  tag_82\n  tag_21\n  jump\t// in\ntag_82:\n    /* \"#utility.yul\":3350:3469   */\ntag_81:\n    /* \"#utility.yul\":3508:3509   */\n  0x00\n    /* \"#utility.yul\":3533:3597   */\n  tag_83\n    /* \"#utility.yul\":3589:3596   */\n  dup6\n    /* \"#utility.yul\":3580:3586   */\n  dup3\n    /* \"#utility.yul\":3569:3578   */\n  dup7\n    /* \"#utility.yul\":3565:3587   */\n  add\n    /* \"#utility.yul\":3533:3597   */\n  tag_26\n  jump\t// in\ntag_83:\n    /* \"#utility.yul\":3523:3597   */\n  swap3\n  pop\n    /* \"#utility.yul\":3479:3607   */\n  pop\n    /* \"#utility.yul\":3667:3669   */\n  0x20\n    /* \"#utility.yul\":3656:3665   */\n  dup4\n    /* \"#utility.yul\":3652:3670   */\n  add\n    /* \"#utility.yul\":3646:3671   */\n  mload\n    /* \"#utility.yul\":3698:3716   */\n  0xffffffffffffffff\n    /* \"#utility.yul\":3690:3696   */\n  dup2\n    /* \"#utility.yul\":3687:3717   */\n  gt\n    /* \"#utility.yul\":3684:3801   */\n  iszero\n  tag_84\n  jumpi\n    /* \"#utility.yul\":3720:3799   */\n  tag_85\n  tag_22\n  jump\t// in\ntag_85:\n    /* \"#utility.yul\":3684:3801   */\ntag_84:\n    /* \"#utility.yul\":3825:3899   */\n  tag_86\n    /* \"#utility.yul\":3891:3898   */\n  dup6\n    /* \"#utility.yul\":3882:3888   */\n  dup3\n    /* \"#utility.yul\":3871:3880   */\n  dup7\n    /* \"#utility.yul\":3867:3889   */\n  add\n    /* \"#utility.yul\":3825:3899   */\n  tag_36\n  jump\t// in\ntag_86:\n    /* \"#utility.yul\":3815:3899   */\n  swap2\n  pop\n    /* \"#utility.yul\":3617:3909   */\n  pop\n    /* \"#utility.yul\":3236:3916   */\n  swap3\n  pop\n  swap3\n  swap1\n  pop\n  jump\t// out\n    /* \"#utility.yul\":3922:4102   */\ntag_37:\n    /* \"#utility.yul\":3970:4047   */\n  0x4e487b7100000000000000000000000000000000000000000000000000000000\n    /* \"#utility.yul\":3967:3968   */\n  0x00\n    /* \"#utility.yul\":3960:4048   */\n  mstore\n    /* \"#utility.yul\":4067:4071   */\n  0x22\n    /* \"#utility.yul\":4064:4065   */\n  0x04\n    /* \"#utility.yul\":4057:4072   */\n  mstore\n    /* \"#utility.yul\":4091:4095   */\n  0x24\n    /* \"#utility.yul\":4088:4089   */\n  0x00\n    /* \"#utility.yul\":4081:4096   */\n  revert\n    /* \"#utility.yul\":4108:4428   */\ntag_10:\n    /* \"#utility.yul\":4152:4158   */\n  0x00\n    /* \"#utility.yul\":4189:4190   */\n  0x02\n    /* \"#utility.yul\":4183:4187   */\n  dup3\n    /* \"#utility.yul\":4179:4191   */\n  div\n    /* \"#utility.yul\":4169:4191   */\n  swap1\n  pop\n    /* \"#utility.yul\":4236:4237   */\n  0x01\n    /* \"#utility.yul\":4230:4234   */\n  dup3\n    /* \"#utility.yul\":4226:4238   */\n  and\n    /* \"#utility.yul\":4257:4275   */\n  dup1\n    /* \"#utility.yul\":4247:4328   */\n  tag_89\n  jumpi\n    /* \"#utility.yul\":4313:4317   */\n  0x7f\n    /* \"#utility.yul\":4305:4311   */\n  dup3\n    /* \"#utility.yul\":4301:4318   */\n  and\n    /* \"#utility.yul\":4291:4318   */\n  swap2\n  pop\n    /* \"#utility.yul\":4247:4328   */\ntag_89:\n    /* \"#utility.yul\":4375:4377   */\n  0x20\n    /* \"#utility.yul\":4367:4373   */\n  dup3\n    /* \"#utility.yul\":4364:4378   */\n  lt\n    /* \"#utility.yul\":4344:4362   */\n  dup2\n    /* \"#utility.yul\":4341:4379   */\n  eq\n    /* \"#utility.yul\":4338:4422   */\n  iszero\n  tag_90\n  jumpi\n    /* \"#utility.yul\":4394:4412   */\n  tag_91\n  tag_37\n  jump\t// in\ntag_91:\n    /* \"#utility.yul\":4338:4422   */\ntag_90:\n    /* \"#utility.yul\":4159:4428   */\n  pop\n    /* \"#utility.yul\":4108:4428   */\n  swap2\n  swap1\n  pop\n  jump\t// out\n    /* \"contractFile\":452:4672  contract MIR_Hospital_Selection {... */\ntag_8:\n  dataSize(sub_0)\n  dup1\n  dataOffset(sub_0)\n  0x00\n  codecopy\n  0x00\n  return\nstop\n\nsub_0: assembly {\n        /* \"contractFile\":452:4672  contract MIR_Hospital_Selection {... */\n      mstore(0x40, 0x80)\n      callvalue\n      dup1\n      iszero\n      tag_1\n      jumpi\n      0x00\n      dup1\n      revert\n    tag_1:\n      pop\n      jumpi(tag_2, lt(calldatasize, 0x04))\n      shr(0xe0, calldataload(0x00))\n      dup1\n      0x55586f9e\n      gt\n      tag_20\n      jumpi\n      dup1\n      0x9e4529c9\n      gt\n      tag_21\n      jumpi\n      dup1\n      0x9e4529c9\n      eq\n      tag_15\n      jumpi\n      dup1\n      0xa5d47a56\n      eq\n      tag_16\n      jumpi\n      dup1\n      0xb6778976\n      eq\n      tag_17\n      jumpi\n      dup1\n      0xdef7134e\n      eq\n      tag_18\n      jumpi\n      dup1\n      0xfbbf93a0\n      eq\n      tag_19\n      jumpi\n      jump(tag_2)\n    tag_21:\n      dup1\n      0x55586f9e\n      eq\n      tag_11\n      jumpi\n      dup1\n      0x610be654\n      eq\n      tag_12\n      jumpi\n      dup1\n      0x673d3087\n      eq\n      tag_13\n      jumpi\n      dup1\n      0x757c3aab\n      eq\n      tag_14\n      jumpi\n      jump(tag_2)\n    tag_20:\n      dup1\n      0x30e526dd\n      gt\n      tag_22\n      jumpi\n      dup1\n      0x30e526dd\n      eq\n      tag_7\n      jumpi\n      dup1\n      0x3e2032ab\n      eq\n      tag_8\n      jumpi\n      dup1\n      0x481c6a75\n      eq\n      tag_9\n      jumpi\n      dup1\n      0x54fd4d50\n      eq\n      tag_10\n      jumpi\n      jump(tag_2)\n    tag_22:\n      dup1\n      0x0540bccd\n      eq\n      tag_3\n      jumpi\n      dup1\n      0x0cf9a07d\n      eq\n      tag_4\n      jumpi\n      dup1\n      0x17fed492\n      eq\n      tag_5\n      jumpi\n      dup1\n      0x1ba3c1b6\n      eq\n      tag_6\n      jumpi\n    tag_2:\n      0x00\n      dup1\n      revert\n        /* \"contractFile\":2218:2564  function joinExaminee(string memory name, string memory surnames) public checkOpen returns (uint examineeID) {... */\n    tag_3:\n      tag_23\n      0x04\n      dup1\n      calldatasize\n      sub\n      dup2\n      add\n      swap1\n      tag_24\n      swap2\n      swap1\n      tag_25\n      jump\t// in\n    tag_24:\n      tag_26\n      jump\t// in\n    tag_23:\n      mload(0x40)\n      tag_27\n      swap2\n      swap1\n      tag_28\n      jump\t// in\n    tag_27:\n      mload(0x40)\n      dup1\n      swap2\n      sub\n      swap1\n      return\n        /* \"contractFile\":2741:3055  function newHospital(string memory externalID, string memory hospitalName) public restricted checkOpen returns (uint hospitalID) {... */\n    tag_4:\n      tag_29\n      0x04\n      dup1\n      calldatasize\n      sub\n      dup2\n      add\n      swap1\n      tag_30\n      swap2\n      swap1\n      tag_25\n      jump\t// in\n    tag_30:\n      tag_31\n      jump\t// in\n    tag_29:\n      mload(0x40)\n      tag_32\n      swap2\n      swap1\n      tag_28\n      jump\t// in\n    tag_32:\n      mload(0x40)\n      dup1\n      swap2\n      sub\n      swap1\n      return\n        /* \"contractFile\":2035:2122  function advancePosition() public restricted checkOpen {... */\n    tag_5:\n      tag_33\n      tag_34\n      jump\t// in\n    tag_33:\n      stop\n        /* \"contractFile\":3060:3231  function getHospitalName(uint hospitalID) public view virtual returns (string memory) {... */\n    tag_6:\n      tag_35\n      0x04\n      dup1\n      calldatasize\n      sub\n      dup2\n      add\n      swap1\n      tag_36\n      swap2\n      swap1\n      tag_37\n      jump\t// in\n    tag_36:\n      tag_38\n      jump\t// in\n    tag_35:\n      mload(0x40)\n      tag_39\n      swap2\n      swap1\n      tag_40\n      jump\t// in\n    tag_39:\n      mload(0x40)\n      dup1\n      swap2\n      sub\n      swap1\n      return\n        /* \"contractFile\":3236:3479  function getHospitalService(uint hospitalID, uint serviceID) public view virtual returns (Service memory) {... */\n    tag_7:\n      tag_41\n      0x04\n      dup1\n      calldatasize\n      sub\n      dup2\n      add\n      swap1\n      tag_42\n      swap2\n      swap1\n      tag_43\n      jump\t// in\n    tag_42:\n      tag_44\n      jump\t// in\n    tag_41:\n      mload(0x40)\n      tag_45\n      swap2\n      swap1\n      tag_46\n      jump\t// in\n    tag_45:\n      mload(0x40)\n      dup1\n      swap2\n      sub\n      swap1\n      return\n        /* \"contractFile\":4106:4670  function takePosition(uint hospitalID, uint serviceID, uint examineePosition) public checkOpen returns (bool){... */\n    tag_8:\n      tag_47\n      0x04\n      dup1\n      calldatasize\n      sub\n      dup2\n      add\n      swap1\n      tag_48\n      swap2\n      swap1\n      tag_49\n      jump\t// in\n    tag_48:\n      tag_50\n      jump\t// in\n    tag_47:\n      mload(0x40)\n      tag_51\n      swap2\n      swap1\n      tag_52\n      jump\t// in\n    tag_51:\n      mload(0x40)\n      dup1\n      swap2\n      sub\n      swap1\n      return\n        /* \"contractFile\":891:913  address public manager */\n    tag_9:\n      tag_53\n      tag_54\n      jump\t// in\n    tag_53:\n      mload(0x40)\n      tag_55\n      swap2\n      swap1\n      tag_56\n      jump\t// in\n    tag_55:\n      mload(0x40)\n      dup1\n      swap2\n      sub\n      swap1\n      return\n        /* \"contractFile\":951:972  string public version */\n    tag_10:\n      tag_57\n      tag_58\n      jump\t// in\n    tag_57:\n      mload(0x40)\n      tag_59\n      swap2\n      swap1\n      tag_40\n      jump\t// in\n    tag_59:\n      mload(0x40)\n      dup1\n      swap2\n      sub\n      swap1\n      return\n        /* \"contractFile\":1031:1055  uint public numHospitals */\n    tag_11:\n      tag_60\n      tag_61\n      jump\t// in\n    tag_60:\n      mload(0x40)\n      tag_62\n      swap2\n      swap1\n      tag_28\n      jump\t// in\n    tag_62:\n      mload(0x40)\n      dup1\n      swap2\n      sub\n      swap1\n      return\n        /* \"contractFile\":2132:2213  function closeContract() public restricted{... */\n    tag_12:\n      tag_63\n      tag_64\n      jump\t// in\n    tag_63:\n      stop\n        /* \"contractFile\":1177:1202  uint public numSelections */\n    tag_13:\n      tag_65\n      tag_66\n      jump\t// in\n    tag_65:\n      mload(0x40)\n      tag_67\n      swap2\n      swap1\n      tag_28\n      jump\t// in\n    tag_67:\n      mload(0x40)\n      dup1\n      swap2\n      sub\n      swap1\n      return\n        /* \"contractFile\":3850:4101  function getServiceInHospital(uint hospitalID, uint serviceID) public view virtual returns (Service memory) {... */\n    tag_14:\n      tag_68\n      0x04\n      dup1\n      calldatasize\n      sub\n      dup2\n      add\n      swap1\n      tag_69\n      swap2\n      swap1\n      tag_43\n      jump\t// in\n    tag_69:\n      tag_70\n      jump\t// in\n    tag_68:\n      mload(0x40)\n      tag_71\n      swap2\n      swap1\n      tag_46\n      jump\t// in\n    tag_71:\n      mload(0x40)\n      dup1\n      swap2\n      sub\n      swap1\n      return\n        /* \"contractFile\":3484:3845  function newServiceInHopsital(uint hospitalID, string memory department, uint ammount) public restricted checkOpen returns (uint serviceID) {... */\n    tag_15:\n      tag_72\n      0x04\n      dup1\n      calldatasize\n      sub\n      dup2\n      add\n      swap1\n      tag_73\n      swap2\n      swap1\n      tag_74\n      jump\t// in\n    tag_73:\n      tag_75\n      jump\t// in\n    tag_72:\n      mload(0x40)\n      tag_76\n      swap2\n      swap1\n      tag_28\n      jump\t// in\n    tag_76:\n      mload(0x40)\n      dup1\n      swap2\n      sub\n      swap1\n      return\n        /* \"contractFile\":994:1020  bool public contractIsOpen */\n    tag_16:\n      tag_77\n      tag_78\n      jump\t// in\n    tag_77:\n      mload(0x40)\n      tag_79\n      swap2\n      swap1\n      tag_52\n      jump\t// in\n    tag_79:\n      mload(0x40)\n      dup1\n      swap2\n      sub\n      swap1\n      return\n        /* \"contractFile\":2569:2736  function getExaminee(uint examineeID) public view virtual returns (string memory) {... */\n    tag_17:\n      tag_80\n      0x04\n      dup1\n      calldatasize\n      sub\n      dup2\n      add\n      swap1\n      tag_81\n      swap2\n      swap1\n      tag_37\n      jump\t// in\n    tag_81:\n      tag_82\n      jump\t// in\n    tag_80:\n      mload(0x40)\n      tag_83\n      swap2\n      swap1\n      tag_40\n      jump\t// in\n    tag_83:\n      mload(0x40)\n      dup1\n      swap2\n      sub\n      swap1\n      return\n        /* \"contractFile\":1104:1128  uint public numExaminees */\n    tag_18:\n      tag_84\n      tag_85\n      jump\t// in\n    tag_84:\n      mload(0x40)\n      tag_86\n      swap2\n      swap1\n      tag_28\n      jump\t// in\n    tag_86:\n      mload(0x40)\n      dup1\n      swap2\n      sub\n      swap1\n      return\n        /* \"contractFile\":1833:2029  function getDetails() public view returns (uint, uint, uint, bool) {... */\n    tag_19:\n      tag_87\n      tag_88\n      jump\t// in\n    tag_87:\n      mload(0x40)\n      tag_89\n      swap5\n      swap4\n      swap3\n      swap2\n      swap1\n      tag_90\n      jump\t// in\n    tag_89:\n      mload(0x40)\n      dup1\n      swap2\n      sub\n      swap1\n      return\n        /* \"contractFile\":2218:2564  function joinExaminee(string memory name, string memory surnames) public checkOpen returns (uint examineeID) {... */\n    tag_26:\n        /* \"contractFile\":2310:2325  uint examineeID */\n      0x00\n        /* \"contractFile\":1794:1808  contractIsOpen */\n      0x02\n      0x00\n      swap1\n      sload\n      swap1\n      0x0100\n      exp\n      swap1\n      div\n      0xff\n      and\n        /* \"contractFile\":1786:1809  require(contractIsOpen) */\n      tag_92\n      jumpi\n      0x00\n      dup1\n      revert\n    tag_92:\n        /* \"contractFile\":2350:2362  numExaminees */\n      0x05\n      0x00\n        /* \"contractFile\":2350:2364  numExaminees++ */\n      dup2\n      sload\n      dup1\n      swap3\n      swap2\n      swap1\n      tag_94\n      swap1\n      tag_95\n      jump\t// in\n    tag_94:\n      swap2\n      swap1\n      pop\n      sstore\n        /* \"contractFile\":2337:2364  examineeID = numExaminees++ */\n      swap1\n      pop\n        /* \"contractFile\":2374:2392  Examinee storage e */\n      0x00\n        /* \"contractFile\":2395:2404  examinees */\n      0x06\n        /* \"contractFile\":2395:2416  examinees[examineeID] */\n      0x00\n        /* \"contractFile\":2405:2415  examineeID */\n      dup4\n        /* \"contractFile\":2395:2416  examinees[examineeID] */\n      dup2\n      mstore\n      0x20\n      add\n      swap1\n      dup2\n      mstore\n      0x20\n      add\n      0x00\n      keccak256\n        /* \"contractFile\":2374:2416  Examinee storage e = examinees[examineeID] */\n      swap1\n      pop\n        /* \"contractFile\":2435:2445  msg.sender */\n      caller\n        /* \"contractFile\":2426:2427  e */\n      dup2\n        /* \"contractFile\":2426:2432  e.addr */\n      0x00\n      add\n      0x00\n        /* \"contractFile\":2426:2445  e.addr = msg.sender */\n      0x0100\n      exp\n      dup2\n      sload\n      dup2\n      0xffffffffffffffffffffffffffffffffffffffff\n      mul\n      not\n      and\n      swap1\n      dup4\n      0xffffffffffffffffffffffffffffffffffffffff\n      and\n      mul\n      or\n      swap1\n      sstore\n      pop\n        /* \"contractFile\":2466:2476  examineeID */\n      dup2\n        /* \"contractFile\":2455:2456  e */\n      dup2\n        /* \"contractFile\":2455:2463  e.unique */\n      0x01\n      add\n        /* \"contractFile\":2455:2476  e.unique = examineeID */\n      dup2\n      swap1\n      sstore\n      pop\n        /* \"contractFile\":2495:2499  name */\n      dup4\n        /* \"contractFile\":2486:2487  e */\n      dup2\n        /* \"contractFile\":2486:2492  e.name */\n      0x02\n      add\n        /* \"contractFile\":2486:2499  e.name = name */\n      swap1\n      dup1\n      mload\n      swap1\n      0x20\n      add\n      swap1\n      tag_96\n      swap3\n      swap2\n      swap1\n      tag_97\n      jump\t// in\n    tag_96:\n      pop\n        /* \"contractFile\":2522:2530  surnames */\n      dup3\n        /* \"contractFile\":2509:2510  e */\n      dup2\n        /* \"contractFile\":2509:2519  e.surnames */\n      0x03\n      add\n        /* \"contractFile\":2509:2530  e.surnames = surnames */\n      swap1\n      dup1\n      mload\n      swap1\n      0x20\n      add\n      swap1\n      tag_98\n      swap3\n      swap2\n      swap1\n      tag_97\n      jump\t// in\n    tag_98:\n      pop\n        /* \"contractFile\":2540:2557  return examineeID */\n      pop\n        /* \"contractFile\":2218:2564  function joinExaminee(string memory name, string memory surnames) public checkOpen returns (uint examineeID) {... */\n      swap3\n      swap2\n      pop\n      pop\n      jump\t// out\n        /* \"contractFile\":2741:3055  function newHospital(string memory externalID, string memory hospitalName) public restricted checkOpen returns (uint hospitalID) {... */\n    tag_31:\n        /* \"contractFile\":2853:2868  uint hospitalID */\n      0x00\n        /* \"contractFile\":1724:1731  manager */\n      dup1\n      0x00\n      swap1\n      sload\n      swap1\n      0x0100\n      exp\n      swap1\n      div\n      0xffffffffffffffffffffffffffffffffffffffff\n      and\n        /* \"contractFile\":1710:1731  msg.sender == manager */\n      0xffffffffffffffffffffffffffffffffffffffff\n      and\n        /* \"contractFile\":1710:1720  msg.sender */\n      caller\n        /* \"contractFile\":1710:1731  msg.sender == manager */\n      0xffffffffffffffffffffffffffffffffffffffff\n      and\n      eq\n        /* \"contractFile\":1702:1732  require(msg.sender == manager) */\n      tag_100\n      jumpi\n      0x00\n      dup1\n      revert\n    tag_100:\n        /* \"contractFile\":1794:1808  contractIsOpen */\n      0x02\n      0x00\n      swap1\n      sload\n      swap1\n      0x0100\n      exp\n      swap1\n      div\n      0xff\n      and\n        /* \"contractFile\":1786:1809  require(contractIsOpen) */\n      tag_102\n      jumpi\n      0x00\n      dup1\n      revert\n    tag_102:\n        /* \"contractFile\":2893:2905  numHospitals */\n      0x03\n      0x00\n        /* \"contractFile\":2893:2907  numHospitals++ */\n      dup2\n      sload\n      dup1\n      swap3\n      swap2\n      swap1\n      tag_104\n      swap1\n      tag_95\n      jump\t// in\n    tag_104:\n      swap2\n      swap1\n      pop\n      sstore\n        /* \"contractFile\":2880:2907  hospitalID = numHospitals++ */\n      swap1\n      pop\n        /* \"contractFile\":2917:2935  Hospital storage h */\n      0x00\n        /* \"contractFile\":2938:2947  hospitals */\n      0x04\n        /* \"contractFile\":2938:2959  hospitals[hospitalID] */\n      0x00\n        /* \"contractFile\":2948:2958  hospitalID */\n      dup4\n        /* \"contractFile\":2938:2959  hospitals[hospitalID] */\n      dup2\n      mstore\n      0x20\n      add\n      swap1\n      dup2\n      mstore\n      0x20\n      add\n      0x00\n      keccak256\n        /* \"contractFile\":2917:2959  Hospital storage h = hospitals[hospitalID] */\n      swap1\n      pop\n        /* \"contractFile\":2980:2990  externalID */\n      dup4\n        /* \"contractFile\":2969:2970  h */\n      dup2\n        /* \"contractFile\":2969:2977  h.unique */\n      0x00\n      add\n        /* \"contractFile\":2969:2990  h.unique = externalID */\n      swap1\n      dup1\n      mload\n      swap1\n      0x20\n      add\n      swap1\n      tag_105\n      swap3\n      swap2\n      swap1\n      tag_97\n      jump\t// in\n    tag_105:\n      pop\n        /* \"contractFile\":3009:3021  hospitalName */\n      dup3\n        /* \"contractFile\":3000:3001  h */\n      dup2\n        /* \"contractFile\":3000:3006  h.name */\n      0x01\n      add\n        /* \"contractFile\":3000:3021  h.name = hospitalName */\n      swap1\n      dup1\n      mload\n      swap1\n      0x20\n      add\n      swap1\n      tag_106\n      swap3\n      swap2\n      swap1\n      tag_97\n      jump\t// in\n    tag_106:\n      pop\n        /* \"contractFile\":3031:3048  return hospitalID */\n      pop\n        /* \"contractFile\":2741:3055  function newHospital(string memory externalID, string memory hospitalName) public restricted checkOpen returns (uint hospitalID) {... */\n      swap3\n      swap2\n      pop\n      pop\n      jump\t// out\n        /* \"contractFile\":2035:2122  function advancePosition() public restricted checkOpen {... */\n    tag_34:\n        /* \"contractFile\":1724:1731  manager */\n      0x00\n      dup1\n      sload\n      swap1\n      0x0100\n      exp\n      swap1\n      div\n      0xffffffffffffffffffffffffffffffffffffffff\n      and\n        /* \"contractFile\":1710:1731  msg.sender == manager */\n      0xffffffffffffffffffffffffffffffffffffffff\n      and\n        /* \"contractFile\":1710:1720  msg.sender */\n      caller\n        /* \"contractFile\":1710:1731  msg.sender == manager */\n      0xffffffffffffffffffffffffffffffffffffffff\n      and\n      eq\n        /* \"contractFile\":1702:1732  require(msg.sender == manager) */\n      tag_108\n      jumpi\n      0x00\n      dup1\n      revert\n    tag_108:\n        /* \"contractFile\":1794:1808  contractIsOpen */\n      0x02\n      0x00\n      swap1\n      sload\n      swap1\n      0x0100\n      exp\n      swap1\n      div\n      0xff\n      and\n        /* \"contractFile\":1786:1809  require(contractIsOpen) */\n      tag_110\n      jumpi\n      0x00\n      dup1\n      revert\n    tag_110:\n        /* \"contractFile\":2100:2113  numSelections */\n      0x07\n      0x00\n        /* \"contractFile\":2100:2115  numSelections++ */\n      dup2\n      sload\n      dup1\n      swap3\n      swap2\n      swap1\n      tag_112\n      swap1\n      tag_95\n      jump\t// in\n    tag_112:\n      swap2\n      swap1\n      pop\n      sstore\n      pop\n        /* \"contractFile\":2035:2122  function advancePosition() public restricted checkOpen {... */\n      jump\t// out\n        /* \"contractFile\":3060:3231  function getHospitalName(uint hospitalID) public view virtual returns (string memory) {... */\n    tag_38:\n        /* \"contractFile\":3131:3144  string memory */\n      0x60\n        /* \"contractFile\":3156:3174  string memory name */\n      0x00\n        /* \"contractFile\":3177:3186  hospitals */\n      0x04\n        /* \"contractFile\":3177:3198  hospitals[hospitalID] */\n      0x00\n        /* \"contractFile\":3187:3197  hospitalID */\n      dup5\n        /* \"contractFile\":3177:3198  hospitals[hospitalID] */\n      dup2\n      mstore\n      0x20\n      add\n      swap1\n      dup2\n      mstore\n      0x20\n      add\n      0x00\n      keccak256\n        /* \"contractFile\":3177:3203  hospitals[hospitalID].name */\n      0x01\n      add\n        /* \"contractFile\":3156:3203  string memory name = hospitals[hospitalID].name */\n      dup1\n      sload\n      tag_114\n      swap1\n      tag_115\n      jump\t// in\n    tag_114:\n      dup1\n      0x1f\n      add\n      0x20\n      dup1\n      swap2\n      div\n      mul\n      0x20\n      add\n      mload(0x40)\n      swap1\n      dup2\n      add\n      0x40\n      mstore\n      dup1\n      swap3\n      swap2\n      swap1\n      dup2\n      dup2\n      mstore\n      0x20\n      add\n      dup3\n      dup1\n      sload\n      tag_116\n      swap1\n      tag_115\n      jump\t// in\n    tag_116:\n      dup1\n      iszero\n      tag_117\n      jumpi\n      dup1\n      0x1f\n      lt\n      tag_118\n      jumpi\n      0x0100\n      dup1\n      dup4\n      sload\n      div\n      mul\n      dup4\n      mstore\n      swap2\n      0x20\n      add\n      swap2\n      jump(tag_117)\n    tag_118:\n      dup3\n      add\n      swap2\n      swap1\n      0x00\n      mstore\n      keccak256(0x00, 0x20)\n      swap1\n    tag_119:\n      dup2\n      sload\n      dup2\n      mstore\n      swap1\n      0x01\n      add\n      swap1\n      0x20\n      add\n      dup1\n      dup4\n      gt\n      tag_119\n      jumpi\n      dup3\n      swap1\n      sub\n      0x1f\n      and\n      dup3\n      add\n      swap2\n    tag_117:\n      pop\n      pop\n      pop\n      pop\n      pop\n      swap1\n      pop\n        /* \"contractFile\":3220:3224  name */\n      dup1\n        /* \"contractFile\":3213:3224  return name */\n      swap2\n      pop\n      pop\n        /* \"contractFile\":3060:3231  function getHospitalName(uint hospitalID) public view virtual returns (string memory) {... */\n      swap2\n      swap1\n      pop\n      jump\t// out\n        /* \"contractFile\":3236:3479  function getHospitalService(uint hospitalID, uint serviceID) public view virtual returns (Service memory) {... */\n    tag_44:\n        /* \"contractFile\":3326:3340  Service memory */\n      tag_120\n      tag_121\n      jump\t// in\n    tag_120:\n        /* \"contractFile\":3352:3370  Hospital storage h */\n      0x00\n        /* \"contractFile\":3373:3382  hospitals */\n      0x04\n        /* \"contractFile\":3373:3394  hospitals[hospitalID] */\n      0x00\n        /* \"contractFile\":3383:3393  hospitalID */\n      dup6\n        /* \"contractFile\":3373:3394  hospitals[hospitalID] */\n      dup2\n      mstore\n      0x20\n      add\n      swap1\n      dup2\n      mstore\n      0x20\n      add\n      0x00\n      keccak256\n        /* \"contractFile\":3352:3394  Hospital storage h = hospitals[hospitalID] */\n      swap1\n      pop\n        /* \"contractFile\":3404:3420  Service memory s */\n      0x00\n        /* \"contractFile\":3423:3424  h */\n      dup2\n        /* \"contractFile\":3423:3443  h.servicesInHospital */\n      0x03\n      add\n        /* \"contractFile\":3423:3454  h.servicesInHospital[serviceID] */\n      0x00\n        /* \"contractFile\":3444:3453  serviceID */\n      dup6\n        /* \"contractFile\":3423:3454  h.servicesInHospital[serviceID] */\n      dup2\n      mstore\n      0x20\n      add\n      swap1\n      dup2\n      mstore\n      0x20\n      add\n      0x00\n      keccak256\n        /* \"contractFile\":3404:3454  Service memory s = h.servicesInHospital[serviceID] */\n      mload(0x40)\n      dup1\n      0x40\n      add\n      0x40\n      mstore\n      swap1\n      dup2\n      0x00\n      dup3\n      add\n      dup1\n      sload\n      tag_123\n      swap1\n      tag_115\n      jump\t// in\n    tag_123:\n      dup1\n      0x1f\n      add\n      0x20\n      dup1\n      swap2\n      div\n      mul\n      0x20\n      add\n      mload(0x40)\n      swap1\n      dup2\n      add\n      0x40\n      mstore\n      dup1\n      swap3\n      swap2\n      swap1\n      dup2\n      dup2\n      mstore\n      0x20\n      add\n      dup3\n      dup1\n      sload\n      tag_124\n      swap1\n      tag_115\n      jump\t// in\n    tag_124:\n      dup1\n      iszero\n      tag_125\n      jumpi\n      dup1\n      0x1f\n      lt\n      tag_126\n      jumpi\n      0x0100\n      dup1\n      dup4\n      sload\n      div\n      mul\n      dup4\n      mstore\n      swap2\n      0x20\n      add\n      swap2\n      jump(tag_125)\n    tag_126:\n      dup3\n      add\n      swap2\n      swap1\n      0x00\n      mstore\n      keccak256(0x00, 0x20)\n      swap1\n    tag_127:\n      dup2\n      sload\n      dup2\n      mstore\n      swap1\n      0x01\n      add\n      swap1\n      0x20\n      add\n      dup1\n      dup4\n      gt\n      tag_127\n      jumpi\n      dup3\n      swap1\n      sub\n      0x1f\n      and\n      dup3\n      add\n      swap2\n    tag_125:\n      pop\n      pop\n      pop\n      pop\n      pop\n      dup2\n      mstore\n      0x20\n      add\n      0x01\n      dup3\n      add\n      sload\n      dup2\n      mstore\n      pop\n      pop\n      swap1\n      pop\n        /* \"contractFile\":3471:3472  s */\n      dup1\n        /* \"contractFile\":3464:3472  return s */\n      swap3\n      pop\n      pop\n      pop\n        /* \"contractFile\":3236:3479  function getHospitalService(uint hospitalID, uint serviceID) public view virtual returns (Service memory) {... */\n      swap3\n      swap2\n      pop\n      pop\n      jump\t// out\n        /* \"contractFile\":4106:4670  function takePosition(uint hospitalID, uint serviceID, uint examineePosition) public checkOpen returns (bool){... */\n    tag_50:\n        /* \"contractFile\":4210:4214  bool */\n      0x00\n        /* \"contractFile\":1794:1808  contractIsOpen */\n      0x02\n      0x00\n      swap1\n      sload\n      swap1\n      0x0100\n      exp\n      swap1\n      div\n      0xff\n      and\n        /* \"contractFile\":1786:1809  require(contractIsOpen) */\n      tag_129\n      jumpi\n      0x00\n      dup1\n      revert\n    tag_129:\n        /* \"contractFile\":4269:4270  1 */\n      0x01\n        /* \"contractFile\":4253:4266  numSelections */\n      sload(0x07)\n        /* \"contractFile\":4253:4270  numSelections + 1 */\n      tag_131\n      swap2\n      swap1\n      tag_132\n      jump\t// in\n    tag_131:\n        /* \"contractFile\":4233:4249  examineePosition */\n      dup3\n        /* \"contractFile\":4233:4270  examineePosition <= numSelections + 1 */\n      gt\n      iszero\n        /* \"contractFile\":4225:4271  require(examineePosition <= numSelections + 1) */\n      tag_133\n      jumpi\n      0x00\n      dup1\n      revert\n    tag_133:\n        /* \"contractFile\":4281:4290  bool done */\n      0x00\n        /* \"contractFile\":4308:4326  Hospital storage h */\n      dup1\n        /* \"contractFile\":4329:4338  hospitals */\n      0x04\n        /* \"contractFile\":4329:4350  hospitals[hospitalID] */\n      0x00\n        /* \"contractFile\":4339:4349  hospitalID */\n      dup8\n        /* \"contractFile\":4329:4350  hospitals[hospitalID] */\n      dup2\n      mstore\n      0x20\n      add\n      swap1\n      dup2\n      mstore\n      0x20\n      add\n      0x00\n      keccak256\n        /* \"contractFile\":4308:4350  Hospital storage h = hospitals[hospitalID] */\n      swap1\n      pop\n        /* \"contractFile\":4360:4377  Service storage s */\n      0x00\n        /* \"contractFile\":4380:4381  h */\n      dup2\n        /* \"contractFile\":4380:4400  h.servicesInHospital */\n      0x03\n      add\n        /* \"contractFile\":4380:4411  h.servicesInHospital[serviceID] */\n      0x00\n        /* \"contractFile\":4401:4410  serviceID */\n      dup8\n        /* \"contractFile\":4380:4411  h.servicesInHospital[serviceID] */\n      dup2\n      mstore\n      0x20\n      add\n      swap1\n      dup2\n      mstore\n      0x20\n      add\n      0x00\n      keccak256\n        /* \"contractFile\":4360:4411  Service storage s = h.servicesInHospital[serviceID] */\n      swap1\n      pop\n        /* \"contractFile\":4421:4439  Examinee storage e */\n      0x00\n        /* \"contractFile\":4442:4451  examinees */\n      0x06\n        /* \"contractFile\":4442:4469  examinees[examineePosition] */\n      0x00\n        /* \"contractFile\":4452:4468  examineePosition */\n      dup8\n        /* \"contractFile\":4442:4469  examinees[examineePosition] */\n      dup2\n      mstore\n      0x20\n      add\n      swap1\n      dup2\n      mstore\n      0x20\n      add\n      0x00\n      keccak256\n        /* \"contractFile\":4421:4469  Examinee storage e = examinees[examineePosition] */\n      swap1\n      pop\n        /* \"contractFile\":4494:4495  0 */\n      0x00\n        /* \"contractFile\":4482:4483  s */\n      dup3\n        /* \"contractFile\":4482:4491  s.ammount */\n      0x01\n      add\n      sload\n        /* \"contractFile\":4482:4495  s.ammount > 0 */\n      gt\n        /* \"contractFile\":4479:4643  if(s.ammount > 0) {... */\n      iszero\n      tag_134\n      jumpi\n        /* \"contractFile\":4544:4553  serviceID */\n      dup7\n        /* \"contractFile\":4511:4512  e */\n      dup2\n        /* \"contractFile\":4511:4529  e.hospital2Service */\n      0x04\n      add\n        /* \"contractFile\":4511:4541  e.hospital2Service[hospitalID] */\n      0x00\n        /* \"contractFile\":4530:4540  hospitalID */\n      dup11\n        /* \"contractFile\":4511:4541  e.hospital2Service[hospitalID] */\n      dup2\n      mstore\n      0x20\n      add\n      swap1\n      dup2\n      mstore\n      0x20\n      add\n      0x00\n      keccak256\n        /* \"contractFile\":4511:4553  e.hospital2Service[hospitalID] = serviceID */\n      dup2\n      swap1\n      sstore\n      pop\n        /* \"contractFile\":4567:4568  s */\n      dup2\n        /* \"contractFile\":4567:4576  s.ammount */\n      0x01\n      add\n      0x00\n        /* \"contractFile\":4567:4578  s.ammount-- */\n      dup2\n      sload\n      dup1\n      swap3\n      swap2\n      swap1\n      tag_135\n      swap1\n      tag_136\n      jump\t// in\n    tag_135:\n      swap2\n      swap1\n      pop\n      sstore\n      pop\n        /* \"contractFile\":4592:4605  numSelections */\n      0x07\n      0x00\n        /* \"contractFile\":4592:4607  numSelections++ */\n      dup2\n      sload\n      dup1\n      swap3\n      swap2\n      swap1\n      tag_137\n      swap1\n      tag_95\n      jump\t// in\n    tag_137:\n      swap2\n      swap1\n      pop\n      sstore\n      pop\n        /* \"contractFile\":4628:4632  true */\n      0x01\n        /* \"contractFile\":4621:4632  done = true */\n      swap4\n      pop\n        /* \"contractFile\":4479:4643  if(s.ammount > 0) {... */\n    tag_134:\n        /* \"contractFile\":4659:4663  done */\n      dup4\n        /* \"contractFile\":4652:4663  return done */\n      swap5\n      pop\n      pop\n      pop\n      pop\n      pop\n        /* \"contractFile\":4106:4670  function takePosition(uint hospitalID, uint serviceID, uint examineePosition) public checkOpen returns (bool){... */\n      swap4\n      swap3\n      pop\n      pop\n      pop\n      jump\t// out\n        /* \"contractFile\":891:913  address public manager */\n    tag_54:\n      0x00\n      dup1\n      sload\n      swap1\n      0x0100\n      exp\n      swap1\n      div\n      0xffffffffffffffffffffffffffffffffffffffff\n      and\n      dup2\n      jump\t// out\n        /* \"contractFile\":951:972  string public version */\n    tag_58:\n      0x01\n      dup1\n      sload\n      tag_138\n      swap1\n      tag_115\n      jump\t// in\n    tag_138:\n      dup1\n      0x1f\n      add\n      0x20\n      dup1\n      swap2\n      div\n      mul\n      0x20\n      add\n      mload(0x40)\n      swap1\n      dup2\n      add\n      0x40\n      mstore\n      dup1\n      swap3\n      swap2\n      swap1\n      dup2\n      dup2\n      mstore\n      0x20\n      add\n      dup3\n      dup1\n      sload\n      tag_139\n      swap1\n      tag_115\n      jump\t// in\n    tag_139:\n      dup1\n      iszero\n      tag_140\n      jumpi\n      dup1\n      0x1f\n      lt\n      tag_141\n      jumpi\n      0x0100\n      dup1\n      dup4\n      sload\n      div\n      mul\n      dup4\n      mstore\n      swap2\n      0x20\n      add\n      swap2\n      jump(tag_140)\n    tag_141:\n      dup3\n      add\n      swap2\n      swap1\n      0x00\n      mstore\n      keccak256(0x00, 0x20)\n      swap1\n    tag_142:\n      dup2\n      sload\n      dup2\n      mstore\n      swap1\n      0x01\n      add\n      swap1\n      0x20\n      add\n      dup1\n      dup4\n      gt\n      tag_142\n      jumpi\n      dup3\n      swap1\n      sub\n      0x1f\n      and\n      dup3\n      add\n      swap2\n    tag_140:\n      pop\n      pop\n      pop\n      pop\n      pop\n      dup2\n      jump\t// out\n        /* \"contractFile\":1031:1055  uint public numHospitals */\n    tag_61:\n      sload(0x03)\n      dup2\n      jump\t// out\n        /* \"contractFile\":2132:2213  function closeContract() public restricted{... */\n    tag_64:\n        /* \"contractFile\":1724:1731  manager */\n      0x00\n      dup1\n      sload\n      swap1\n      0x0100\n      exp\n      swap1\n      div\n      0xffffffffffffffffffffffffffffffffffffffff\n      and\n        /* \"contractFile\":1710:1731  msg.sender == manager */\n      0xffffffffffffffffffffffffffffffffffffffff\n      and\n        /* \"contractFile\":1710:1720  msg.sender */\n      caller\n        /* \"contractFile\":1710:1731  msg.sender == manager */\n      0xffffffffffffffffffffffffffffffffffffffff\n      and\n      eq\n        /* \"contractFile\":1702:1732  require(msg.sender == manager) */\n      tag_144\n      jumpi\n      0x00\n      dup1\n      revert\n    tag_144:\n        /* \"contractFile\":2201:2206  false */\n      0x00\n        /* \"contractFile\":2184:2198  contractIsOpen */\n      0x02\n      0x00\n        /* \"contractFile\":2184:2206  contractIsOpen = false */\n      0x0100\n      exp\n      dup2\n      sload\n      dup2\n      0xff\n      mul\n      not\n      and\n      swap1\n      dup4\n      iszero\n      iszero\n      mul\n      or\n      swap1\n      sstore\n      pop\n        /* \"contractFile\":2132:2213  function closeContract() public restricted{... */\n      jump\t// out\n        /* \"contractFile\":1177:1202  uint public numSelections */\n    tag_66:\n      sload(0x07)\n      dup2\n      jump\t// out\n        /* \"contractFile\":3850:4101  function getServiceInHospital(uint hospitalID, uint serviceID) public view virtual returns (Service memory) {... */\n    tag_70:\n        /* \"contractFile\":3942:3956  Service memory */\n      tag_146\n      tag_121\n      jump\t// in\n    tag_146:\n        /* \"contractFile\":3968:3986  Hospital storage h */\n      0x00\n        /* \"contractFile\":3989:3998  hospitals */\n      0x04\n        /* \"contractFile\":3989:4010  hospitals[hospitalID] */\n      0x00\n        /* \"contractFile\":3999:4009  hospitalID */\n      dup6\n        /* \"contractFile\":3989:4010  hospitals[hospitalID] */\n      dup2\n      mstore\n      0x20\n      add\n      swap1\n      dup2\n      mstore\n      0x20\n      add\n      0x00\n      keccak256\n        /* \"contractFile\":3968:4010  Hospital storage h = hospitals[hospitalID] */\n      swap1\n      pop\n        /* \"contractFile\":4020:4039  Service memory serv */\n      0x00\n        /* \"contractFile\":4042:4043  h */\n      dup2\n        /* \"contractFile\":4042:4062  h.servicesInHospital */\n      0x03\n      add\n        /* \"contractFile\":4042:4073  h.servicesInHospital[serviceID] */\n      0x00\n        /* \"contractFile\":4063:4072  serviceID */\n      dup6\n        /* \"contractFile\":4042:4073  h.servicesInHospital[serviceID] */\n      dup2\n      mstore\n      0x20\n      add\n      swap1\n      dup2\n      mstore\n      0x20\n      add\n      0x00\n      keccak256\n        /* \"contractFile\":4020:4073  Service memory serv = h.servicesInHospital[serviceID] */\n      mload(0x40)\n      dup1\n      0x40\n      add\n      0x40\n      mstore\n      swap1\n      dup2\n      0x00\n      dup3\n      add\n      dup1\n      sload\n      tag_148\n      swap1\n      tag_115\n      jump\t// in\n    tag_148:\n      dup1\n      0x1f\n      add\n      0x20\n      dup1\n      swap2\n      div\n      mul\n      0x20\n      add\n      mload(0x40)\n      swap1\n      dup2\n      add\n      0x40\n      mstore\n      dup1\n      swap3\n      swap2\n      swap1\n      dup2\n      dup2\n      mstore\n      0x20\n      add\n      dup3\n      dup1\n      sload\n      tag_149\n      swap1\n      tag_115\n      jump\t// in\n    tag_149:\n      dup1\n      iszero\n      tag_150\n      jumpi\n      dup1\n      0x1f\n      lt\n      tag_151\n      jumpi\n      0x0100\n      dup1\n      dup4\n      sload\n      div\n      mul\n      dup4\n      mstore\n      swap2\n      0x20\n      add\n      swap2\n      jump(tag_150)\n    tag_151:\n      dup3\n      add\n      swap2\n      swap1\n      0x00\n      mstore\n      keccak256(0x00, 0x20)\n      swap1\n    tag_152:\n      dup2\n      sload\n      dup2\n      mstore\n      swap1\n      0x01\n      add\n      swap1\n      0x20\n      add\n      dup1\n      dup4\n      gt\n      tag_152\n      jumpi\n      dup3\n      swap1\n      sub\n      0x1f\n      and\n      dup3\n      add\n      swap2\n    tag_150:\n      pop\n      pop\n      pop\n      pop\n      pop\n      dup2\n      mstore\n      0x20\n      add\n      0x01\n      dup3\n      add\n      sload\n      dup2\n      mstore\n      pop\n      pop\n      swap1\n      pop\n        /* \"contractFile\":4090:4094  serv */\n      dup1\n        /* \"contractFile\":4083:4094  return serv */\n      swap3\n      pop\n      pop\n      pop\n        /* \"contractFile\":3850:4101  function getServiceInHospital(uint hospitalID, uint serviceID) public view virtual returns (Service memory) {... */\n      swap3\n      swap2\n      pop\n      pop\n      jump\t// out\n        /* \"contractFile\":3484:3845  function newServiceInHopsital(uint hospitalID, string memory department, uint ammount) public restricted checkOpen returns (uint serviceID) {... */\n    tag_75:\n        /* \"contractFile\":3608:3622  uint serviceID */\n      0x00\n        /* \"contractFile\":1724:1731  manager */\n      dup1\n      0x00\n      swap1\n      sload\n      swap1\n      0x0100\n      exp\n      swap1\n      div\n      0xffffffffffffffffffffffffffffffffffffffff\n      and\n        /* \"contractFile\":1710:1731  msg.sender == manager */\n      0xffffffffffffffffffffffffffffffffffffffff\n      and\n        /* \"contractFile\":1710:1720  msg.sender */\n      caller\n        /* \"contractFile\":1710:1731  msg.sender == manager */\n      0xffffffffffffffffffffffffffffffffffffffff\n      and\n      eq\n        /* \"contractFile\":1702:1732  require(msg.sender == manager) */\n      tag_154\n      jumpi\n      0x00\n      dup1\n      revert\n    tag_154:\n        /* \"contractFile\":1794:1808  contractIsOpen */\n      0x02\n      0x00\n      swap1\n      sload\n      swap1\n      0x0100\n      exp\n      swap1\n      div\n      0xff\n      and\n        /* \"contractFile\":1786:1809  require(contractIsOpen) */\n      tag_156\n      jumpi\n      0x00\n      dup1\n      revert\n    tag_156:\n        /* \"contractFile\":3634:3652  Hospital storage h */\n      0x00\n        /* \"contractFile\":3655:3664  hospitals */\n      0x04\n        /* \"contractFile\":3655:3676  hospitals[hospitalID] */\n      0x00\n        /* \"contractFile\":3665:3675  hospitalID */\n      dup7\n        /* \"contractFile\":3655:3676  hospitals[hospitalID] */\n      dup2\n      mstore\n      0x20\n      add\n      swap1\n      dup2\n      mstore\n      0x20\n      add\n      0x00\n      keccak256\n        /* \"contractFile\":3634:3676  Hospital storage h = hospitals[hospitalID] */\n      swap1\n      pop\n        /* \"contractFile\":3698:3699  h */\n      dup1\n        /* \"contractFile\":3698:3711  h.numServices */\n      0x02\n      add\n      0x00\n        /* \"contractFile\":3698:3713  h.numServices++ */\n      dup2\n      sload\n      dup1\n      swap3\n      swap2\n      swap1\n      tag_158\n      swap1\n      tag_95\n      jump\t// in\n    tag_158:\n      swap2\n      swap1\n      pop\n      sstore\n        /* \"contractFile\":3686:3713  serviceID = h.numServices++ */\n      swap2\n      pop\n        /* \"contractFile\":3723:3740  Service storage s */\n      0x00\n        /* \"contractFile\":3743:3744  h */\n      dup2\n        /* \"contractFile\":3743:3763  h.servicesInHospital */\n      0x03\n      add\n        /* \"contractFile\":3743:3774  h.servicesInHospital[serviceID] */\n      0x00\n        /* \"contractFile\":3764:3773  serviceID */\n      dup5\n        /* \"contractFile\":3743:3774  h.servicesInHospital[serviceID] */\n      dup2\n      mstore\n      0x20\n      add\n      swap1\n      dup2\n      mstore\n      0x20\n      add\n      0x00\n      keccak256\n        /* \"contractFile\":3723:3774  Service storage s = h.servicesInHospital[serviceID] */\n      swap1\n      pop\n        /* \"contractFile\":3799:3809  department */\n      dup5\n        /* \"contractFile\":3784:3785  s */\n      dup2\n        /* \"contractFile\":3784:3796  s.department */\n      0x00\n      add\n        /* \"contractFile\":3784:3809  s.department = department */\n      swap1\n      dup1\n      mload\n      swap1\n      0x20\n      add\n      swap1\n      tag_159\n      swap3\n      swap2\n      swap1\n      tag_97\n      jump\t// in\n    tag_159:\n      pop\n        /* \"contractFile\":3831:3838  ammount */\n      dup4\n        /* \"contractFile\":3819:3820  s */\n      dup2\n        /* \"contractFile\":3819:3828  s.ammount */\n      0x01\n      add\n        /* \"contractFile\":3819:3838  s.ammount = ammount */\n      dup2\n      swap1\n      sstore\n      pop\n        /* \"contractFile\":3624:3845  {... */\n      pop\n      pop\n        /* \"contractFile\":3484:3845  function newServiceInHopsital(uint hospitalID, string memory department, uint ammount) public restricted checkOpen returns (uint serviceID) {... */\n      swap4\n      swap3\n      pop\n      pop\n      pop\n      jump\t// out\n        /* \"contractFile\":994:1020  bool public contractIsOpen */\n    tag_78:\n      0x02\n      0x00\n      swap1\n      sload\n      swap1\n      0x0100\n      exp\n      swap1\n      div\n      0xff\n      and\n      dup2\n      jump\t// out\n        /* \"contractFile\":2569:2736  function getExaminee(uint examineeID) public view virtual returns (string memory) {... */\n    tag_82:\n        /* \"contractFile\":2636:2649  string memory */\n      0x60\n        /* \"contractFile\":2661:2679  string memory name */\n      0x00\n        /* \"contractFile\":2682:2691  examinees */\n      0x06\n        /* \"contractFile\":2682:2703  examinees[examineeID] */\n      0x00\n        /* \"contractFile\":2692:2702  examineeID */\n      dup5\n        /* \"contractFile\":2682:2703  examinees[examineeID] */\n      dup2\n      mstore\n      0x20\n      add\n      swap1\n      dup2\n      mstore\n      0x20\n      add\n      0x00\n      keccak256\n        /* \"contractFile\":2682:2708  examinees[examineeID].name */\n      0x02\n      add\n        /* \"contractFile\":2661:2708  string memory name = examinees[examineeID].name */\n      dup1\n      sload\n      tag_161\n      swap1\n      tag_115\n      jump\t// in\n    tag_161:\n      dup1\n      0x1f\n      add\n      0x20\n      dup1\n      swap2\n      div\n      mul\n      0x20\n      add\n      mload(0x40)\n      swap1\n      dup2\n      add\n      0x40\n      mstore\n      dup1\n      swap3\n      swap2\n      swap1\n      dup2\n      dup2\n      mstore\n      0x20\n      add\n      dup3\n      dup1\n      sload\n      tag_162\n      swap1\n      tag_115\n      jump\t// in\n    tag_162:\n      dup1\n      iszero\n      tag_163\n      jumpi\n      dup1\n      0x1f\n      lt\n      tag_164\n      jumpi\n      0x0100\n      dup1\n      dup4\n      sload\n      div\n      mul\n      dup4\n      mstore\n      swap2\n      0x20\n      add\n      swap2\n      jump(tag_163)\n    tag_164:\n      dup3\n      add\n      swap2\n      swap1\n      0x00\n      mstore\n      keccak256(0x00, 0x20)\n      swap1\n    tag_165:\n      dup2\n      sload\n      dup2\n      mstore\n      swap1\n      0x01\n      add\n      swap1\n      0x20\n      add\n      dup1\n      dup4\n      gt\n      tag_165\n      jumpi\n      dup3\n      swap1\n      sub\n      0x1f\n      and\n      dup3\n      add\n      swap2\n    tag_163:\n      pop\n      pop\n      pop\n      pop\n      pop\n      swap1\n      pop\n        /* \"contractFile\":2725:2729  name */\n      dup1\n        /* \"contractFile\":2718:2729  return name */\n      swap2\n      pop\n      pop\n        /* \"contractFile\":2569:2736  function getExaminee(uint examineeID) public view virtual returns (string memory) {... */\n      swap2\n      swap1\n      pop\n      jump\t// out\n        /* \"contractFile\":1104:1128  uint public numExaminees */\n    tag_85:\n      sload(0x05)\n      dup2\n      jump\t// out\n        /* \"contractFile\":1833:2029  function getDetails() public view returns (uint, uint, uint, bool) {... */\n    tag_88:\n        /* \"contractFile\":1876:1880  uint */\n      0x00\n        /* \"contractFile\":1882:1886  uint */\n      dup1\n        /* \"contractFile\":1888:1892  uint */\n      0x00\n        /* \"contractFile\":1894:1898  bool */\n      dup1\n        /* \"contractFile\":1919:1931  numHospitals */\n      sload(0x03)\n        /* \"contractFile\":1945:1957  numExaminees */\n      sload(0x05)\n        /* \"contractFile\":1971:1984  numSelections */\n      sload(0x07)\n        /* \"contractFile\":1998:2012  contractIsOpen */\n      0x02\n      0x00\n      swap1\n      sload\n      swap1\n      0x0100\n      exp\n      swap1\n      div\n      0xff\n      and\n        /* \"contractFile\":1910:2022  return ( numHospitals,... */\n      swap4\n      pop\n      swap4\n      pop\n      swap4\n      pop\n      swap4\n      pop\n        /* \"contractFile\":1833:2029  function getDetails() public view returns (uint, uint, uint, bool) {... */\n      swap1\n      swap2\n      swap3\n      swap4\n      jump\t// out\n    tag_97:\n      dup3\n      dup1\n      sload\n      tag_167\n      swap1\n      tag_115\n      jump\t// in\n    tag_167:\n      swap1\n      0x00\n      mstore\n      keccak256(0x00, 0x20)\n      swap1\n      0x1f\n      add\n      0x20\n      swap1\n      div\n      dup2\n      add\n      swap3\n      dup3\n      tag_169\n      jumpi\n      0x00\n      dup6\n      sstore\n      jump(tag_168)\n    tag_169:\n      dup3\n      0x1f\n      lt\n      tag_170\n      jumpi\n      dup1\n      mload\n      not(0xff)\n      and\n      dup4\n      dup1\n      add\n      or\n      dup6\n      sstore\n      jump(tag_168)\n    tag_170:\n      dup3\n      dup1\n      add\n      0x01\n      add\n      dup6\n      sstore\n      dup3\n      iszero\n      tag_168\n      jumpi\n      swap2\n      dup3\n      add\n    tag_171:\n      dup3\n      dup2\n      gt\n      iszero\n      tag_172\n      jumpi\n      dup3\n      mload\n      dup3\n      sstore\n      swap2\n      0x20\n      add\n      swap2\n      swap1\n      0x01\n      add\n      swap1\n      jump(tag_171)\n    tag_172:\n    tag_168:\n      pop\n      swap1\n      pop\n      tag_173\n      swap2\n      swap1\n      tag_174\n      jump\t// in\n    tag_173:\n      pop\n      swap1\n      jump\t// out\n    tag_121:\n      mload(0x40)\n      dup1\n      0x40\n      add\n      0x40\n      mstore\n      dup1\n      0x60\n      dup2\n      mstore\n      0x20\n      add\n      0x00\n      dup2\n      mstore\n      pop\n      swap1\n      jump\t// out\n    tag_174:\n    tag_175:\n      dup1\n      dup3\n      gt\n      iszero\n      tag_176\n      jumpi\n      0x00\n      dup2\n      0x00\n      swap1\n      sstore\n      pop\n      0x01\n      add\n      jump(tag_175)\n    tag_176:\n      pop\n      swap1\n      jump\t// out\n        /* \"#utility.yul\":7:82   */\n    tag_177:\n        /* \"#utility.yul\":40:46   */\n      0x00\n        /* \"#utility.yul\":73:75   */\n      0x40\n        /* \"#utility.yul\":67:76   */\n      mload\n        /* \"#utility.yul\":57:76   */\n      swap1\n      pop\n        /* \"#utility.yul\":7:82   */\n      swap1\n      jump\t// out\n        /* \"#utility.yul\":88:205   */\n    tag_178:\n        /* \"#utility.yul\":197:198   */\n      0x00\n        /* \"#utility.yul\":194:195   */\n      dup1\n        /* \"#utility.yul\":187:199   */\n      revert\n        /* \"#utility.yul\":211:328   */\n    tag_179:\n        /* \"#utility.yul\":320:321   */\n      0x00\n        /* \"#utility.yul\":317:318   */\n      dup1\n        /* \"#utility.yul\":310:322   */\n      revert\n        /* \"#utility.yul\":334:451   */\n    tag_180:\n        /* \"#utility.yul\":443:444   */\n      0x00\n        /* \"#utility.yul\":440:441   */\n      dup1\n        /* \"#utility.yul\":433:445   */\n      revert\n        /* \"#utility.yul\":457:574   */\n    tag_181:\n        /* \"#utility.yul\":566:567   */\n      0x00\n        /* \"#utility.yul\":563:564   */\n      dup1\n        /* \"#utility.yul\":556:568   */\n      revert\n        /* \"#utility.yul\":580:682   */\n    tag_182:\n        /* \"#utility.yul\":621:627   */\n      0x00\n        /* \"#utility.yul\":672:674   */\n      0x1f\n        /* \"#utility.yul\":668:675   */\n      not\n        /* \"#utility.yul\":663:665   */\n      0x1f\n        /* \"#utility.yul\":656:661   */\n      dup4\n        /* \"#utility.yul\":652:666   */\n      add\n        /* \"#utility.yul\":648:676   */\n      and\n        /* \"#utility.yul\":638:676   */\n      swap1\n      pop\n        /* \"#utility.yul\":580:682   */\n      swap2\n      swap1\n      pop\n      jump\t// out\n        /* \"#utility.yul\":688:868   */\n    tag_183:\n        /* \"#utility.yul\":736:813   */\n      0x4e487b7100000000000000000000000000000000000000000000000000000000\n        /* \"#utility.yul\":733:734   */\n      0x00\n        /* \"#utility.yul\":726:814   */\n      mstore\n        /* \"#utility.yul\":833:837   */\n      0x41\n        /* \"#utility.yul\":830:831   */\n      0x04\n        /* \"#utility.yul\":823:838   */\n      mstore\n        /* \"#utility.yul\":857:861   */\n      0x24\n        /* \"#utility.yul\":854:855   */\n      0x00\n        /* \"#utility.yul\":847:862   */\n      revert\n        /* \"#utility.yul\":874:1155   */\n    tag_184:\n        /* \"#utility.yul\":957:984   */\n      tag_218\n        /* \"#utility.yul\":979:983   */\n      dup3\n        /* \"#utility.yul\":957:984   */\n      tag_182\n      jump\t// in\n    tag_218:\n        /* \"#utility.yul\":949:955   */\n      dup2\n        /* \"#utility.yul\":945:985   */\n      add\n        /* \"#utility.yul\":1087:1093   */\n      dup2\n        /* \"#utility.yul\":1075:1085   */\n      dup2\n        /* \"#utility.yul\":1072:1094   */\n      lt\n        /* \"#utility.yul\":1051:1069   */\n      0xffffffffffffffff\n        /* \"#utility.yul\":1039:1049   */\n      dup3\n        /* \"#utility.yul\":1036:1070   */\n      gt\n        /* \"#utility.yul\":1033:1095   */\n      or\n        /* \"#utility.yul\":1030:1118   */\n      iszero\n      tag_219\n      jumpi\n        /* \"#utility.yul\":1098:1116   */\n      tag_220\n      tag_183\n      jump\t// in\n    tag_220:\n        /* \"#utility.yul\":1030:1118   */\n    tag_219:\n        /* \"#utility.yul\":1138:1148   */\n      dup1\n        /* \"#utility.yul\":1134:1136   */\n      0x40\n        /* \"#utility.yul\":1127:1149   */\n      mstore\n        /* \"#utility.yul\":917:1155   */\n      pop\n        /* \"#utility.yul\":874:1155   */\n      pop\n      pop\n      jump\t// out\n        /* \"#utility.yul\":1161:1290   */\n    tag_185:\n        /* \"#utility.yul\":1195:1201   */\n      0x00\n        /* \"#utility.yul\":1222:1242   */\n      tag_222\n      tag_177\n      jump\t// in\n    tag_222:\n        /* \"#utility.yul\":1212:1242   */\n      swap1\n      pop\n        /* \"#utility.yul\":1251:1284   */\n      tag_223\n        /* \"#utility.yul\":1279:1283   */\n      dup3\n        /* \"#utility.yul\":1271:1277   */\n      dup3\n        /* \"#utility.yul\":1251:1284   */\n      tag_184\n      jump\t// in\n    tag_223:\n        /* \"#utility.yul\":1161:1290   */\n      swap2\n      swap1\n      pop\n      jump\t// out\n        /* \"#utility.yul\":1296:1604   */\n    tag_186:\n        /* \"#utility.yul\":1358:1362   */\n      0x00\n        /* \"#utility.yul\":1448:1466   */\n      0xffffffffffffffff\n        /* \"#utility.yul\":1440:1446   */\n      dup3\n        /* \"#utility.yul\":1437:1467   */\n      gt\n        /* \"#utility.yul\":1434:1490   */\n      iszero\n      tag_225\n      jumpi\n        /* \"#utility.yul\":1470:1488   */\n      tag_226\n      tag_183\n      jump\t// in\n    tag_226:\n        /* \"#utility.yul\":1434:1490   */\n    tag_225:\n        /* \"#utility.yul\":1508:1537   */\n      tag_227\n        /* \"#utility.yul\":1530:1536   */\n      dup3\n        /* \"#utility.yul\":1508:1537   */\n      tag_182\n      jump\t// in\n    tag_227:\n        /* \"#utility.yul\":1500:1537   */\n      swap1\n      pop\n        /* \"#utility.yul\":1592:1596   */\n      0x20\n        /* \"#utility.yul\":1586:1590   */\n      dup2\n        /* \"#utility.yul\":1582:1597   */\n      add\n        /* \"#utility.yul\":1574:1597   */\n      swap1\n      pop\n        /* \"#utility.yul\":1296:1604   */\n      swap2\n      swap1\n      pop\n      jump\t// out\n        /* \"#utility.yul\":1610:1764   */\n    tag_187:\n        /* \"#utility.yul\":1694:1700   */\n      dup3\n        /* \"#utility.yul\":1689:1692   */\n      dup2\n        /* \"#utility.yul\":1684:1687   */\n      dup4\n        /* \"#utility.yul\":1671:1701   */\n      calldatacopy\n        /* \"#utility.yul\":1756:1757   */\n      0x00\n        /* \"#utility.yul\":1747:1753   */\n      dup4\n        /* \"#utility.yul\":1742:1745   */\n      dup4\n        /* \"#utility.yul\":1738:1754   */\n      add\n        /* \"#utility.yul\":1731:1758   */\n      mstore\n        /* \"#utility.yul\":1610:1764   */\n      pop\n      pop\n      pop\n      jump\t// out\n        /* \"#utility.yul\":1770:2182   */\n    tag_188:\n        /* \"#utility.yul\":1848:1853   */\n      0x00\n        /* \"#utility.yul\":1873:1939   */\n      tag_230\n        /* \"#utility.yul\":1889:1938   */\n      tag_231\n        /* \"#utility.yul\":1931:1937   */\n      dup5\n        /* \"#utility.yul\":1889:1938   */\n      tag_186\n      jump\t// in\n    tag_231:\n        /* \"#utility.yul\":1873:1939   */\n      tag_185\n      jump\t// in\n    tag_230:\n        /* \"#utility.yul\":1864:1939   */\n      swap1\n      pop\n        /* \"#utility.yul\":1962:1968   */\n      dup3\n        /* \"#utility.yul\":1955:1960   */\n      dup2\n        /* \"#utility.yul\":1948:1969   */\n      mstore\n        /* \"#utility.yul\":2000:2004   */\n      0x20\n        /* \"#utility.yul\":1993:1998   */\n      dup2\n        /* \"#utility.yul\":1989:2005   */\n      add\n        /* \"#utility.yul\":2038:2041   */\n      dup5\n        /* \"#utility.yul\":2029:2035   */\n      dup5\n        /* \"#utility.yul\":2024:2027   */\n      dup5\n        /* \"#utility.yul\":2020:2036   */\n      add\n        /* \"#utility.yul\":2017:2042   */\n      gt\n        /* \"#utility.yul\":2014:2126   */\n      iszero\n      tag_232\n      jumpi\n        /* \"#utility.yul\":2045:2124   */\n      tag_233\n      tag_181\n      jump\t// in\n    tag_233:\n        /* \"#utility.yul\":2014:2126   */\n    tag_232:\n        /* \"#utility.yul\":2135:2176   */\n      tag_234\n        /* \"#utility.yul\":2169:2175   */\n      dup5\n        /* \"#utility.yul\":2164:2167   */\n      dup3\n        /* \"#utility.yul\":2159:2162   */\n      dup6\n        /* \"#utility.yul\":2135:2176   */\n      tag_187\n      jump\t// in\n    tag_234:\n        /* \"#utility.yul\":1854:2182   */\n      pop\n        /* \"#utility.yul\":1770:2182   */\n      swap4\n      swap3\n      pop\n      pop\n      pop\n      jump\t// out\n        /* \"#utility.yul\":2202:2542   */\n    tag_189:\n        /* \"#utility.yul\":2258:2263   */\n      0x00\n        /* \"#utility.yul\":2307:2310   */\n      dup3\n        /* \"#utility.yul\":2300:2304   */\n      0x1f\n        /* \"#utility.yul\":2292:2298   */\n      dup4\n        /* \"#utility.yul\":2288:2305   */\n      add\n        /* \"#utility.yul\":2284:2311   */\n      slt\n        /* \"#utility.yul\":2274:2396   */\n      tag_236\n      jumpi\n        /* \"#utility.yul\":2315:2394   */\n      tag_237\n      tag_180\n      jump\t// in\n    tag_237:\n        /* \"#utility.yul\":2274:2396   */\n    tag_236:\n        /* \"#utility.yul\":2432:2438   */\n      dup2\n        /* \"#utility.yul\":2419:2439   */\n      calldataload\n        /* \"#utility.yul\":2457:2536   */\n      tag_238\n        /* \"#utility.yul\":2532:2535   */\n      dup5\n        /* \"#utility.yul\":2524:2530   */\n      dup3\n        /* \"#utility.yul\":2517:2521   */\n      0x20\n        /* \"#utility.yul\":2509:2515   */\n      dup7\n        /* \"#utility.yul\":2505:2522   */\n      add\n        /* \"#utility.yul\":2457:2536   */\n      tag_188\n      jump\t// in\n    tag_238:\n        /* \"#utility.yul\":2448:2536   */\n      swap2\n      pop\n        /* \"#utility.yul\":2264:2542   */\n      pop\n        /* \"#utility.yul\":2202:2542   */\n      swap3\n      swap2\n      pop\n      pop\n      jump\t// out\n        /* \"#utility.yul\":2548:3382   */\n    tag_25:\n        /* \"#utility.yul\":2636:2642   */\n      0x00\n        /* \"#utility.yul\":2644:2650   */\n      dup1\n        /* \"#utility.yul\":2693:2695   */\n      0x40\n        /* \"#utility.yul\":2681:2690   */\n      dup4\n        /* \"#utility.yul\":2672:2679   */\n      dup6\n        /* \"#utility.yul\":2668:2691   */\n      sub\n        /* \"#utility.yul\":2664:2696   */\n      slt\n        /* \"#utility.yul\":2661:2780   */\n      iszero\n      tag_240\n      jumpi\n        /* \"#utility.yul\":2699:2778   */\n      tag_241\n      tag_178\n      jump\t// in\n    tag_241:\n        /* \"#utility.yul\":2661:2780   */\n    tag_240:\n        /* \"#utility.yul\":2847:2848   */\n      0x00\n        /* \"#utility.yul\":2836:2845   */\n      dup4\n        /* \"#utility.yul\":2832:2849   */\n      add\n        /* \"#utility.yul\":2819:2850   */\n      calldataload\n        /* \"#utility.yul\":2877:2895   */\n      0xffffffffffffffff\n        /* \"#utility.yul\":2869:2875   */\n      dup2\n        /* \"#utility.yul\":2866:2896   */\n      gt\n        /* \"#utility.yul\":2863:2980   */\n      iszero\n      tag_242\n      jumpi\n        /* \"#utility.yul\":2899:2978   */\n      tag_243\n      tag_179\n      jump\t// in\n    tag_243:\n        /* \"#utility.yul\":2863:2980   */\n    tag_242:\n        /* \"#utility.yul\":3004:3067   */\n      tag_244\n        /* \"#utility.yul\":3059:3066   */\n      dup6\n        /* \"#utility.yul\":3050:3056   */\n      dup3\n        /* \"#utility.yul\":3039:3048   */\n      dup7\n        /* \"#utility.yul\":3035:3057   */\n      add\n        /* \"#utility.yul\":3004:3067   */\n      tag_189\n      jump\t// in\n    tag_244:\n        /* \"#utility.yul\":2994:3067   */\n      swap3\n      pop\n        /* \"#utility.yul\":2790:3077   */\n      pop\n        /* \"#utility.yul\":3144:3146   */\n      0x20\n        /* \"#utility.yul\":3133:3142   */\n      dup4\n        /* \"#utility.yul\":3129:3147   */\n      add\n        /* \"#utility.yul\":3116:3148   */\n      calldataload\n        /* \"#utility.yul\":3175:3193   */\n      0xffffffffffffffff\n        /* \"#utility.yul\":3167:3173   */\n      dup2\n        /* \"#utility.yul\":3164:3194   */\n      gt\n        /* \"#utility.yul\":3161:3278   */\n      iszero\n      tag_245\n      jumpi\n        /* \"#utility.yul\":3197:3276   */\n      tag_246\n      tag_179\n      jump\t// in\n    tag_246:\n        /* \"#utility.yul\":3161:3278   */\n    tag_245:\n        /* \"#utility.yul\":3302:3365   */\n      tag_247\n        /* \"#utility.yul\":3357:3364   */\n      dup6\n        /* \"#utility.yul\":3348:3354   */\n      dup3\n        /* \"#utility.yul\":3337:3346   */\n      dup7\n        /* \"#utility.yul\":3333:3355   */\n      add\n        /* \"#utility.yul\":3302:3365   */\n      tag_189\n      jump\t// in\n    tag_247:\n        /* \"#utility.yul\":3292:3365   */\n      swap2\n      pop\n        /* \"#utility.yul\":3087:3375   */\n      pop\n        /* \"#utility.yul\":2548:3382   */\n      swap3\n      pop\n      swap3\n      swap1\n      pop\n      jump\t// out\n        /* \"#utility.yul\":3388:3465   */\n    tag_190:\n        /* \"#utility.yul\":3425:3432   */\n      0x00\n        /* \"#utility.yul\":3454:3459   */\n      dup2\n        /* \"#utility.yul\":3443:3459   */\n      swap1\n      pop\n        /* \"#utility.yul\":3388:3465   */\n      swap2\n      swap1\n      pop\n      jump\t// out\n        /* \"#utility.yul\":3471:3589   */\n    tag_191:\n        /* \"#utility.yul\":3558:3582   */\n      tag_250\n        /* \"#utility.yul\":3576:3581   */\n      dup2\n        /* \"#utility.yul\":3558:3582   */\n      tag_190\n      jump\t// in\n    tag_250:\n        /* \"#utility.yul\":3553:3556   */\n      dup3\n        /* \"#utility.yul\":3546:3583   */\n      mstore\n        /* \"#utility.yul\":3471:3589   */\n      pop\n      pop\n      jump\t// out\n        /* \"#utility.yul\":3595:3817   */\n    tag_28:\n        /* \"#utility.yul\":3688:3692   */\n      0x00\n        /* \"#utility.yul\":3726:3728   */\n      0x20\n        /* \"#utility.yul\":3715:3724   */\n      dup3\n        /* \"#utility.yul\":3711:3729   */\n      add\n        /* \"#utility.yul\":3703:3729   */\n      swap1\n      pop\n        /* \"#utility.yul\":3739:3810   */\n      tag_252\n        /* \"#utility.yul\":3807:3808   */\n      0x00\n        /* \"#utility.yul\":3796:3805   */\n      dup4\n        /* \"#utility.yul\":3792:3809   */\n      add\n        /* \"#utility.yul\":3783:3789   */\n      dup5\n        /* \"#utility.yul\":3739:3810   */\n      tag_191\n      jump\t// in\n    tag_252:\n        /* \"#utility.yul\":3595:3817   */\n      swap3\n      swap2\n      pop\n      pop\n      jump\t// out\n        /* \"#utility.yul\":3823:3945   */\n    tag_192:\n        /* \"#utility.yul\":3896:3920   */\n      tag_254\n        /* \"#utility.yul\":3914:3919   */\n      dup2\n        /* \"#utility.yul\":3896:3920   */\n      tag_190\n      jump\t// in\n    tag_254:\n        /* \"#utility.yul\":3889:3894   */\n      dup2\n        /* \"#utility.yul\":3886:3921   */\n      eq\n        /* \"#utility.yul\":3876:3939   */\n      tag_255\n      jumpi\n        /* \"#utility.yul\":3935:3936   */\n      0x00\n        /* \"#utility.yul\":3932:3933   */\n      dup1\n        /* \"#utility.yul\":3925:3937   */\n      revert\n        /* \"#utility.yul\":3876:3939   */\n    tag_255:\n        /* \"#utility.yul\":3823:3945   */\n      pop\n      jump\t// out\n        /* \"#utility.yul\":3951:4090   */\n    tag_193:\n        /* \"#utility.yul\":3997:4002   */\n      0x00\n        /* \"#utility.yul\":4035:4041   */\n      dup2\n        /* \"#utility.yul\":4022:4042   */\n      calldataload\n        /* \"#utility.yul\":4013:4042   */\n      swap1\n      pop\n        /* \"#utility.yul\":4051:4084   */\n      tag_257\n        /* \"#utility.yul\":4078:4083   */\n      dup2\n        /* \"#utility.yul\":4051:4084   */\n      tag_192\n      jump\t// in\n    tag_257:\n        /* \"#utility.yul\":3951:4090   */\n      swap3\n      swap2\n      pop\n      pop\n      jump\t// out\n        /* \"#utility.yul\":4096:4425   */\n    tag_37:\n        /* \"#utility.yul\":4155:4161   */\n      0x00\n        /* \"#utility.yul\":4204:4206   */\n      0x20\n        /* \"#utility.yul\":4192:4201   */\n      dup3\n        /* \"#utility.yul\":4183:4190   */\n      dup5\n        /* \"#utility.yul\":4179:4202   */\n      sub\n        /* \"#utility.yul\":4175:4207   */\n      slt\n        /* \"#utility.yul\":4172:4291   */\n      iszero\n      tag_259\n      jumpi\n        /* \"#utility.yul\":4210:4289   */\n      tag_260\n      tag_178\n      jump\t// in\n    tag_260:\n        /* \"#utility.yul\":4172:4291   */\n    tag_259:\n        /* \"#utility.yul\":4330:4331   */\n      0x00\n        /* \"#utility.yul\":4355:4408   */\n      tag_261\n        /* \"#utility.yul\":4400:4407   */\n      dup5\n        /* \"#utility.yul\":4391:4397   */\n      dup3\n        /* \"#utility.yul\":4380:4389   */\n      dup6\n        /* \"#utility.yul\":4376:4398   */\n      add\n        /* \"#utility.yul\":4355:4408   */\n      tag_193\n      jump\t// in\n    tag_261:\n        /* \"#utility.yul\":4345:4408   */\n      swap2\n      pop\n        /* \"#utility.yul\":4301:4418   */\n      pop\n        /* \"#utility.yul\":4096:4425   */\n      swap3\n      swap2\n      pop\n      pop\n      jump\t// out\n        /* \"#utility.yul\":4431:4530   */\n    tag_194:\n        /* \"#utility.yul\":4483:4489   */\n      0x00\n        /* \"#utility.yul\":4517:4522   */\n      dup2\n        /* \"#utility.yul\":4511:4523   */\n      mload\n        /* \"#utility.yul\":4501:4523   */\n      swap1\n      pop\n        /* \"#utility.yul\":4431:4530   */\n      swap2\n      swap1\n      pop\n      jump\t// out\n        /* \"#utility.yul\":4536:4705   */\n    tag_195:\n        /* \"#utility.yul\":4620:4631   */\n      0x00\n        /* \"#utility.yul\":4654:4660   */\n      dup3\n        /* \"#utility.yul\":4649:4652   */\n      dup3\n        /* \"#utility.yul\":4642:4661   */\n      mstore\n        /* \"#utility.yul\":4694:4698   */\n      0x20\n        /* \"#utility.yul\":4689:4692   */\n      dup3\n        /* \"#utility.yul\":4685:4699   */\n      add\n        /* \"#utility.yul\":4670:4699   */\n      swap1\n      pop\n        /* \"#utility.yul\":4536:4705   */\n      swap3\n      swap2\n      pop\n      pop\n      jump\t// out\n        /* \"#utility.yul\":4711:5018   */\n    tag_196:\n        /* \"#utility.yul\":4779:4780   */\n      0x00\n        /* \"#utility.yul\":4789:4902   */\n    tag_265:\n        /* \"#utility.yul\":4803:4809   */\n      dup4\n        /* \"#utility.yul\":4800:4801   */\n      dup2\n        /* \"#utility.yul\":4797:4810   */\n      lt\n        /* \"#utility.yul\":4789:4902   */\n      iszero\n      tag_267\n      jumpi\n        /* \"#utility.yul\":4888:4889   */\n      dup1\n        /* \"#utility.yul\":4883:4886   */\n      dup3\n        /* \"#utility.yul\":4879:4890   */\n      add\n        /* \"#utility.yul\":4873:4891   */\n      mload\n        /* \"#utility.yul\":4869:4870   */\n      dup2\n        /* \"#utility.yul\":4864:4867   */\n      dup5\n        /* \"#utility.yul\":4860:4871   */\n      add\n        /* \"#utility.yul\":4853:4892   */\n      mstore\n        /* \"#utility.yul\":4825:4827   */\n      0x20\n        /* \"#utility.yul\":4822:4823   */\n      dup2\n        /* \"#utility.yul\":4818:4828   */\n      add\n        /* \"#utility.yul\":4813:4828   */\n      swap1\n      pop\n        /* \"#utility.yul\":4789:4902   */\n      jump(tag_265)\n    tag_267:\n        /* \"#utility.yul\":4920:4926   */\n      dup4\n        /* \"#utility.yul\":4917:4918   */\n      dup2\n        /* \"#utility.yul\":4914:4927   */\n      gt\n        /* \"#utility.yul\":4911:5012   */\n      iszero\n      tag_268\n      jumpi\n        /* \"#utility.yul\":5000:5001   */\n      0x00\n        /* \"#utility.yul\":4991:4997   */\n      dup5\n        /* \"#utility.yul\":4986:4989   */\n      dup5\n        /* \"#utility.yul\":4982:4998   */\n      add\n        /* \"#utility.yul\":4975:5002   */\n      mstore\n        /* \"#utility.yul\":4911:5012   */\n    tag_268:\n        /* \"#utility.yul\":4760:5018   */\n      pop\n        /* \"#utility.yul\":4711:5018   */\n      pop\n      pop\n      pop\n      jump\t// out\n        /* \"#utility.yul\":5024:5388   */\n    tag_197:\n        /* \"#utility.yul\":5112:5115   */\n      0x00\n        /* \"#utility.yul\":5140:5179   */\n      tag_270\n        /* \"#utility.yul\":5173:5178   */\n      dup3\n        /* \"#utility.yul\":5140:5179   */\n      tag_194\n      jump\t// in\n    tag_270:\n        /* \"#utility.yul\":5195:5266   */\n      tag_271\n        /* \"#utility.yul\":5259:5265   */\n      dup2\n        /* \"#utility.yul\":5254:5257   */\n      dup6\n        /* \"#utility.yul\":5195:5266   */\n      tag_195\n      jump\t// in\n    tag_271:\n        /* \"#utility.yul\":5188:5266   */\n      swap4\n      pop\n        /* \"#utility.yul\":5275:5327   */\n      tag_272\n        /* \"#utility.yul\":5320:5326   */\n      dup2\n        /* \"#utility.yul\":5315:5318   */\n      dup6\n        /* \"#utility.yul\":5308:5312   */\n      0x20\n        /* \"#utility.yul\":5301:5306   */\n      dup7\n        /* \"#utility.yul\":5297:5313   */\n      add\n        /* \"#utility.yul\":5275:5327   */\n      tag_196\n      jump\t// in\n    tag_272:\n        /* \"#utility.yul\":5352:5381   */\n      tag_273\n        /* \"#utility.yul\":5374:5380   */\n      dup2\n        /* \"#utility.yul\":5352:5381   */\n      tag_182\n      jump\t// in\n    tag_273:\n        /* \"#utility.yul\":5347:5350   */\n      dup5\n        /* \"#utility.yul\":5343:5382   */\n      add\n        /* \"#utility.yul\":5336:5382   */\n      swap2\n      pop\n        /* \"#utility.yul\":5116:5388   */\n      pop\n        /* \"#utility.yul\":5024:5388   */\n      swap3\n      swap2\n      pop\n      pop\n      jump\t// out\n        /* \"#utility.yul\":5394:5707   */\n    tag_40:\n        /* \"#utility.yul\":5507:5511   */\n      0x00\n        /* \"#utility.yul\":5545:5547   */\n      0x20\n        /* \"#utility.yul\":5534:5543   */\n      dup3\n        /* \"#utility.yul\":5530:5548   */\n      add\n        /* \"#utility.yul\":5522:5548   */\n      swap1\n      pop\n        /* \"#utility.yul\":5594:5603   */\n      dup2\n        /* \"#utility.yul\":5588:5592   */\n      dup2\n        /* \"#utility.yul\":5584:5604   */\n      sub\n        /* \"#utility.yul\":5580:5581   */\n      0x00\n        /* \"#utility.yul\":5569:5578   */\n      dup4\n        /* \"#utility.yul\":5565:5582   */\n      add\n        /* \"#utility.yul\":5558:5605   */\n      mstore\n        /* \"#utility.yul\":5622:5700   */\n      tag_275\n        /* \"#utility.yul\":5695:5699   */\n      dup2\n        /* \"#utility.yul\":5686:5692   */\n      dup5\n        /* \"#utility.yul\":5622:5700   */\n      tag_197\n      jump\t// in\n    tag_275:\n        /* \"#utility.yul\":5614:5700   */\n      swap1\n      pop\n        /* \"#utility.yul\":5394:5707   */\n      swap3\n      swap2\n      pop\n      pop\n      jump\t// out\n        /* \"#utility.yul\":5713:6187   */\n    tag_43:\n        /* \"#utility.yul\":5781:5787   */\n      0x00\n        /* \"#utility.yul\":5789:5795   */\n      dup1\n        /* \"#utility.yul\":5838:5840   */\n      0x40\n        /* \"#utility.yul\":5826:5835   */\n      dup4\n        /* \"#utility.yul\":5817:5824   */\n      dup6\n        /* \"#utility.yul\":5813:5836   */\n      sub\n        /* \"#utility.yul\":5809:5841   */\n      slt\n        /* \"#utility.yul\":5806:5925   */\n      iszero\n      tag_277\n      jumpi\n        /* \"#utility.yul\":5844:5923   */\n      tag_278\n      tag_178\n      jump\t// in\n    tag_278:\n        /* \"#utility.yul\":5806:5925   */\n    tag_277:\n        /* \"#utility.yul\":5964:5965   */\n      0x00\n        /* \"#utility.yul\":5989:6042   */\n      tag_279\n        /* \"#utility.yul\":6034:6041   */\n      dup6\n        /* \"#utility.yul\":6025:6031   */\n      dup3\n        /* \"#utility.yul\":6014:6023   */\n      dup7\n        /* \"#utility.yul\":6010:6032   */\n      add\n        /* \"#utility.yul\":5989:6042   */\n      tag_193\n      jump\t// in\n    tag_279:\n        /* \"#utility.yul\":5979:6042   */\n      swap3\n      pop\n        /* \"#utility.yul\":5935:6052   */\n      pop\n        /* \"#utility.yul\":6091:6093   */\n      0x20\n        /* \"#utility.yul\":6117:6170   */\n      tag_280\n        /* \"#utility.yul\":6162:6169   */\n      dup6\n        /* \"#utility.yul\":6153:6159   */\n      dup3\n        /* \"#utility.yul\":6142:6151   */\n      dup7\n        /* \"#utility.yul\":6138:6160   */\n      add\n        /* \"#utility.yul\":6117:6170   */\n      tag_193\n      jump\t// in\n    tag_280:\n        /* \"#utility.yul\":6107:6170   */\n      swap2\n      pop\n        /* \"#utility.yul\":6062:6180   */\n      pop\n        /* \"#utility.yul\":5713:6187   */\n      swap3\n      pop\n      swap3\n      swap1\n      pop\n      jump\t// out\n        /* \"#utility.yul\":6193:6352   */\n    tag_198:\n        /* \"#utility.yul\":6267:6278   */\n      0x00\n        /* \"#utility.yul\":6301:6307   */\n      dup3\n        /* \"#utility.yul\":6296:6299   */\n      dup3\n        /* \"#utility.yul\":6289:6308   */\n      mstore\n        /* \"#utility.yul\":6341:6345   */\n      0x20\n        /* \"#utility.yul\":6336:6339   */\n      dup3\n        /* \"#utility.yul\":6332:6346   */\n      add\n        /* \"#utility.yul\":6317:6346   */\n      swap1\n      pop\n        /* \"#utility.yul\":6193:6352   */\n      swap3\n      swap2\n      pop\n      pop\n      jump\t// out\n        /* \"#utility.yul\":6358:6702   */\n    tag_199:\n        /* \"#utility.yul\":6436:6439   */\n      0x00\n        /* \"#utility.yul\":6464:6503   */\n      tag_283\n        /* \"#utility.yul\":6497:6502   */\n      dup3\n        /* \"#utility.yul\":6464:6503   */\n      tag_194\n      jump\t// in\n    tag_283:\n        /* \"#utility.yul\":6519:6580   */\n      tag_284\n        /* \"#utility.yul\":6573:6579   */\n      dup2\n        /* \"#utility.yul\":6568:6571   */\n      dup6\n        /* \"#utility.yul\":6519:6580   */\n      tag_198\n      jump\t// in\n    tag_284:\n        /* \"#utility.yul\":6512:6580   */\n      swap4\n      pop\n        /* \"#utility.yul\":6589:6641   */\n      tag_285\n        /* \"#utility.yul\":6634:6640   */\n      dup2\n        /* \"#utility.yul\":6629:6632   */\n      dup6\n        /* \"#utility.yul\":6622:6626   */\n      0x20\n        /* \"#utility.yul\":6615:6620   */\n      dup7\n        /* \"#utility.yul\":6611:6627   */\n      add\n        /* \"#utility.yul\":6589:6641   */\n      tag_196\n      jump\t// in\n    tag_285:\n        /* \"#utility.yul\":6666:6695   */\n      tag_286\n        /* \"#utility.yul\":6688:6694   */\n      dup2\n        /* \"#utility.yul\":6666:6695   */\n      tag_182\n      jump\t// in\n    tag_286:\n        /* \"#utility.yul\":6661:6664   */\n      dup5\n        /* \"#utility.yul\":6657:6696   */\n      add\n        /* \"#utility.yul\":6650:6696   */\n      swap2\n      pop\n        /* \"#utility.yul\":6440:6702   */\n      pop\n        /* \"#utility.yul\":6358:6702   */\n      swap3\n      swap2\n      pop\n      pop\n      jump\t// out\n        /* \"#utility.yul\":6708:6816   */\n    tag_200:\n        /* \"#utility.yul\":6785:6809   */\n      tag_288\n        /* \"#utility.yul\":6803:6808   */\n      dup2\n        /* \"#utility.yul\":6785:6809   */\n      tag_190\n      jump\t// in\n    tag_288:\n        /* \"#utility.yul\":6780:6783   */\n      dup3\n        /* \"#utility.yul\":6773:6810   */\n      mstore\n        /* \"#utility.yul\":6708:6816   */\n      pop\n      pop\n      jump\t// out\n        /* \"#utility.yul\":6908:7519   */\n    tag_201:\n        /* \"#utility.yul\":7023:7026   */\n      0x00\n        /* \"#utility.yul\":7059:7063   */\n      0x40\n        /* \"#utility.yul\":7054:7057   */\n      dup4\n        /* \"#utility.yul\":7050:7064   */\n      add\n        /* \"#utility.yul\":7152:7156   */\n      0x00\n        /* \"#utility.yul\":7145:7150   */\n      dup4\n        /* \"#utility.yul\":7141:7157   */\n      add\n        /* \"#utility.yul\":7135:7158   */\n      mload\n        /* \"#utility.yul\":7205:7208   */\n      dup5\n        /* \"#utility.yul\":7199:7203   */\n      dup3\n        /* \"#utility.yul\":7195:7209   */\n      sub\n        /* \"#utility.yul\":7188:7192   */\n      0x00\n        /* \"#utility.yul\":7183:7186   */\n      dup7\n        /* \"#utility.yul\":7179:7193   */\n      add\n        /* \"#utility.yul\":7172:7210   */\n      mstore\n        /* \"#utility.yul\":7231:7304   */\n      tag_290\n        /* \"#utility.yul\":7299:7303   */\n      dup3\n        /* \"#utility.yul\":7285:7297   */\n      dup3\n        /* \"#utility.yul\":7231:7304   */\n      tag_199\n      jump\t// in\n    tag_290:\n        /* \"#utility.yul\":7223:7304   */\n      swap2\n      pop\n        /* \"#utility.yul\":7074:7315   */\n      pop\n        /* \"#utility.yul\":7400:7404   */\n      0x20\n        /* \"#utility.yul\":7393:7398   */\n      dup4\n        /* \"#utility.yul\":7389:7405   */\n      add\n        /* \"#utility.yul\":7383:7406   */\n      mload\n        /* \"#utility.yul\":7419:7482   */\n      tag_291\n        /* \"#utility.yul\":7476:7480   */\n      0x20\n        /* \"#utility.yul\":7471:7474   */\n      dup7\n        /* \"#utility.yul\":7467:7481   */\n      add\n        /* \"#utility.yul\":7453:7465   */\n      dup3\n        /* \"#utility.yul\":7419:7482   */\n      tag_200\n      jump\t// in\n    tag_291:\n        /* \"#utility.yul\":7325:7492   */\n      pop\n        /* \"#utility.yul\":7509:7513   */\n      dup1\n        /* \"#utility.yul\":7502:7513   */\n      swap2\n      pop\n        /* \"#utility.yul\":7028:7519   */\n      pop\n        /* \"#utility.yul\":6908:7519   */\n      swap3\n      swap2\n      pop\n      pop\n      jump\t// out\n        /* \"#utility.yul\":7525:7890   */\n    tag_46:\n        /* \"#utility.yul\":7664:7668   */\n      0x00\n        /* \"#utility.yul\":7702:7704   */\n      0x20\n        /* \"#utility.yul\":7691:7700   */\n      dup3\n        /* \"#utility.yul\":7687:7705   */\n      add\n        /* \"#utility.yul\":7679:7705   */\n      swap1\n      pop\n        /* \"#utility.yul\":7751:7760   */\n      dup2\n        /* \"#utility.yul\":7745:7749   */\n      dup2\n        /* \"#utility.yul\":7741:7761   */\n      sub\n        /* \"#utility.yul\":7737:7738   */\n      0x00\n        /* \"#utility.yul\":7726:7735   */\n      dup4\n        /* \"#utility.yul\":7722:7739   */\n      add\n        /* \"#utility.yul\":7715:7762   */\n      mstore\n        /* \"#utility.yul\":7779:7883   */\n      tag_293\n        /* \"#utility.yul\":7878:7882   */\n      dup2\n        /* \"#utility.yul\":7869:7875   */\n      dup5\n        /* \"#utility.yul\":7779:7883   */\n      tag_201\n      jump\t// in\n    tag_293:\n        /* \"#utility.yul\":7771:7883   */\n      swap1\n      pop\n        /* \"#utility.yul\":7525:7890   */\n      swap3\n      swap2\n      pop\n      pop\n      jump\t// out\n        /* \"#utility.yul\":7896:8515   */\n    tag_49:\n        /* \"#utility.yul\":7973:7979   */\n      0x00\n        /* \"#utility.yul\":7981:7987   */\n      dup1\n        /* \"#utility.yul\":7989:7995   */\n      0x00\n        /* \"#utility.yul\":8038:8040   */\n      0x60\n        /* \"#utility.yul\":8026:8035   */\n      dup5\n        /* \"#utility.yul\":8017:8024   */\n      dup7\n        /* \"#utility.yul\":8013:8036   */\n      sub\n        /* \"#utility.yul\":8009:8041   */\n      slt\n        /* \"#utility.yul\":8006:8125   */\n      iszero\n      tag_295\n      jumpi\n        /* \"#utility.yul\":8044:8123   */\n      tag_296\n      tag_178\n      jump\t// in\n    tag_296:\n        /* \"#utility.yul\":8006:8125   */\n    tag_295:\n        /* \"#utility.yul\":8164:8165   */\n      0x00\n        /* \"#utility.yul\":8189:8242   */\n      tag_297\n        /* \"#utility.yul\":8234:8241   */\n      dup7\n        /* \"#utility.yul\":8225:8231   */\n      dup3\n        /* \"#utility.yul\":8214:8223   */\n      dup8\n        /* \"#utility.yul\":8210:8232   */\n      add\n        /* \"#utility.yul\":8189:8242   */\n      tag_193\n      jump\t// in\n    tag_297:\n        /* \"#utility.yul\":8179:8242   */\n      swap4\n      pop\n        /* \"#utility.yul\":8135:8252   */\n      pop\n        /* \"#utility.yul\":8291:8293   */\n      0x20\n        /* \"#utility.yul\":8317:8370   */\n      tag_298\n        /* \"#utility.yul\":8362:8369   */\n      dup7\n        /* \"#utility.yul\":8353:8359   */\n      dup3\n        /* \"#utility.yul\":8342:8351   */\n      dup8\n        /* \"#utility.yul\":8338:8360   */\n      add\n        /* \"#utility.yul\":8317:8370   */\n      tag_193\n      jump\t// in\n    tag_298:\n        /* \"#utility.yul\":8307:8370   */\n      swap3\n      pop\n        /* \"#utility.yul\":8262:8380   */\n      pop\n        /* \"#utility.yul\":8419:8421   */\n      0x40\n        /* \"#utility.yul\":8445:8498   */\n      tag_299\n        /* \"#utility.yul\":8490:8497   */\n      dup7\n        /* \"#utility.yul\":8481:8487   */\n      dup3\n        /* \"#utility.yul\":8470:8479   */\n      dup8\n        /* \"#utility.yul\":8466:8488   */\n      add\n        /* \"#utility.yul\":8445:8498   */\n      tag_193\n      jump\t// in\n    tag_299:\n        /* \"#utility.yul\":8435:8498   */\n      swap2\n      pop\n        /* \"#utility.yul\":8390:8508   */\n      pop\n        /* \"#utility.yul\":7896:8515   */\n      swap3\n      pop\n      swap3\n      pop\n      swap3\n      jump\t// out\n        /* \"#utility.yul\":8521:8611   */\n    tag_202:\n        /* \"#utility.yul\":8555:8562   */\n      0x00\n        /* \"#utility.yul\":8598:8603   */\n      dup2\n        /* \"#utility.yul\":8591:8604   */\n      iszero\n        /* \"#utility.yul\":8584:8605   */\n      iszero\n        /* \"#utility.yul\":8573:8605   */\n      swap1\n      pop\n        /* \"#utility.yul\":8521:8611   */\n      swap2\n      swap1\n      pop\n      jump\t// out\n        /* \"#utility.yul\":8617:8726   */\n    tag_203:\n        /* \"#utility.yul\":8698:8719   */\n      tag_302\n        /* \"#utility.yul\":8713:8718   */\n      dup2\n        /* \"#utility.yul\":8698:8719   */\n      tag_202\n      jump\t// in\n    tag_302:\n        /* \"#utility.yul\":8693:8696   */\n      dup3\n        /* \"#utility.yul\":8686:8720   */\n      mstore\n        /* \"#utility.yul\":8617:8726   */\n      pop\n      pop\n      jump\t// out\n        /* \"#utility.yul\":8732:8942   */\n    tag_52:\n        /* \"#utility.yul\":8819:8823   */\n      0x00\n        /* \"#utility.yul\":8857:8859   */\n      0x20\n        /* \"#utility.yul\":8846:8855   */\n      dup3\n        /* \"#utility.yul\":8842:8860   */\n      add\n        /* \"#utility.yul\":8834:8860   */\n      swap1\n      pop\n        /* \"#utility.yul\":8870:8935   */\n      tag_304\n        /* \"#utility.yul\":8932:8933   */\n      0x00\n        /* \"#utility.yul\":8921:8930   */\n      dup4\n        /* \"#utility.yul\":8917:8934   */\n      add\n        /* \"#utility.yul\":8908:8914   */\n      dup5\n        /* \"#utility.yul\":8870:8935   */\n      tag_203\n      jump\t// in\n    tag_304:\n        /* \"#utility.yul\":8732:8942   */\n      swap3\n      swap2\n      pop\n      pop\n      jump\t// out\n        /* \"#utility.yul\":8948:9074   */\n    tag_204:\n        /* \"#utility.yul\":8985:8992   */\n      0x00\n        /* \"#utility.yul\":9025:9067   */\n      0xffffffffffffffffffffffffffffffffffffffff\n        /* \"#utility.yul\":9018:9023   */\n      dup3\n        /* \"#utility.yul\":9014:9068   */\n      and\n        /* \"#utility.yul\":9003:9068   */\n      swap1\n      pop\n        /* \"#utility.yul\":8948:9074   */\n      swap2\n      swap1\n      pop\n      jump\t// out\n        /* \"#utility.yul\":9080:9176   */\n    tag_205:\n        /* \"#utility.yul\":9117:9124   */\n      0x00\n        /* \"#utility.yul\":9146:9170   */\n      tag_307\n        /* \"#utility.yul\":9164:9169   */\n      dup3\n        /* \"#utility.yul\":9146:9170   */\n      tag_204\n      jump\t// in\n    tag_307:\n        /* \"#utility.yul\":9135:9170   */\n      swap1\n      pop\n        /* \"#utility.yul\":9080:9176   */\n      swap2\n      swap1\n      pop\n      jump\t// out\n        /* \"#utility.yul\":9182:9300   */\n    tag_206:\n        /* \"#utility.yul\":9269:9293   */\n      tag_309\n        /* \"#utility.yul\":9287:9292   */\n      dup2\n        /* \"#utility.yul\":9269:9293   */\n      tag_205\n      jump\t// in\n    tag_309:\n        /* \"#utility.yul\":9264:9267   */\n      dup3\n        /* \"#utility.yul\":9257:9294   */\n      mstore\n        /* \"#utility.yul\":9182:9300   */\n      pop\n      pop\n      jump\t// out\n        /* \"#utility.yul\":9306:9528   */\n    tag_56:\n        /* \"#utility.yul\":9399:9403   */\n      0x00\n        /* \"#utility.yul\":9437:9439   */\n      0x20\n        /* \"#utility.yul\":9426:9435   */\n      dup3\n        /* \"#utility.yul\":9422:9440   */\n      add\n        /* \"#utility.yul\":9414:9440   */\n      swap1\n      pop\n        /* \"#utility.yul\":9450:9521   */\n      tag_311\n        /* \"#utility.yul\":9518:9519   */\n      0x00\n        /* \"#utility.yul\":9507:9516   */\n      dup4\n        /* \"#utility.yul\":9503:9520   */\n      add\n        /* \"#utility.yul\":9494:9500   */\n      dup5\n        /* \"#utility.yul\":9450:9521   */\n      tag_206\n      jump\t// in\n    tag_311:\n        /* \"#utility.yul\":9306:9528   */\n      swap3\n      swap2\n      pop\n      pop\n      jump\t// out\n        /* \"#utility.yul\":9534:10333   */\n    tag_74:\n        /* \"#utility.yul\":9621:9627   */\n      0x00\n        /* \"#utility.yul\":9629:9635   */\n      dup1\n        /* \"#utility.yul\":9637:9643   */\n      0x00\n        /* \"#utility.yul\":9686:9688   */\n      0x60\n        /* \"#utility.yul\":9674:9683   */\n      dup5\n        /* \"#utility.yul\":9665:9672   */\n      dup7\n        /* \"#utility.yul\":9661:9684   */\n      sub\n        /* \"#utility.yul\":9657:9689   */\n      slt\n        /* \"#utility.yul\":9654:9773   */\n      iszero\n      tag_313\n      jumpi\n        /* \"#utility.yul\":9692:9771   */\n      tag_314\n      tag_178\n      jump\t// in\n    tag_314:\n        /* \"#utility.yul\":9654:9773   */\n    tag_313:\n        /* \"#utility.yul\":9812:9813   */\n      0x00\n        /* \"#utility.yul\":9837:9890   */\n      tag_315\n        /* \"#utility.yul\":9882:9889   */\n      dup7\n        /* \"#utility.yul\":9873:9879   */\n      dup3\n        /* \"#utility.yul\":9862:9871   */\n      dup8\n        /* \"#utility.yul\":9858:9880   */\n      add\n        /* \"#utility.yul\":9837:9890   */\n      tag_193\n      jump\t// in\n    tag_315:\n        /* \"#utility.yul\":9827:9890   */\n      swap4\n      pop\n        /* \"#utility.yul\":9783:9900   */\n      pop\n        /* \"#utility.yul\":9967:9969   */\n      0x20\n        /* \"#utility.yul\":9956:9965   */\n      dup5\n        /* \"#utility.yul\":9952:9970   */\n      add\n        /* \"#utility.yul\":9939:9971   */\n      calldataload\n        /* \"#utility.yul\":9998:10016   */\n      0xffffffffffffffff\n        /* \"#utility.yul\":9990:9996   */\n      dup2\n        /* \"#utility.yul\":9987:10017   */\n      gt\n        /* \"#utility.yul\":9984:10101   */\n      iszero\n      tag_316\n      jumpi\n        /* \"#utility.yul\":10020:10099   */\n      tag_317\n      tag_179\n      jump\t// in\n    tag_317:\n        /* \"#utility.yul\":9984:10101   */\n    tag_316:\n        /* \"#utility.yul\":10125:10188   */\n      tag_318\n        /* \"#utility.yul\":10180:10187   */\n      dup7\n        /* \"#utility.yul\":10171:10177   */\n      dup3\n        /* \"#utility.yul\":10160:10169   */\n      dup8\n        /* \"#utility.yul\":10156:10178   */\n      add\n        /* \"#utility.yul\":10125:10188   */\n      tag_189\n      jump\t// in\n    tag_318:\n        /* \"#utility.yul\":10115:10188   */\n      swap3\n      pop\n        /* \"#utility.yul\":9910:10198   */\n      pop\n        /* \"#utility.yul\":10237:10239   */\n      0x40\n        /* \"#utility.yul\":10263:10316   */\n      tag_319\n        /* \"#utility.yul\":10308:10315   */\n      dup7\n        /* \"#utility.yul\":10299:10305   */\n      dup3\n        /* \"#utility.yul\":10288:10297   */\n      dup8\n        /* \"#utility.yul\":10284:10306   */\n      add\n        /* \"#utility.yul\":10263:10316   */\n      tag_193\n      jump\t// in\n    tag_319:\n        /* \"#utility.yul\":10253:10316   */\n      swap2\n      pop\n        /* \"#utility.yul\":10208:10326   */\n      pop\n        /* \"#utility.yul\":9534:10333   */\n      swap3\n      pop\n      swap3\n      pop\n      swap3\n      jump\t// out\n        /* \"#utility.yul\":10339:10880   */\n    tag_90:\n        /* \"#utility.yul\":10510:10514   */\n      0x00\n        /* \"#utility.yul\":10548:10551   */\n      0x80\n        /* \"#utility.yul\":10537:10546   */\n      dup3\n        /* \"#utility.yul\":10533:10552   */\n      add\n        /* \"#utility.yul\":10525:10552   */\n      swap1\n      pop\n        /* \"#utility.yul\":10562:10633   */\n      tag_321\n        /* \"#utility.yul\":10630:10631   */\n      0x00\n        /* \"#utility.yul\":10619:10628   */\n      dup4\n        /* \"#utility.yul\":10615:10632   */\n      add\n        /* \"#utility.yul\":10606:10612   */\n      dup8\n        /* \"#utility.yul\":10562:10633   */\n      tag_191\n      jump\t// in\n    tag_321:\n        /* \"#utility.yul\":10643:10715   */\n      tag_322\n        /* \"#utility.yul\":10711:10713   */\n      0x20\n        /* \"#utility.yul\":10700:10709   */\n      dup4\n        /* \"#utility.yul\":10696:10714   */\n      add\n        /* \"#utility.yul\":10687:10693   */\n      dup7\n        /* \"#utility.yul\":10643:10715   */\n      tag_191\n      jump\t// in\n    tag_322:\n        /* \"#utility.yul\":10725:10797   */\n      tag_323\n        /* \"#utility.yul\":10793:10795   */\n      0x40\n        /* \"#utility.yul\":10782:10791   */\n      dup4\n        /* \"#utility.yul\":10778:10796   */\n      add\n        /* \"#utility.yul\":10769:10775   */\n      dup6\n        /* \"#utility.yul\":10725:10797   */\n      tag_191\n      jump\t// in\n    tag_323:\n        /* \"#utility.yul\":10807:10873   */\n      tag_324\n        /* \"#utility.yul\":10869:10871   */\n      0x60\n        /* \"#utility.yul\":10858:10867   */\n      dup4\n        /* \"#utility.yul\":10854:10872   */\n      add\n        /* \"#utility.yul\":10845:10851   */\n      dup5\n        /* \"#utility.yul\":10807:10873   */\n      tag_203\n      jump\t// in\n    tag_324:\n        /* \"#utility.yul\":10339:10880   */\n      swap6\n      swap5\n      pop\n      pop\n      pop\n      pop\n      pop\n      jump\t// out\n        /* \"#utility.yul\":10886:11066   */\n    tag_207:\n        /* \"#utility.yul\":10934:11011   */\n      0x4e487b7100000000000000000000000000000000000000000000000000000000\n        /* \"#utility.yul\":10931:10932   */\n      0x00\n        /* \"#utility.yul\":10924:11012   */\n      mstore\n        /* \"#utility.yul\":11031:11035   */\n      0x11\n        /* \"#utility.yul\":11028:11029   */\n      0x04\n        /* \"#utility.yul\":11021:11036   */\n      mstore\n        /* \"#utility.yul\":11055:11059   */\n      0x24\n        /* \"#utility.yul\":11052:11053   */\n      0x00\n        /* \"#utility.yul\":11045:11060   */\n      revert\n        /* \"#utility.yul\":11072:11305   */\n    tag_95:\n        /* \"#utility.yul\":11111:11114   */\n      0x00\n        /* \"#utility.yul\":11134:11158   */\n      tag_327\n        /* \"#utility.yul\":11152:11157   */\n      dup3\n        /* \"#utility.yul\":11134:11158   */\n      tag_190\n      jump\t// in\n    tag_327:\n        /* \"#utility.yul\":11125:11158   */\n      swap2\n      pop\n        /* \"#utility.yul\":11180:11246   */\n      0xffffffffffffffffffffffffffffffffffffffffffffffffffffffffffffffff\n        /* \"#utility.yul\":11173:11178   */\n      dup3\n        /* \"#utility.yul\":11170:11247   */\n      eq\n        /* \"#utility.yul\":11167:11270   */\n      iszero\n      tag_328\n      jumpi\n        /* \"#utility.yul\":11250:11268   */\n      tag_329\n      tag_207\n      jump\t// in\n    tag_329:\n        /* \"#utility.yul\":11167:11270   */\n    tag_328:\n        /* \"#utility.yul\":11297:11298   */\n      0x01\n        /* \"#utility.yul\":11290:11295   */\n      dup3\n        /* \"#utility.yul\":11286:11299   */\n      add\n        /* \"#utility.yul\":11279:11299   */\n      swap1\n      pop\n        /* \"#utility.yul\":11072:11305   */\n      swap2\n      swap1\n      pop\n      jump\t// out\n        /* \"#utility.yul\":11311:11491   */\n    tag_208:\n        /* \"#utility.yul\":11359:11436   */\n      0x4e487b7100000000000000000000000000000000000000000000000000000000\n        /* \"#utility.yul\":11356:11357   */\n      0x00\n        /* \"#utility.yul\":11349:11437   */\n      mstore\n        /* \"#utility.yul\":11456:11460   */\n      0x22\n        /* \"#utility.yul\":11453:11454   */\n      0x04\n        /* \"#utility.yul\":11446:11461   */\n      mstore\n        /* \"#utility.yul\":11480:11484   */\n      0x24\n        /* \"#utility.yul\":11477:11478   */\n      0x00\n        /* \"#utility.yul\":11470:11485   */\n      revert\n        /* \"#utility.yul\":11497:11817   */\n    tag_115:\n        /* \"#utility.yul\":11541:11547   */\n      0x00\n        /* \"#utility.yul\":11578:11579   */\n      0x02\n        /* \"#utility.yul\":11572:11576   */\n      dup3\n        /* \"#utility.yul\":11568:11580   */\n      div\n        /* \"#utility.yul\":11558:11580   */\n      swap1\n      pop\n        /* \"#utility.yul\":11625:11626   */\n      0x01\n        /* \"#utility.yul\":11619:11623   */\n      dup3\n        /* \"#utility.yul\":11615:11627   */\n      and\n        /* \"#utility.yul\":11646:11664   */\n      dup1\n        /* \"#utility.yul\":11636:11717   */\n      tag_332\n      jumpi\n        /* \"#utility.yul\":11702:11706   */\n      0x7f\n        /* \"#utility.yul\":11694:11700   */\n      dup3\n        /* \"#utility.yul\":11690:11707   */\n      and\n        /* \"#utility.yul\":11680:11707   */\n      swap2\n      pop\n        /* \"#utility.yul\":11636:11717   */\n    tag_332:\n        /* \"#utility.yul\":11764:11766   */\n      0x20\n        /* \"#utility.yul\":11756:11762   */\n      dup3\n        /* \"#utility.yul\":11753:11767   */\n      lt\n        /* \"#utility.yul\":11733:11751   */\n      dup2\n        /* \"#utility.yul\":11730:11768   */\n      eq\n        /* \"#utility.yul\":11727:11811   */\n      iszero\n      tag_333\n      jumpi\n        /* \"#utility.yul\":11783:11801   */\n      tag_334\n      tag_208\n      jump\t// in\n    tag_334:\n        /* \"#utility.yul\":11727:11811   */\n    tag_333:\n        /* \"#utility.yul\":11548:11817   */\n      pop\n        /* \"#utility.yul\":11497:11817   */\n      swap2\n      swap1\n      pop\n      jump\t// out\n        /* \"#utility.yul\":11823:12128   */\n    tag_132:\n        /* \"#utility.yul\":11863:11866   */\n      0x00\n        /* \"#utility.yul\":11882:11902   */\n      tag_336\n        /* \"#utility.yul\":11900:11901   */\n      dup3\n        /* \"#utility.yul\":11882:11902   */\n      tag_190\n      jump\t// in\n    tag_336:\n        /* \"#utility.yul\":11877:11902   */\n      swap2\n      pop\n        /* \"#utility.yul\":11916:11936   */\n      tag_337\n        /* \"#utility.yul\":11934:11935   */\n      dup4\n        /* \"#utility.yul\":11916:11936   */\n      tag_190\n      jump\t// in\n    tag_337:\n        /* \"#utility.yul\":11911:11936   */\n      swap3\n      pop\n        /* \"#utility.yul\":12070:12071   */\n      dup3\n        /* \"#utility.yul\":12002:12068   */\n      0xffffffffffffffffffffffffffffffffffffffffffffffffffffffffffffffff\n        /* \"#utility.yul\":11998:12072   */\n      sub\n        /* \"#utility.yul\":11995:11996   */\n      dup3\n        /* \"#utility.yul\":11992:12073   */\n      gt\n        /* \"#utility.yul\":11989:12096   */\n      iszero\n      tag_338\n      jumpi\n        /* \"#utility.yul\":12076:12094   */\n      tag_339\n      tag_207\n      jump\t// in\n    tag_339:\n        /* \"#utility.yul\":11989:12096   */\n    tag_338:\n        /* \"#utility.yul\":12120:12121   */\n      dup3\n        /* \"#utility.yul\":12117:12118   */\n      dup3\n        /* \"#utility.yul\":12113:12122   */\n      add\n        /* \"#utility.yul\":12106:12122   */\n      swap1\n      pop\n        /* \"#utility.yul\":11823:12128   */\n      swap3\n      swap2\n      pop\n      pop\n      jump\t// out\n        /* \"#utility.yul\":12134:12305   */\n    tag_136:\n        /* \"#utility.yul\":12173:12176   */\n      0x00\n        /* \"#utility.yul\":12196:12220   */\n      tag_341\n        /* \"#utility.yul\":12214:12219   */\n      dup3\n        /* \"#utility.yul\":12196:12220   */\n      tag_190\n      jump\t// in\n    tag_341:\n        /* \"#utility.yul\":12187:12220   */\n      swap2\n      pop\n        /* \"#utility.yul\":12242:12246   */\n      0x00\n        /* \"#utility.yul\":12235:12240   */\n      dup3\n        /* \"#utility.yul\":12232:12247   */\n      eq\n        /* \"#utility.yul\":12229:12270   */\n      iszero\n      tag_342\n      jumpi\n        /* \"#utility.yul\":12250:12268   */\n      tag_343\n      tag_207\n      jump\t// in\n    tag_343:\n        /* \"#utility.yul\":12229:12270   */\n    tag_342:\n        /* \"#utility.yul\":12297:12298   */\n      0x01\n        /* \"#utility.yul\":12290:12295   */\n      dup3\n        /* \"#utility.yul\":12286:12299   */\n      sub\n        /* \"#utility.yul\":12279:12299   */\n      swap1\n      pop\n        /* \"#utility.yul\":12134:12305   */\n      swap2\n      swap1\n      pop\n      jump\t// out\n\n    auxdata: 0xa26469706673582212201abb414b40878bce60c2f55037b661646498dfd3d8d4173203ddf68f62ed302b64736f6c634300080b0033\n}\n","bytecode":{"linkReferences":{},"object":"60806040523480156200001157600080fd5b506040516200186c3803806200186c83398181016040528101906200003791906200037d565b816000806101000a81548173ffffffffffffffffffffffffffffffffffffffff021916908373ffffffffffffffffffffffffffffffffffffffff16021790555080600190805190602001906200008f929190620000cb565b506001600260006101000a81548160ff021916908315150217905550600060038190555060006005819055506000600781905550505062000448565b828054620000d99062000412565b90600052602060002090601f016020900481019282620000fd576000855562000149565b82601f106200011857805160ff191683800117855562000149565b8280016001018555821562000149579182015b82811115620001485782518255916020019190600101906200012b565b5b5090506200015891906200015c565b5090565b5b80821115620001775760008160009055506001016200015d565b5090565b6000604051905090565b600080fd5b600080fd5b600073ffffffffffffffffffffffffffffffffffffffff82169050919050565b6000620001bc826200018f565b9050919050565b620001ce81620001af565b8114620001da57600080fd5b50565b600081519050620001ee81620001c3565b92915050565b600080fd5b600080fd5b6000601f19601f8301169050919050565b7f4e487b7100000000000000000000000000000000000000000000000000000000600052604160045260246000fd5b6200024982620001fe565b810181811067ffffffffffffffff821117156200026b576200026a6200020f565b5b80604052505050565b6000620002806200017b565b90506200028e82826200023e565b919050565b600067ffffffffffffffff821115620002b157620002b06200020f565b5b620002bc82620001fe565b9050602081019050919050565b60005b83811015620002e9578082015181840152602081019050620002cc565b83811115620002f9576000848401525b50505050565b600062000316620003108462000293565b62000274565b905082815260208101848484011115620003355762000334620001f9565b5b62000342848285620002c9565b509392505050565b600082601f830112620003625762000361620001f4565b5b815162000374848260208601620002ff565b91505092915050565b6000806040838503121562000397576200039662000185565b5b6000620003a785828601620001dd565b925050602083015167ffffffffffffffff811115620003cb57620003ca6200018a565b5b620003d9858286016200034a565b9150509250929050565b7f4e487b7100000000000000000000000000000000000000000000000000000000600052602260045260246000fd5b600060028204905060018216806200042b57607f821691505b60208210811415620004425762000441620003e3565b5b50919050565b61141480620004586000396000f3fe608060405234801561001057600080fd5b506004361061010b5760003560e01c806355586f9e116100a25780639e4529c9116100715780639e4529c9146102bc578063a5d47a56146102ec578063b67789761461030a578063def7134e1461033a578063fbbf93a0146103585761010b565b806355586f9e14610246578063610be65414610264578063673d30871461026e578063757c3aab1461028c5761010b565b806330e526dd116100de57806330e526dd146101aa5780633e2032ab146101da578063481c6a751461020a57806354fd4d50146102285761010b565b80630540bccd146101105780630cf9a07d1461014057806317fed492146101705780631ba3c1b61461017a575b600080fd5b61012a60048036038101906101259190610e45565b610379565b6040516101379190610ed6565b60405180910390f35b61015a60048036038101906101559190610e45565b610449565b6040516101679190610ed6565b60405180910390f35b610178610526565b005b610194600480360381019061018f9190610f1d565b6105b1565b6040516101a19190610fd2565b60405180910390f35b6101c460048036038101906101bf9190610ff4565b61065f565b6040516101d191906110ca565b60405180910390f35b6101f460048036038101906101ef91906110ec565b610749565b604051610201919061115a565b60405180910390f35b610212610833565b60405161021f91906111b6565b60405180910390f35b610230610857565b60405161023d9190610fd2565b60405180910390f35b61024e6108e5565b60405161025b9190610ed6565b60405180910390f35b61026c6108eb565b005b610276610960565b6040516102839190610ed6565b60405180910390f35b6102a660048036038101906102a19190610ff4565b610966565b6040516102b391906110ca565b60405180910390f35b6102d660048036038101906102d191906111d1565b610a50565b6040516102e39190610ed6565b60405180910390f35b6102f4610b3a565b604051610301919061115a565b60405180910390f35b610324600480360381019061031f9190610f1d565b610b4d565b6040516103319190610fd2565b60405180910390f35b610342610bfb565b60405161034f9190610ed6565b60405180910390f35b610360610c01565b6040516103709493929190611240565b60405180910390f35b6000600260009054906101000a900460ff1661039457600080fd5b600560008154809291906103a7906112b4565b9190505590506000600660008381526020019081526020016000209050338160000160006101000a81548173ffffffffffffffffffffffffffffffffffffffff021916908373ffffffffffffffffffffffffffffffffffffffff16021790555081816001018190555083816002019080519060200190610428929190610c2e565b5082816003019080519060200190610441929190610c2e565b505092915050565b60008060009054906101000a900473ffffffffffffffffffffffffffffffffffffffff1673ffffffffffffffffffffffffffffffffffffffff163373ffffffffffffffffffffffffffffffffffffffff16146104a457600080fd5b600260009054906101000a900460ff166104bd57600080fd5b600360008154809291906104d0906112b4565b919050559050600060046000838152602001908152602001600020905083816000019080519060200190610505929190610c2e565b508281600101908051906020019061051e929190610c2e565b505092915050565b60008054906101000a900473ffffffffffffffffffffffffffffffffffffffff1673ffffffffffffffffffffffffffffffffffffffff163373ffffffffffffffffffffffffffffffffffffffff161461057e57600080fd5b600260009054906101000a900460ff1661059757600080fd5b600760008154809291906105aa906112b4565b9190505550565b606060006004600084815260200190815260200160002060010180546105d69061132c565b80601f01602080910402602001604051908101604052809291908181526020018280546106029061132c565b801561064f5780601f106106245761010080835404028352916020019161064f565b820191906000526020600020905b81548152906001019060200180831161063257829003601f168201915b5050505050905080915050919050565b610667610cb4565b600060046000858152602001908152602001600020905060008160030160008581526020019081526020016000206040518060400160405290816000820180546106b09061132c565b80601f01602080910402602001604051908101604052809291908181526020018280546106dc9061132c565b80156107295780601f106106fe57610100808354040283529160200191610729565b820191906000526020600020905b81548152906001019060200180831161070c57829003601f168201915b505050505081526020016001820154815250509050809250505092915050565b6000600260009054906101000a900460ff1661076457600080fd5b6001600754610773919061135e565b82111561077f57600080fd5b60008060046000878152602001908152602001600020905060008160030160008781526020019081526020016000209050600060066000878152602001908152602001600020905060008260010154111561082557868160040160008a815260200190815260200160002081905550816001016000815480929190610803906113b4565b91905055506007600081548092919061081b906112b4565b9190505550600193505b839450505050509392505050565b60008054906101000a900473ffffffffffffffffffffffffffffffffffffffff1681565b600180546108649061132c565b80601f01602080910402602001604051908101604052809291908181526020018280546108909061132c565b80156108dd5780601f106108b2576101008083540402835291602001916108dd565b820191906000526020600020905b8154815290600101906020018083116108c057829003601f168201915b505050505081565b60035481565b60008054906101000a900473ffffffffffffffffffffffffffffffffffffffff1673ffffffffffffffffffffffffffffffffffffffff163373ffffffffffffffffffffffffffffffffffffffff161461094357600080fd5b6000600260006101000a81548160ff021916908315150217905550565b60075481565b61096e610cb4565b600060046000858152602001908152602001600020905060008160030160008581526020019081526020016000206040518060400160405290816000820180546109b79061132c565b80601f01602080910402602001604051908101604052809291908181526020018280546109e39061132c565b8015610a305780601f10610a0557610100808354040283529160200191610a30565b820191906000526020600020905b815481529060010190602001808311610a1357829003601f168201915b505050505081526020016001820154815250509050809250505092915050565b60008060009054906101000a900473ffffffffffffffffffffffffffffffffffffffff1673ffffffffffffffffffffffffffffffffffffffff163373ffffffffffffffffffffffffffffffffffffffff1614610aab57600080fd5b600260009054906101000a900460ff16610ac457600080fd5b6000600460008681526020019081526020016000209050806002016000815480929190610af0906112b4565b9190505591506000816003016000848152602001908152602001600020905084816000019080519060200190610b27929190610c2e565b5083816001018190555050509392505050565b600260009054906101000a900460ff1681565b60606000600660008481526020019081526020016000206002018054610b729061132c565b80601f0160208091040260200160405190810160405280929190818152602001828054610b9e9061132c565b8015610beb5780601f10610bc057610100808354040283529160200191610beb565b820191906000526020600020905b815481529060010190602001808311610bce57829003601f168201915b5050505050905080915050919050565b60055481565b600080600080600354600554600754600260009054906101000a900460ff16935093509350935090919293565b828054610c3a9061132c565b90600052602060002090601f016020900481019282610c5c5760008555610ca3565b82601f10610c7557805160ff1916838001178555610ca3565b82800160010185558215610ca3579182015b82811115610ca2578251825591602001919060010190610c87565b5b509050610cb09190610cce565b5090565b604051806040016040528060608152602001600081525090565b5b80821115610ce7576000816000905550600101610ccf565b5090565b6000604051905090565b600080fd5b600080fd5b600080fd5b600080fd5b6000601f19601f8301169050919050565b7f4e487b7100000000000000000000000000000000000000000000000000000000600052604160045260246000fd5b610d5282610d09565b810181811067ffffffffffffffff82111715610d7157610d70610d1a565b5b80604052505050565b6000610d84610ceb565b9050610d908282610d49565b919050565b600067ffffffffffffffff821115610db057610daf610d1a565b5b610db982610d09565b9050602081019050919050565b82818337600083830152505050565b6000610de8610de384610d95565b610d7a565b905082815260208101848484011115610e0457610e03610d04565b5b610e0f848285610dc6565b509392505050565b600082601f830112610e2c57610e2b610cff565b5b8135610e3c848260208601610dd5565b91505092915050565b60008060408385031215610e5c57610e5b610cf5565b5b600083013567ffffffffffffffff811115610e7a57610e79610cfa565b5b610e8685828601610e17565b925050602083013567ffffffffffffffff811115610ea757610ea6610cfa565b5b610eb385828601610e17565b9150509250929050565b6000819050919050565b610ed081610ebd565b82525050565b6000602082019050610eeb6000830184610ec7565b92915050565b610efa81610ebd565b8114610f0557600080fd5b50565b600081359050610f1781610ef1565b92915050565b600060208284031215610f3357610f32610cf5565b5b6000610f4184828501610f08565b91505092915050565b600081519050919050565b600082825260208201905092915050565b60005b83811015610f84578082015181840152602081019050610f69565b83811115610f93576000848401525b50505050565b6000610fa482610f4a565b610fae8185610f55565b9350610fbe818560208601610f66565b610fc781610d09565b840191505092915050565b60006020820190508181036000830152610fec8184610f99565b905092915050565b6000806040838503121561100b5761100a610cf5565b5b600061101985828601610f08565b925050602061102a85828601610f08565b9150509250929050565b600082825260208201905092915050565b600061105082610f4a565b61105a8185611034565b935061106a818560208601610f66565b61107381610d09565b840191505092915050565b61108781610ebd565b82525050565b600060408301600083015184820360008601526110aa8282611045565b91505060208301516110bf602086018261107e565b508091505092915050565b600060208201905081810360008301526110e4818461108d565b905092915050565b60008060006060848603121561110557611104610cf5565b5b600061111386828701610f08565b935050602061112486828701610f08565b925050604061113586828701610f08565b9150509250925092565b60008115159050919050565b6111548161113f565b82525050565b600060208201905061116f600083018461114b565b92915050565b600073ffffffffffffffffffffffffffffffffffffffff82169050919050565b60006111a082611175565b9050919050565b6111b081611195565b82525050565b60006020820190506111cb60008301846111a7565b92915050565b6000806000606084860312156111ea576111e9610cf5565b5b60006111f886828701610f08565b935050602084013567ffffffffffffffff81111561121957611218610cfa565b5b61122586828701610e17565b925050604061123686828701610f08565b9150509250925092565b60006080820190506112556000830187610ec7565b6112626020830186610ec7565b61126f6040830185610ec7565b61127c606083018461114b565b95945050505050565b7f4e487b7100000000000000000000000000000000000000000000000000000000600052601160045260246000fd5b60006112bf82610ebd565b91507fffffffffffffffffffffffffffffffffffffffffffffffffffffffffffffffff8214156112f2576112f1611285565b5b600182019050919050565b7f4e487b7100000000000000000000000000000000000000000000000000000000600052602260045260246000fd5b6000600282049050600182168061134457607f821691505b60208210811415611358576113576112fd565b5b50919050565b600061136982610ebd565b915061137483610ebd565b9250827fffffffffffffffffffffffffffffffffffffffffffffffffffffffffffffffff038211156113a9576113a8611285565b5b828201905092915050565b60006113bf82610ebd565b915060008214156113d3576113d2611285565b5b60018203905091905056fea26469706673582212201abb414b40878bce60c2f55037b661646498dfd3d8d4173203ddf68f62ed302b64736f6c634300080b0033","opcodes":"PUSH1 0x80 PUSH1 0x40 MSTORE CALLVALUE DUP1 ISZERO PUSH3 0x11 JUMPI PUSH1 0x0 DUP1 REVERT JUMPDEST POP PUSH1 0x40 MLOAD PUSH3 0x186C CODESIZE SUB DUP1 PUSH3 0x186C DUP4 CODECOPY DUP2 DUP2 ADD PUSH1 0x40 MSTORE DUP2 ADD SWAP1 PUSH3 0x37 SWAP2 SWAP1 PUSH3 0x37D JUMP JUMPDEST DUP2 PUSH1 0x0 DUP1 PUSH2 0x100 EXP DUP2 SLOAD DUP2 PUSH20 0xFFFFFFFFFFFFFFFFFFFFFFFFFFFFFFFFFFFFFFFF MUL NOT AND SWAP1 DUP4 PUSH20 0xFFFFFFFFFFFFFFFFFFFFFFFFFFFFFFFFFFFFFFFF AND MUL OR SWAP1 SSTORE POP DUP1 PUSH1 0x1 SWAP1 DUP1 MLOAD SWAP1 PUSH1 0x20 ADD SWAP1 PUSH3 0x8F SWAP3 SWAP2 SWAP1 PUSH3 0xCB JUMP JUMPDEST POP PUSH1 0x1 PUSH1 0x2 PUSH1 0x0 PUSH2 0x100 EXP DUP2 SLOAD DUP2 PUSH1 0xFF MUL NOT AND SWAP1 DUP4 ISZERO ISZERO MUL OR SWAP1 SSTORE POP PUSH1 0x0 PUSH1 0x3 DUP2 SWAP1 SSTORE POP PUSH1 0x0 PUSH1 0x5 DUP2 SWAP1 SSTORE POP PUSH1 0x0 PUSH1 0x7 DUP2 SWAP1 SSTORE POP POP POP PUSH3 0x448 JUMP JUMPDEST DUP3 DUP1 SLOAD PUSH3 0xD9 SWAP1 PUSH3 0x412 JUMP JUMPDEST SWAP1 PUSH1 0x0 MSTORE PUSH1 0x20 PUSH1 0x0 KECCAK256 SWAP1 PUSH1 0x1F ADD PUSH1 0x20 SWAP1 DIV DUP2 ADD SWAP3 DUP3 PUSH3 0xFD JUMPI PUSH1 0x0 DUP6 SSTORE PUSH3 0x149 JUMP JUMPDEST DUP3 PUSH1 0x1F LT PUSH3 0x118 JUMPI DUP1 MLOAD PUSH1 0xFF NOT AND DUP4 DUP1 ADD OR DUP6 SSTORE PUSH3 0x149 JUMP JUMPDEST DUP3 DUP1 ADD PUSH1 0x1 ADD DUP6 SSTORE DUP3 ISZERO PUSH3 0x149 JUMPI SWAP2 DUP3 ADD JUMPDEST DUP3 DUP2 GT ISZERO PUSH3 0x148 JUMPI DUP3 MLOAD DUP3 SSTORE SWAP2 PUSH1 0x20 ADD SWAP2 SWAP1 PUSH1 0x1 ADD SWAP1 PUSH3 0x12B JUMP JUMPDEST JUMPDEST POP SWAP1 POP PUSH3 0x158 SWAP2 SWAP1 PUSH3 0x15C JUMP JUMPDEST POP SWAP1 JUMP JUMPDEST JUMPDEST DUP1 DUP3 GT ISZERO PUSH3 0x177 JUMPI PUSH1 0x0 DUP2 PUSH1 0x0 SWAP1 SSTORE POP PUSH1 0x1 ADD PUSH3 0x15D JUMP JUMPDEST POP SWAP1 JUMP JUMPDEST PUSH1 0x0 PUSH1 0x40 MLOAD SWAP1 POP SWAP1 JUMP JUMPDEST PUSH1 0x0 DUP1 REVERT JUMPDEST PUSH1 0x0 DUP1 REVERT JUMPDEST PUSH1 0x0 PUSH20 0xFFFFFFFFFFFFFFFFFFFFFFFFFFFFFFFFFFFFFFFF DUP3 AND SWAP1 POP SWAP2 SWAP1 POP JUMP JUMPDEST PUSH1 0x0 PUSH3 0x1BC DUP3 PUSH3 0x18F JUMP JUMPDEST SWAP1 POP SWAP2 SWAP1 POP JUMP JUMPDEST PUSH3 0x1CE DUP2 PUSH3 0x1AF JUMP JUMPDEST DUP2 EQ PUSH3 0x1DA JUMPI PUSH1 0x0 DUP1 REVERT JUMPDEST POP JUMP JUMPDEST PUSH1 0x0 DUP2 MLOAD SWAP1 POP PUSH3 0x1EE DUP2 PUSH3 0x1C3 JUMP JUMPDEST SWAP3 SWAP2 POP POP JUMP JUMPDEST PUSH1 0x0 DUP1 REVERT JUMPDEST PUSH1 0x0 DUP1 REVERT JUMPDEST PUSH1 0x0 PUSH1 0x1F NOT PUSH1 0x1F DUP4 ADD AND SWAP1 POP SWAP2 SWAP1 POP JUMP JUMPDEST PUSH32 0x4E487B7100000000000000000000000000000000000000000000000000000000 PUSH1 0x0 MSTORE PUSH1 0x41 PUSH1 0x4 MSTORE PUSH1 0x24 PUSH1 0x0 REVERT JUMPDEST PUSH3 0x249 DUP3 PUSH3 0x1FE JUMP JUMPDEST DUP2 ADD DUP2 DUP2 LT PUSH8 0xFFFFFFFFFFFFFFFF DUP3 GT OR ISZERO PUSH3 0x26B JUMPI PUSH3 0x26A PUSH3 0x20F JUMP JUMPDEST JUMPDEST DUP1 PUSH1 0x40 MSTORE POP POP POP JUMP JUMPDEST PUSH1 0x0 PUSH3 0x280 PUSH3 0x17B JUMP JUMPDEST SWAP1 POP PUSH3 0x28E DUP3 DUP3 PUSH3 0x23E JUMP JUMPDEST SWAP2 SWAP1 POP JUMP JUMPDEST PUSH1 0x0 PUSH8 0xFFFFFFFFFFFFFFFF DUP3 GT ISZERO PUSH3 0x2B1 JUMPI PUSH3 0x2B0 PUSH3 0x20F JUMP JUMPDEST JUMPDEST PUSH3 0x2BC DUP3 PUSH3 0x1FE JUMP JUMPDEST SWAP1 POP PUSH1 0x20 DUP2 ADD SWAP1 POP SWAP2 SWAP1 POP JUMP JUMPDEST PUSH1 0x0 JUMPDEST DUP4 DUP2 LT ISZERO PUSH3 0x2E9 JUMPI DUP1 DUP3 ADD MLOAD DUP2 DUP5 ADD MSTORE PUSH1 0x20 DUP2 ADD SWAP1 POP PUSH3 0x2CC JUMP JUMPDEST DUP4 DUP2 GT ISZERO PUSH3 0x2F9 JUMPI PUSH1 0x0 DUP5 DUP5 ADD MSTORE JUMPDEST POP POP POP POP JUMP JUMPDEST PUSH1 0x0 PUSH3 0x316 PUSH3 0x310 DUP5 PUSH3 0x293 JUMP JUMPDEST PUSH3 0x274 JUMP JUMPDEST SWAP1 POP DUP3 DUP2 MSTORE PUSH1 0x20 DUP2 ADD DUP5 DUP5 DUP5 ADD GT ISZERO PUSH3 0x335 JUMPI PUSH3 0x334 PUSH3 0x1F9 JUMP JUMPDEST JUMPDEST PUSH3 0x342 DUP5 DUP3 DUP6 PUSH3 0x2C9 JUMP JUMPDEST POP SWAP4 SWAP3 POP POP POP JUMP JUMPDEST PUSH1 0x0 DUP3 PUSH1 0x1F DUP4 ADD SLT PUSH3 0x362 JUMPI PUSH3 0x361 PUSH3 0x1F4 JUMP JUMPDEST JUMPDEST DUP2 MLOAD PUSH3 0x374 DUP5 DUP3 PUSH1 0x20 DUP7 ADD PUSH3 0x2FF JUMP JUMPDEST SWAP2 POP POP SWAP3 SWAP2 POP POP JUMP JUMPDEST PUSH1 0x0 DUP1 PUSH1 0x40 DUP4 DUP6 SUB SLT ISZERO PUSH3 0x397 JUMPI PUSH3 0x396 PUSH3 0x185 JUMP JUMPDEST JUMPDEST PUSH1 0x0 PUSH3 0x3A7 DUP6 DUP3 DUP7 ADD PUSH3 0x1DD JUMP JUMPDEST SWAP3 POP POP PUSH1 0x20 DUP4 ADD MLOAD PUSH8 0xFFFFFFFFFFFFFFFF DUP2 GT ISZERO PUSH3 0x3CB JUMPI PUSH3 0x3CA PUSH3 0x18A JUMP JUMPDEST JUMPDEST PUSH3 0x3D9 DUP6 DUP3 DUP7 ADD PUSH3 0x34A JUMP JUMPDEST SWAP2 POP POP SWAP3 POP SWAP3 SWAP1 POP JUMP JUMPDEST PUSH32 0x4E487B7100000000000000000000000000000000000000000000000000000000 PUSH1 0x0 MSTORE PUSH1 0x22 PUSH1 0x4 MSTORE PUSH1 0x24 PUSH1 0x0 REVERT JUMPDEST PUSH1 0x0 PUSH1 0x2 DUP3 DIV SWAP1 POP PUSH1 0x1 DUP3 AND DUP1 PUSH3 0x42B JUMPI PUSH1 0x7F DUP3 AND SWAP2 POP JUMPDEST PUSH1 0x20 DUP3 LT DUP2 EQ ISZERO PUSH3 0x442 JUMPI PUSH3 0x441 PUSH3 0x3E3 JUMP JUMPDEST JUMPDEST POP SWAP2 SWAP1 POP JUMP JUMPDEST PUSH2 0x1414 DUP1 PUSH3 0x458 PUSH1 0x0 CODECOPY PUSH1 0x0 RETURN INVALID PUSH1 0x80 PUSH1 0x40 MSTORE CALLVALUE DUP1 ISZERO PUSH2 0x10 JUMPI PUSH1 0x0 DUP1 REVERT JUMPDEST POP PUSH1 0x4 CALLDATASIZE LT PUSH2 0x10B JUMPI PUSH1 0x0 CALLDATALOAD PUSH1 0xE0 SHR DUP1 PUSH4 0x55586F9E GT PUSH2 0xA2 JUMPI DUP1 PUSH4 0x9E4529C9 GT PUSH2 0x71 JUMPI DUP1 PUSH4 0x9E4529C9 EQ PUSH2 0x2BC JUMPI DUP1 PUSH4 0xA5D47A56 EQ PUSH2 0x2EC JUMPI DUP1 PUSH4 0xB6778976 EQ PUSH2 0x30A JUMPI DUP1 PUSH4 0xDEF7134E EQ PUSH2 0x33A JUMPI DUP1 PUSH4 0xFBBF93A0 EQ PUSH2 0x358 JUMPI PUSH2 0x10B JUMP JUMPDEST DUP1 PUSH4 0x55586F9E EQ PUSH2 0x246 JUMPI DUP1 PUSH4 0x610BE654 EQ PUSH2 0x264 JUMPI DUP1 PUSH4 0x673D3087 EQ PUSH2 0x26E JUMPI DUP1 PUSH4 0x757C3AAB EQ PUSH2 0x28C JUMPI PUSH2 0x10B JUMP JUMPDEST DUP1 PUSH4 0x30E526DD GT PUSH2 0xDE JUMPI DUP1 PUSH4 0x30E526DD EQ PUSH2 0x1AA JUMPI DUP1 PUSH4 0x3E2032AB EQ PUSH2 0x1DA JUMPI DUP1 PUSH4 0x481C6A75 EQ PUSH2 0x20A JUMPI DUP1 PUSH4 0x54FD4D50 EQ PUSH2 0x228 JUMPI PUSH2 0x10B JUMP JUMPDEST DUP1 PUSH4 0x540BCCD EQ PUSH2 0x110 JUMPI DUP1 PUSH4 0xCF9A07D EQ PUSH2 0x140 JUMPI DUP1 PUSH4 0x17FED492 EQ PUSH2 0x170 JUMPI DUP1 PUSH4 0x1BA3C1B6 EQ PUSH2 0x17A JUMPI JUMPDEST PUSH1 0x0 DUP1 REVERT JUMPDEST PUSH2 0x12A PUSH1 0x4 DUP1 CALLDATASIZE SUB DUP2 ADD SWAP1 PUSH2 0x125 SWAP2 SWAP1 PUSH2 0xE45 JUMP JUMPDEST PUSH2 0x379 JUMP JUMPDEST PUSH1 0x40 MLOAD PUSH2 0x137 SWAP2 SWAP1 PUSH2 0xED6 JUMP JUMPDEST PUSH1 0x40 MLOAD DUP1 SWAP2 SUB SWAP1 RETURN JUMPDEST PUSH2 0x15A PUSH1 0x4 DUP1 CALLDATASIZE SUB DUP2 ADD SWAP1 PUSH2 0x155 SWAP2 SWAP1 PUSH2 0xE45 JUMP JUMPDEST PUSH2 0x449 JUMP JUMPDEST PUSH1 0x40 MLOAD PUSH2 0x167 SWAP2 SWAP1 PUSH2 0xED6 JUMP JUMPDEST PUSH1 0x40 MLOAD DUP1 SWAP2 SUB SWAP1 RETURN JUMPDEST PUSH2 0x178 PUSH2 0x526 JUMP JUMPDEST STOP JUMPDEST PUSH2 0x194 PUSH1 0x4 DUP1 CALLDATASIZE SUB DUP2 ADD SWAP1 PUSH2 0x18F SWAP2 SWAP1 PUSH2 0xF1D JUMP JUMPDEST PUSH2 0x5B1 JUMP JUMPDEST PUSH1 0x40 MLOAD PUSH2 0x1A1 SWAP2 SWAP1 PUSH2 0xFD2 JUMP JUMPDEST PUSH1 0x40 MLOAD DUP1 SWAP2 SUB SWAP1 RETURN JUMPDEST PUSH2 0x1C4 PUSH1 0x4 DUP1 CALLDATASIZE SUB DUP2 ADD SWAP1 PUSH2 0x1BF SWAP2 SWAP1 PUSH2 0xFF4 JUMP JUMPDEST PUSH2 0x65F JUMP JUMPDEST PUSH1 0x40 MLOAD PUSH2 0x1D1 SWAP2 SWAP1 PUSH2 0x10CA JUMP JUMPDEST PUSH1 0x40 MLOAD DUP1 SWAP2 SUB SWAP1 RETURN JUMPDEST PUSH2 0x1F4 PUSH1 0x4 DUP1 CALLDATASIZE SUB DUP2 ADD SWAP1 PUSH2 0x1EF SWAP2 SWAP1 PUSH2 0x10EC JUMP JUMPDEST PUSH2 0x749 JUMP JUMPDEST PUSH1 0x40 MLOAD PUSH2 0x201 SWAP2 SWAP1 PUSH2 0x115A JUMP JUMPDEST PUSH1 0x40 MLOAD DUP1 SWAP2 SUB SWAP1 RETURN JUMPDEST PUSH2 0x212 PUSH2 0x833 JUMP JUMPDEST PUSH1 0x40 MLOAD PUSH2 0x21F SWAP2 SWAP1 PUSH2 0x11B6 JUMP JUMPDEST PUSH1 0x40 MLOAD DUP1 SWAP2 SUB SWAP1 RETURN JUMPDEST PUSH2 0x230 PUSH2 0x857 JUMP JUMPDEST PUSH1 0x40 MLOAD PUSH2 0x23D SWAP2 SWAP1 PUSH2 0xFD2 JUMP JUMPDEST PUSH1 0x40 MLOAD DUP1 SWAP2 SUB SWAP1 RETURN JUMPDEST PUSH2 0x24E PUSH2 0x8E5 JUMP JUMPDEST PUSH1 0x40 MLOAD PUSH2 0x25B SWAP2 SWAP1 PUSH2 0xED6 JUMP JUMPDEST PUSH1 0x40 MLOAD DUP1 SWAP2 SUB SWAP1 RETURN JUMPDEST PUSH2 0x26C PUSH2 0x8EB JUMP JUMPDEST STOP JUMPDEST PUSH2 0x276 PUSH2 0x960 JUMP JUMPDEST PUSH1 0x40 MLOAD PUSH2 0x283 SWAP2 SWAP1 PUSH2 0xED6 JUMP JUMPDEST PUSH1 0x40 MLOAD DUP1 SWAP2 SUB SWAP1 RETURN JUMPDEST PUSH2 0x2A6 PUSH1 0x4 DUP1 CALLDATASIZE SUB DUP2 ADD SWAP1 PUSH2 0x2A1 SWAP2 SWAP1 PUSH2 0xFF4 JUMP JUMPDEST PUSH2 0x966 JUMP JUMPDEST PUSH1 0x40 MLOAD PUSH2 0x2B3 SWAP2 SWAP1 PUSH2 0x10CA JUMP JUMPDEST PUSH1 0x40 MLOAD DUP1 SWAP2 SUB SWAP1 RETURN JUMPDEST PUSH2 0x2D6 PUSH1 0x4 DUP1 CALLDATASIZE SUB DUP2 ADD SWAP1 PUSH2 0x2D1 SWAP2 SWAP1 PUSH2 0x11D1 JUMP JUMPDEST PUSH2 0xA50 JUMP JUMPDEST PUSH1 0x40 MLOAD PUSH2 0x2E3 SWAP2 SWAP1 PUSH2 0xED6 JUMP JUMPDEST PUSH1 0x40 MLOAD DUP1 SWAP2 SUB SWAP1 RETURN JUMPDEST PUSH2 0x2F4 PUSH2 0xB3A JUMP JUMPDEST PUSH1 0x40 MLOAD PUSH2 0x301 SWAP2 SWAP1 PUSH2 0x115A JUMP JUMPDEST PUSH1 0x40 MLOAD DUP1 SWAP2 SUB SWAP1 RETURN JUMPDEST PUSH2 0x324 PUSH1 0x4 DUP1 CALLDATASIZE SUB DUP2 ADD SWAP1 PUSH2 0x31F SWAP2 SWAP1 PUSH2 0xF1D JUMP JUMPDEST PUSH2 0xB4D JUMP JUMPDEST PUSH1 0x40 MLOAD PUSH2 0x331 SWAP2 SWAP1 PUSH2 0xFD2 JUMP JUMPDEST PUSH1 0x40 MLOAD DUP1 SWAP2 SUB SWAP1 RETURN JUMPDEST PUSH2 0x342 PUSH2 0xBFB JUMP JUMPDEST PUSH1 0x40 MLOAD PUSH2 0x34F SWAP2 SWAP1 PUSH2 0xED6 JUMP JUMPDEST PUSH1 0x40 MLOAD DUP1 SWAP2 SUB SWAP1 RETURN JUMPDEST PUSH2 0x360 PUSH2 0xC01 JUMP JUMPDEST PUSH1 0x40 MLOAD PUSH2 0x370 SWAP5 SWAP4 SWAP3 SWAP2 SWAP1 PUSH2 0x1240 JUMP JUMPDEST PUSH1 0x40 MLOAD DUP1 SWAP2 SUB SWAP1 RETURN JUMPDEST PUSH1 0x0 PUSH1 0x2 PUSH1 0x0 SWAP1 SLOAD SWAP1 PUSH2 0x100 EXP SWAP1 DIV PUSH1 0xFF AND PUSH2 0x394 JUMPI PUSH1 0x0 DUP1 REVERT JUMPDEST PUSH1 0x5 PUSH1 0x0 DUP2 SLOAD DUP1 SWAP3 SWAP2 SWAP1 PUSH2 0x3A7 SWAP1 PUSH2 0x12B4 JUMP JUMPDEST SWAP2 SWAP1 POP SSTORE SWAP1 POP PUSH1 0x0 PUSH1 0x6 PUSH1 0x0 DUP4 DUP2 MSTORE PUSH1 0x20 ADD SWAP1 DUP2 MSTORE PUSH1 0x20 ADD PUSH1 0x0 KECCAK256 SWAP1 POP CALLER DUP2 PUSH1 0x0 ADD PUSH1 0x0 PUSH2 0x100 EXP DUP2 SLOAD DUP2 PUSH20 0xFFFFFFFFFFFFFFFFFFFFFFFFFFFFFFFFFFFFFFFF MUL NOT AND SWAP1 DUP4 PUSH20 0xFFFFFFFFFFFFFFFFFFFFFFFFFFFFFFFFFFFFFFFF AND MUL OR SWAP1 SSTORE POP DUP2 DUP2 PUSH1 0x1 ADD DUP2 SWAP1 SSTORE POP DUP4 DUP2 PUSH1 0x2 ADD SWAP1 DUP1 MLOAD SWAP1 PUSH1 0x20 ADD SWAP1 PUSH2 0x428 SWAP3 SWAP2 SWAP1 PUSH2 0xC2E JUMP JUMPDEST POP DUP3 DUP2 PUSH1 0x3 ADD SWAP1 DUP1 MLOAD SWAP1 PUSH1 0x20 ADD SWAP1 PUSH2 0x441 SWAP3 SWAP2 SWAP1 PUSH2 0xC2E JUMP JUMPDEST POP POP SWAP3 SWAP2 POP POP JUMP JUMPDEST PUSH1 0x0 DUP1 PUSH1 0x0 SWAP1 SLOAD SWAP1 PUSH2 0x100 EXP SWAP1 DIV PUSH20 0xFFFFFFFFFFFFFFFFFFFFFFFFFFFFFFFFFFFFFFFF AND PUSH20 0xFFFFFFFFFFFFFFFFFFFFFFFFFFFFFFFFFFFFFFFF AND CALLER PUSH20 0xFFFFFFFFFFFFFFFFFFFFFFFFFFFFFFFFFFFFFFFF AND EQ PUSH2 0x4A4 JUMPI PUSH1 0x0 DUP1 REVERT JUMPDEST PUSH1 0x2 PUSH1 0x0 SWAP1 SLOAD SWAP1 PUSH2 0x100 EXP SWAP1 DIV PUSH1 0xFF AND PUSH2 0x4BD JUMPI PUSH1 0x0 DUP1 REVERT JUMPDEST PUSH1 0x3 PUSH1 0x0 DUP2 SLOAD DUP1 SWAP3 SWAP2 SWAP1 PUSH2 0x4D0 SWAP1 PUSH2 0x12B4 JUMP JUMPDEST SWAP2 SWAP1 POP SSTORE SWAP1 POP PUSH1 0x0 PUSH1 0x4 PUSH1 0x0 DUP4 DUP2 MSTORE PUSH1 0x20 ADD SWAP1 DUP2 MSTORE PUSH1 0x20 ADD PUSH1 0x0 KECCAK256 SWAP1 POP DUP4 DUP2 PUSH1 0x0 ADD SWAP1 DUP1 MLOAD SWAP1 PUSH1 0x20 ADD SWAP1 PUSH2 0x505 SWAP3 SWAP2 SWAP1 PUSH2 0xC2E JUMP JUMPDEST POP DUP3 DUP2 PUSH1 0x1 ADD SWAP1 DUP1 MLOAD SWAP1 PUSH1 0x20 ADD SWAP1 PUSH2 0x51E SWAP3 SWAP2 SWAP1 PUSH2 0xC2E JUMP JUMPDEST POP POP SWAP3 SWAP2 POP POP JUMP JUMPDEST PUSH1 0x0 DUP1 SLOAD SWAP1 PUSH2 0x100 EXP SWAP1 DIV PUSH20 0xFFFFFFFFFFFFFFFFFFFFFFFFFFFFFFFFFFFFFFFF AND PUSH20 0xFFFFFFFFFFFFFFFFFFFFFFFFFFFFFFFFFFFFFFFF AND CALLER PUSH20 0xFFFFFFFFFFFFFFFFFFFFFFFFFFFFFFFFFFFFFFFF AND EQ PUSH2 0x57E JUMPI PUSH1 0x0 DUP1 REVERT JUMPDEST PUSH1 0x2 PUSH1 0x0 SWAP1 SLOAD SWAP1 PUSH2 0x100 EXP SWAP1 DIV PUSH1 0xFF AND PUSH2 0x597 JUMPI PUSH1 0x0 DUP1 REVERT JUMPDEST PUSH1 0x7 PUSH1 0x0 DUP2 SLOAD DUP1 SWAP3 SWAP2 SWAP1 PUSH2 0x5AA SWAP1 PUSH2 0x12B4 JUMP JUMPDEST SWAP2 SWAP1 POP SSTORE POP JUMP JUMPDEST PUSH1 0x60 PUSH1 0x0 PUSH1 0x4 PUSH1 0x0 DUP5 DUP2 MSTORE PUSH1 0x20 ADD SWAP1 DUP2 MSTORE PUSH1 0x20 ADD PUSH1 0x0 KECCAK256 PUSH1 0x1 ADD DUP1 SLOAD PUSH2 0x5D6 SWAP1 PUSH2 0x132C JUMP JUMPDEST DUP1 PUSH1 0x1F ADD PUSH1 0x20 DUP1 SWAP2 DIV MUL PUSH1 0x20 ADD PUSH1 0x40 MLOAD SWAP1 DUP2 ADD PUSH1 0x40 MSTORE DUP1 SWAP3 SWAP2 SWAP1 DUP2 DUP2 MSTORE PUSH1 0x20 ADD DUP3 DUP1 SLOAD PUSH2 0x602 SWAP1 PUSH2 0x132C JUMP JUMPDEST DUP1 ISZERO PUSH2 0x64F JUMPI DUP1 PUSH1 0x1F LT PUSH2 0x624 JUMPI PUSH2 0x100 DUP1 DUP4 SLOAD DIV MUL DUP4 MSTORE SWAP2 PUSH1 0x20 ADD SWAP2 PUSH2 0x64F JUMP JUMPDEST DUP3 ADD SWAP2 SWAP1 PUSH1 0x0 MSTORE PUSH1 0x20 PUSH1 0x0 KECCAK256 SWAP1 JUMPDEST DUP2 SLOAD DUP2 MSTORE SWAP1 PUSH1 0x1 ADD SWAP1 PUSH1 0x20 ADD DUP1 DUP4 GT PUSH2 0x632 JUMPI DUP3 SWAP1 SUB PUSH1 0x1F AND DUP3 ADD SWAP2 JUMPDEST POP POP POP POP POP SWAP1 POP DUP1 SWAP2 POP POP SWAP2 SWAP1 POP JUMP JUMPDEST PUSH2 0x667 PUSH2 0xCB4 JUMP JUMPDEST PUSH1 0x0 PUSH1 0x4 PUSH1 0x0 DUP6 DUP2 MSTORE PUSH1 0x20 ADD SWAP1 DUP2 MSTORE PUSH1 0x20 ADD PUSH1 0x0 KECCAK256 SWAP1 POP PUSH1 0x0 DUP2 PUSH1 0x3 ADD PUSH1 0x0 DUP6 DUP2 MSTORE PUSH1 0x20 ADD SWAP1 DUP2 MSTORE PUSH1 0x20 ADD PUSH1 0x0 KECCAK256 PUSH1 0x40 MLOAD DUP1 PUSH1 0x40 ADD PUSH1 0x40 MSTORE SWAP1 DUP2 PUSH1 0x0 DUP3 ADD DUP1 SLOAD PUSH2 0x6B0 SWAP1 PUSH2 0x132C JUMP JUMPDEST DUP1 PUSH1 0x1F ADD PUSH1 0x20 DUP1 SWAP2 DIV MUL PUSH1 0x20 ADD PUSH1 0x40 MLOAD SWAP1 DUP2 ADD PUSH1 0x40 MSTORE DUP1 SWAP3 SWAP2 SWAP1 DUP2 DUP2 MSTORE PUSH1 0x20 ADD DUP3 DUP1 SLOAD PUSH2 0x6DC SWAP1 PUSH2 0x132C JUMP JUMPDEST DUP1 ISZERO PUSH2 0x729 JUMPI DUP1 PUSH1 0x1F LT PUSH2 0x6FE JUMPI PUSH2 0x100 DUP1 DUP4 SLOAD DIV MUL DUP4 MSTORE SWAP2 PUSH1 0x20 ADD SWAP2 PUSH2 0x729 JUMP JUMPDEST DUP3 ADD SWAP2 SWAP1 PUSH1 0x0 MSTORE PUSH1 0x20 PUSH1 0x0 KECCAK256 SWAP1 JUMPDEST DUP2 SLOAD DUP2 MSTORE SWAP1 PUSH1 0x1 ADD SWAP1 PUSH1 0x20 ADD DUP1 DUP4 GT PUSH2 0x70C JUMPI DUP3 SWAP1 SUB PUSH1 0x1F AND DUP3 ADD SWAP2 JUMPDEST POP POP POP POP POP DUP2 MSTORE PUSH1 0x20 ADD PUSH1 0x1 DUP3 ADD SLOAD DUP2 MSTORE POP POP SWAP1 POP DUP1 SWAP3 POP POP POP SWAP3 SWAP2 POP POP JUMP JUMPDEST PUSH1 0x0 PUSH1 0x2 PUSH1 0x0 SWAP1 SLOAD SWAP1 PUSH2 0x100 EXP SWAP1 DIV PUSH1 0xFF AND PUSH2 0x764 JUMPI PUSH1 0x0 DUP1 REVERT JUMPDEST PUSH1 0x1 PUSH1 0x7 SLOAD PUSH2 0x773 SWAP2 SWAP1 PUSH2 0x135E JUMP JUMPDEST DUP3 GT ISZERO PUSH2 0x77F JUMPI PUSH1 0x0 DUP1 REVERT JUMPDEST PUSH1 0x0 DUP1 PUSH1 0x4 PUSH1 0x0 DUP8 DUP2 MSTORE PUSH1 0x20 ADD SWAP1 DUP2 MSTORE PUSH1 0x20 ADD PUSH1 0x0 KECCAK256 SWAP1 POP PUSH1 0x0 DUP2 PUSH1 0x3 ADD PUSH1 0x0 DUP8 DUP2 MSTORE PUSH1 0x20 ADD SWAP1 DUP2 MSTORE PUSH1 0x20 ADD PUSH1 0x0 KECCAK256 SWAP1 POP PUSH1 0x0 PUSH1 0x6 PUSH1 0x0 DUP8 DUP2 MSTORE PUSH1 0x20 ADD SWAP1 DUP2 MSTORE PUSH1 0x20 ADD PUSH1 0x0 KECCAK256 SWAP1 POP PUSH1 0x0 DUP3 PUSH1 0x1 ADD SLOAD GT ISZERO PUSH2 0x825 JUMPI DUP7 DUP2 PUSH1 0x4 ADD PUSH1 0x0 DUP11 DUP2 MSTORE PUSH1 0x20 ADD SWAP1 DUP2 MSTORE PUSH1 0x20 ADD PUSH1 0x0 KECCAK256 DUP2 SWAP1 SSTORE POP DUP2 PUSH1 0x1 ADD PUSH1 0x0 DUP2 SLOAD DUP1 SWAP3 SWAP2 SWAP1 PUSH2 0x803 SWAP1 PUSH2 0x13B4 JUMP JUMPDEST SWAP2 SWAP1 POP SSTORE POP PUSH1 0x7 PUSH1 0x0 DUP2 SLOAD DUP1 SWAP3 SWAP2 SWAP1 PUSH2 0x81B SWAP1 PUSH2 0x12B4 JUMP JUMPDEST SWAP2 SWAP1 POP SSTORE POP PUSH1 0x1 SWAP4 POP JUMPDEST DUP4 SWAP5 POP POP POP POP POP SWAP4 SWAP3 POP POP POP JUMP JUMPDEST PUSH1 0x0 DUP1 SLOAD SWAP1 PUSH2 0x100 EXP SWAP1 DIV PUSH20 0xFFFFFFFFFFFFFFFFFFFFFFFFFFFFFFFFFFFFFFFF AND DUP2 JUMP JUMPDEST PUSH1 0x1 DUP1 SLOAD PUSH2 0x864 SWAP1 PUSH2 0x132C JUMP JUMPDEST DUP1 PUSH1 0x1F ADD PUSH1 0x20 DUP1 SWAP2 DIV MUL PUSH1 0x20 ADD PUSH1 0x40 MLOAD SWAP1 DUP2 ADD PUSH1 0x40 MSTORE DUP1 SWAP3 SWAP2 SWAP1 DUP2 DUP2 MSTORE PUSH1 0x20 ADD DUP3 DUP1 SLOAD PUSH2 0x890 SWAP1 PUSH2 0x132C JUMP JUMPDEST DUP1 ISZERO PUSH2 0x8DD JUMPI DUP1 PUSH1 0x1F LT PUSH2 0x8B2 JUMPI PUSH2 0x100 DUP1 DUP4 SLOAD DIV MUL DUP4 MSTORE SWAP2 PUSH1 0x20 ADD SWAP2 PUSH2 0x8DD JUMP JUMPDEST DUP3 ADD SWAP2 SWAP1 PUSH1 0x0 MSTORE PUSH1 0x20 PUSH1 0x0 KECCAK256 SWAP1 JUMPDEST DUP2 SLOAD DUP2 MSTORE SWAP1 PUSH1 0x1 ADD SWAP1 PUSH1 0x20 ADD DUP1 DUP4 GT PUSH2 0x8C0 JUMPI DUP3 SWAP1 SUB PUSH1 0x1F AND DUP3 ADD SWAP2 JUMPDEST POP POP POP POP POP DUP2 JUMP JUMPDEST PUSH1 0x3 SLOAD DUP2 JUMP JUMPDEST PUSH1 0x0 DUP1 SLOAD SWAP1 PUSH2 0x100 EXP SWAP1 DIV PUSH20 0xFFFFFFFFFFFFFFFFFFFFFFFFFFFFFFFFFFFFFFFF AND PUSH20 0xFFFFFFFFFFFFFFFFFFFFFFFFFFFFFFFFFFFFFFFF AND CALLER PUSH20 0xFFFFFFFFFFFFFFFFFFFFFFFFFFFFFFFFFFFFFFFF AND EQ PUSH2 0x943 JUMPI PUSH1 0x0 DUP1 REVERT JUMPDEST PUSH1 0x0 PUSH1 0x2 PUSH1 0x0 PUSH2 0x100 EXP DUP2 SLOAD DUP2 PUSH1 0xFF MUL NOT AND SWAP1 DUP4 ISZERO ISZERO MUL OR SWAP1 SSTORE POP JUMP JUMPDEST PUSH1 0x7 SLOAD DUP2 JUMP JUMPDEST PUSH2 0x96E PUSH2 0xCB4 JUMP JUMPDEST PUSH1 0x0 PUSH1 0x4 PUSH1 0x0 DUP6 DUP2 MSTORE PUSH1 0x20 ADD SWAP1 DUP2 MSTORE PUSH1 0x20 ADD PUSH1 0x0 KECCAK256 SWAP1 POP PUSH1 0x0 DUP2 PUSH1 0x3 ADD PUSH1 0x0 DUP6 DUP2 MSTORE PUSH1 0x20 ADD SWAP1 DUP2 MSTORE PUSH1 0x20 ADD PUSH1 0x0 KECCAK256 PUSH1 0x40 MLOAD DUP1 PUSH1 0x40 ADD PUSH1 0x40 MSTORE SWAP1 DUP2 PUSH1 0x0 DUP3 ADD DUP1 SLOAD PUSH2 0x9B7 SWAP1 PUSH2 0x132C JUMP JUMPDEST DUP1 PUSH1 0x1F ADD PUSH1 0x20 DUP1 SWAP2 DIV MUL PUSH1 0x20 ADD PUSH1 0x40 MLOAD SWAP1 DUP2 ADD PUSH1 0x40 MSTORE DUP1 SWAP3 SWAP2 SWAP1 DUP2 DUP2 MSTORE PUSH1 0x20 ADD DUP3 DUP1 SLOAD PUSH2 0x9E3 SWAP1 PUSH2 0x132C JUMP JUMPDEST DUP1 ISZERO PUSH2 0xA30 JUMPI DUP1 PUSH1 0x1F LT PUSH2 0xA05 JUMPI PUSH2 0x100 DUP1 DUP4 SLOAD DIV MUL DUP4 MSTORE SWAP2 PUSH1 0x20 ADD SWAP2 PUSH2 0xA30 JUMP JUMPDEST DUP3 ADD SWAP2 SWAP1 PUSH1 0x0 MSTORE PUSH1 0x20 PUSH1 0x0 KECCAK256 SWAP1 JUMPDEST DUP2 SLOAD DUP2 MSTORE SWAP1 PUSH1 0x1 ADD SWAP1 PUSH1 0x20 ADD DUP1 DUP4 GT PUSH2 0xA13 JUMPI DUP3 SWAP1 SUB PUSH1 0x1F AND DUP3 ADD SWAP2 JUMPDEST POP POP POP POP POP DUP2 MSTORE PUSH1 0x20 ADD PUSH1 0x1 DUP3 ADD SLOAD DUP2 MSTORE POP POP SWAP1 POP DUP1 SWAP3 POP POP POP SWAP3 SWAP2 POP POP JUMP JUMPDEST PUSH1 0x0 DUP1 PUSH1 0x0 SWAP1 SLOAD SWAP1 PUSH2 0x100 EXP SWAP1 DIV PUSH20 0xFFFFFFFFFFFFFFFFFFFFFFFFFFFFFFFFFFFFFFFF AND PUSH20 0xFFFFFFFFFFFFFFFFFFFFFFFFFFFFFFFFFFFFFFFF AND CALLER PUSH20 0xFFFFFFFFFFFFFFFFFFFFFFFFFFFFFFFFFFFFFFFF AND EQ PUSH2 0xAAB JUMPI PUSH1 0x0 DUP1 REVERT JUMPDEST PUSH1 0x2 PUSH1 0x0 SWAP1 SLOAD SWAP1 PUSH2 0x100 EXP SWAP1 DIV PUSH1 0xFF AND PUSH2 0xAC4 JUMPI PUSH1 0x0 DUP1 REVERT JUMPDEST PUSH1 0x0 PUSH1 0x4 PUSH1 0x0 DUP7 DUP2 MSTORE PUSH1 0x20 ADD SWAP1 DUP2 MSTORE PUSH1 0x20 ADD PUSH1 0x0 KECCAK256 SWAP1 POP DUP1 PUSH1 0x2 ADD PUSH1 0x0 DUP2 SLOAD DUP1 SWAP3 SWAP2 SWAP1 PUSH2 0xAF0 SWAP1 PUSH2 0x12B4 JUMP JUMPDEST SWAP2 SWAP1 POP SSTORE SWAP2 POP PUSH1 0x0 DUP2 PUSH1 0x3 ADD PUSH1 0x0 DUP5 DUP2 MSTORE PUSH1 0x20 ADD SWAP1 DUP2 MSTORE PUSH1 0x20 ADD PUSH1 0x0 KECCAK256 SWAP1 POP DUP5 DUP2 PUSH1 0x0 ADD SWAP1 DUP1 MLOAD SWAP1 PUSH1 0x20 ADD SWAP1 PUSH2 0xB27 SWAP3 SWAP2 SWAP1 PUSH2 0xC2E JUMP JUMPDEST POP DUP4 DUP2 PUSH1 0x1 ADD DUP2 SWAP1 SSTORE POP POP POP SWAP4 SWAP3 POP POP POP JUMP JUMPDEST PUSH1 0x2 PUSH1 0x0 SWAP1 SLOAD SWAP1 PUSH2 0x100 EXP SWAP1 DIV PUSH1 0xFF AND DUP2 JUMP JUMPDEST PUSH1 0x60 PUSH1 0x0 PUSH1 0x6 PUSH1 0x0 DUP5 DUP2 MSTORE PUSH1 0x20 ADD SWAP1 DUP2 MSTORE PUSH1 0x20 ADD PUSH1 0x0 KECCAK256 PUSH1 0x2 ADD DUP1 SLOAD PUSH2 0xB72 SWAP1 PUSH2 0x132C JUMP JUMPDEST DUP1 PUSH1 0x1F ADD PUSH1 0x20 DUP1 SWAP2 DIV MUL PUSH1 0x20 ADD PUSH1 0x40 MLOAD SWAP1 DUP2 ADD PUSH1 0x40 MSTORE DUP1 SWAP3 SWAP2 SWAP1 DUP2 DUP2 MSTORE PUSH1 0x20 ADD DUP3 DUP1 SLOAD PUSH2 0xB9E SWAP1 PUSH2 0x132C JUMP JUMPDEST DUP1 ISZERO PUSH2 0xBEB JUMPI DUP1 PUSH1 0x1F LT PUSH2 0xBC0 JUMPI PUSH2 0x100 DUP1 DUP4 SLOAD DIV MUL DUP4 MSTORE SWAP2 PUSH1 0x20 ADD SWAP2 PUSH2 0xBEB JUMP JUMPDEST DUP3 ADD SWAP2 SWAP1 PUSH1 0x0 MSTORE PUSH1 0x20 PUSH1 0x0 KECCAK256 SWAP1 JUMPDEST DUP2 SLOAD DUP2 MSTORE SWAP1 PUSH1 0x1 ADD SWAP1 PUSH1 0x20 ADD DUP1 DUP4 GT PUSH2 0xBCE JUMPI DUP3 SWAP1 SUB PUSH1 0x1F AND DUP3 ADD SWAP2 JUMPDEST POP POP POP POP POP SWAP1 POP DUP1 SWAP2 POP POP SWAP2 SWAP1 POP JUMP JUMPDEST PUSH1 0x5 SLOAD DUP2 JUMP JUMPDEST PUSH1 0x0 DUP1 PUSH1 0x0 DUP1 PUSH1 0x3 SLOAD PUSH1 0x5 SLOAD PUSH1 0x7 SLOAD PUSH1 0x2 PUSH1 0x0 SWAP1 SLOAD SWAP1 PUSH2 0x100 EXP SWAP1 DIV PUSH1 0xFF AND SWAP4 POP SWAP4 POP SWAP4 POP SWAP4 POP SWAP1 SWAP2 SWAP3 SWAP4 JUMP JUMPDEST DUP3 DUP1 SLOAD PUSH2 0xC3A SWAP1 PUSH2 0x132C JUMP JUMPDEST SWAP1 PUSH1 0x0 MSTORE PUSH1 0x20 PUSH1 0x0 KECCAK256 SWAP1 PUSH1 0x1F ADD PUSH1 0x20 SWAP1 DIV DUP2 ADD SWAP3 DUP3 PUSH2 0xC5C JUMPI PUSH1 0x0 DUP6 SSTORE PUSH2 0xCA3 JUMP JUMPDEST DUP3 PUSH1 0x1F LT PUSH2 0xC75 JUMPI DUP1 MLOAD PUSH1 0xFF NOT AND DUP4 DUP1 ADD OR DUP6 SSTORE PUSH2 0xCA3 JUMP JUMPDEST DUP3 DUP1 ADD PUSH1 0x1 ADD DUP6 SSTORE DUP3 ISZERO PUSH2 0xCA3 JUMPI SWAP2 DUP3 ADD JUMPDEST DUP3 DUP2 GT ISZERO PUSH2 0xCA2 JUMPI DUP3 MLOAD DUP3 SSTORE SWAP2 PUSH1 0x20 ADD SWAP2 SWAP1 PUSH1 0x1 ADD SWAP1 PUSH2 0xC87 JUMP JUMPDEST JUMPDEST POP SWAP1 POP PUSH2 0xCB0 SWAP2 SWAP1 PUSH2 0xCCE JUMP JUMPDEST POP SWAP1 JUMP JUMPDEST PUSH1 0x40 MLOAD DUP1 PUSH1 0x40 ADD PUSH1 0x40 MSTORE DUP1 PUSH1 0x60 DUP2 MSTORE PUSH1 0x20 ADD PUSH1 0x0 DUP2 MSTORE POP SWAP1 JUMP JUMPDEST JUMPDEST DUP1 DUP3 GT ISZERO PUSH2 0xCE7 JUMPI PUSH1 0x0 DUP2 PUSH1 0x0 SWAP1 SSTORE POP PUSH1 0x1 ADD PUSH2 0xCCF JUMP JUMPDEST POP SWAP1 JUMP JUMPDEST PUSH1 0x0 PUSH1 0x40 MLOAD SWAP1 POP SWAP1 JUMP JUMPDEST PUSH1 0x0 DUP1 REVERT JUMPDEST PUSH1 0x0 DUP1 REVERT JUMPDEST PUSH1 0x0 DUP1 REVERT JUMPDEST PUSH1 0x0 DUP1 REVERT JUMPDEST PUSH1 0x0 PUSH1 0x1F NOT PUSH1 0x1F DUP4 ADD AND SWAP1 POP SWAP2 SWAP1 POP JUMP JUMPDEST PUSH32 0x4E487B7100000000000000000000000000000000000000000000000000000000 PUSH1 0x0 MSTORE PUSH1 0x41 PUSH1 0x4 MSTORE PUSH1 0x24 PUSH1 0x0 REVERT JUMPDEST PUSH2 0xD52 DUP3 PUSH2 0xD09 JUMP JUMPDEST DUP2 ADD DUP2 DUP2 LT PUSH8 0xFFFFFFFFFFFFFFFF DUP3 GT OR ISZERO PUSH2 0xD71 JUMPI PUSH2 0xD70 PUSH2 0xD1A JUMP JUMPDEST JUMPDEST DUP1 PUSH1 0x40 MSTORE POP POP POP JUMP JUMPDEST PUSH1 0x0 PUSH2 0xD84 PUSH2 0xCEB JUMP JUMPDEST SWAP1 POP PUSH2 0xD90 DUP3 DUP3 PUSH2 0xD49 JUMP JUMPDEST SWAP2 SWAP1 POP JUMP JUMPDEST PUSH1 0x0 PUSH8 0xFFFFFFFFFFFFFFFF DUP3 GT ISZERO PUSH2 0xDB0 JUMPI PUSH2 0xDAF PUSH2 0xD1A JUMP JUMPDEST JUMPDEST PUSH2 0xDB9 DUP3 PUSH2 0xD09 JUMP JUMPDEST SWAP1 POP PUSH1 0x20 DUP2 ADD SWAP1 POP SWAP2 SWAP1 POP JUMP JUMPDEST DUP3 DUP2 DUP4 CALLDATACOPY PUSH1 0x0 DUP4 DUP4 ADD MSTORE POP POP POP JUMP JUMPDEST PUSH1 0x0 PUSH2 0xDE8 PUSH2 0xDE3 DUP5 PUSH2 0xD95 JUMP JUMPDEST PUSH2 0xD7A JUMP JUMPDEST SWAP1 POP DUP3 DUP2 MSTORE PUSH1 0x20 DUP2 ADD DUP5 DUP5 DUP5 ADD GT ISZERO PUSH2 0xE04 JUMPI PUSH2 0xE03 PUSH2 0xD04 JUMP JUMPDEST JUMPDEST PUSH2 0xE0F DUP5 DUP3 DUP6 PUSH2 0xDC6 JUMP JUMPDEST POP SWAP4 SWAP3 POP POP POP JUMP JUMPDEST PUSH1 0x0 DUP3 PUSH1 0x1F DUP4 ADD SLT PUSH2 0xE2C JUMPI PUSH2 0xE2B PUSH2 0xCFF JUMP JUMPDEST JUMPDEST DUP2 CALLDATALOAD PUSH2 0xE3C DUP5 DUP3 PUSH1 0x20 DUP7 ADD PUSH2 0xDD5 JUMP JUMPDEST SWAP2 POP POP SWAP3 SWAP2 POP POP JUMP JUMPDEST PUSH1 0x0 DUP1 PUSH1 0x40 DUP4 DUP6 SUB SLT ISZERO PUSH2 0xE5C JUMPI PUSH2 0xE5B PUSH2 0xCF5 JUMP JUMPDEST JUMPDEST PUSH1 0x0 DUP4 ADD CALLDATALOAD PUSH8 0xFFFFFFFFFFFFFFFF DUP2 GT ISZERO PUSH2 0xE7A JUMPI PUSH2 0xE79 PUSH2 0xCFA JUMP JUMPDEST JUMPDEST PUSH2 0xE86 DUP6 DUP3 DUP7 ADD PUSH2 0xE17 JUMP JUMPDEST SWAP3 POP POP PUSH1 0x20 DUP4 ADD CALLDATALOAD PUSH8 0xFFFFFFFFFFFFFFFF DUP2 GT ISZERO PUSH2 0xEA7 JUMPI PUSH2 0xEA6 PUSH2 0xCFA JUMP JUMPDEST JUMPDEST PUSH2 0xEB3 DUP6 DUP3 DUP7 ADD PUSH2 0xE17 JUMP JUMPDEST SWAP2 POP POP SWAP3 POP SWAP3 SWAP1 POP JUMP JUMPDEST PUSH1 0x0 DUP2 SWAP1 POP SWAP2 SWAP1 POP JUMP JUMPDEST PUSH2 0xED0 DUP2 PUSH2 0xEBD JUMP JUMPDEST DUP3 MSTORE POP POP JUMP JUMPDEST PUSH1 0x0 PUSH1 0x20 DUP3 ADD SWAP1 POP PUSH2 0xEEB PUSH1 0x0 DUP4 ADD DUP5 PUSH2 0xEC7 JUMP JUMPDEST SWAP3 SWAP2 POP POP JUMP JUMPDEST PUSH2 0xEFA DUP2 PUSH2 0xEBD JUMP JUMPDEST DUP2 EQ PUSH2 0xF05 JUMPI PUSH1 0x0 DUP1 REVERT JUMPDEST POP JUMP JUMPDEST PUSH1 0x0 DUP2 CALLDATALOAD SWAP1 POP PUSH2 0xF17 DUP2 PUSH2 0xEF1 JUMP JUMPDEST SWAP3 SWAP2 POP POP JUMP JUMPDEST PUSH1 0x0 PUSH1 0x20 DUP3 DUP5 SUB SLT ISZERO PUSH2 0xF33 JUMPI PUSH2 0xF32 PUSH2 0xCF5 JUMP JUMPDEST JUMPDEST PUSH1 0x0 PUSH2 0xF41 DUP5 DUP3 DUP6 ADD PUSH2 0xF08 JUMP JUMPDEST SWAP2 POP POP SWAP3 SWAP2 POP POP JUMP JUMPDEST PUSH1 0x0 DUP2 MLOAD SWAP1 POP SWAP2 SWAP1 POP JUMP JUMPDEST PUSH1 0x0 DUP3 DUP3 MSTORE PUSH1 0x20 DUP3 ADD SWAP1 POP SWAP3 SWAP2 POP POP JUMP JUMPDEST PUSH1 0x0 JUMPDEST DUP4 DUP2 LT ISZERO PUSH2 0xF84 JUMPI DUP1 DUP3 ADD MLOAD DUP2 DUP5 ADD MSTORE PUSH1 0x20 DUP2 ADD SWAP1 POP PUSH2 0xF69 JUMP JUMPDEST DUP4 DUP2 GT ISZERO PUSH2 0xF93 JUMPI PUSH1 0x0 DUP5 DUP5 ADD MSTORE JUMPDEST POP POP POP POP JUMP JUMPDEST PUSH1 0x0 PUSH2 0xFA4 DUP3 PUSH2 0xF4A JUMP JUMPDEST PUSH2 0xFAE DUP2 DUP6 PUSH2 0xF55 JUMP JUMPDEST SWAP4 POP PUSH2 0xFBE DUP2 DUP6 PUSH1 0x20 DUP7 ADD PUSH2 0xF66 JUMP JUMPDEST PUSH2 0xFC7 DUP2 PUSH2 0xD09 JUMP JUMPDEST DUP5 ADD SWAP2 POP POP SWAP3 SWAP2 POP POP JUMP JUMPDEST PUSH1 0x0 PUSH1 0x20 DUP3 ADD SWAP1 POP DUP2 DUP2 SUB PUSH1 0x0 DUP4 ADD MSTORE PUSH2 0xFEC DUP2 DUP5 PUSH2 0xF99 JUMP JUMPDEST SWAP1 POP SWAP3 SWAP2 POP POP JUMP JUMPDEST PUSH1 0x0 DUP1 PUSH1 0x40 DUP4 DUP6 SUB SLT ISZERO PUSH2 0x100B JUMPI PUSH2 0x100A PUSH2 0xCF5 JUMP JUMPDEST JUMPDEST PUSH1 0x0 PUSH2 0x1019 DUP6 DUP3 DUP7 ADD PUSH2 0xF08 JUMP JUMPDEST SWAP3 POP POP PUSH1 0x20 PUSH2 0x102A DUP6 DUP3 DUP7 ADD PUSH2 0xF08 JUMP JUMPDEST SWAP2 POP POP SWAP3 POP SWAP3 SWAP1 POP JUMP JUMPDEST PUSH1 0x0 DUP3 DUP3 MSTORE PUSH1 0x20 DUP3 ADD SWAP1 POP SWAP3 SWAP2 POP POP JUMP JUMPDEST PUSH1 0x0 PUSH2 0x1050 DUP3 PUSH2 0xF4A JUMP JUMPDEST PUSH2 0x105A DUP2 DUP6 PUSH2 0x1034 JUMP JUMPDEST SWAP4 POP PUSH2 0x106A DUP2 DUP6 PUSH1 0x20 DUP7 ADD PUSH2 0xF66 JUMP JUMPDEST PUSH2 0x1073 DUP2 PUSH2 0xD09 JUMP JUMPDEST DUP5 ADD SWAP2 POP POP SWAP3 SWAP2 POP POP JUMP JUMPDEST PUSH2 0x1087 DUP2 PUSH2 0xEBD JUMP JUMPDEST DUP3 MSTORE POP POP JUMP JUMPDEST PUSH1 0x0 PUSH1 0x40 DUP4 ADD PUSH1 0x0 DUP4 ADD MLOAD DUP5 DUP3 SUB PUSH1 0x0 DUP7 ADD MSTORE PUSH2 0x10AA DUP3 DUP3 PUSH2 0x1045 JUMP JUMPDEST SWAP2 POP POP PUSH1 0x20 DUP4 ADD MLOAD PUSH2 0x10BF PUSH1 0x20 DUP7 ADD DUP3 PUSH2 0x107E JUMP JUMPDEST POP DUP1 SWAP2 POP POP SWAP3 SWAP2 POP POP JUMP JUMPDEST PUSH1 0x0 PUSH1 0x20 DUP3 ADD SWAP1 POP DUP2 DUP2 SUB PUSH1 0x0 DUP4 ADD MSTORE PUSH2 0x10E4 DUP2 DUP5 PUSH2 0x108D JUMP JUMPDEST SWAP1 POP SWAP3 SWAP2 POP POP JUMP JUMPDEST PUSH1 0x0 DUP1 PUSH1 0x0 PUSH1 0x60 DUP5 DUP7 SUB SLT ISZERO PUSH2 0x1105 JUMPI PUSH2 0x1104 PUSH2 0xCF5 JUMP JUMPDEST JUMPDEST PUSH1 0x0 PUSH2 0x1113 DUP7 DUP3 DUP8 ADD PUSH2 0xF08 JUMP JUMPDEST SWAP4 POP POP PUSH1 0x20 PUSH2 0x1124 DUP7 DUP3 DUP8 ADD PUSH2 0xF08 JUMP JUMPDEST SWAP3 POP POP PUSH1 0x40 PUSH2 0x1135 DUP7 DUP3 DUP8 ADD PUSH2 0xF08 JUMP JUMPDEST SWAP2 POP POP SWAP3 POP SWAP3 POP SWAP3 JUMP JUMPDEST PUSH1 0x0 DUP2 ISZERO ISZERO SWAP1 POP SWAP2 SWAP1 POP JUMP JUMPDEST PUSH2 0x1154 DUP2 PUSH2 0x113F JUMP JUMPDEST DUP3 MSTORE POP POP JUMP JUMPDEST PUSH1 0x0 PUSH1 0x20 DUP3 ADD SWAP1 POP PUSH2 0x116F PUSH1 0x0 DUP4 ADD DUP5 PUSH2 0x114B JUMP JUMPDEST SWAP3 SWAP2 POP POP JUMP JUMPDEST PUSH1 0x0 PUSH20 0xFFFFFFFFFFFFFFFFFFFFFFFFFFFFFFFFFFFFFFFF DUP3 AND SWAP1 POP SWAP2 SWAP1 POP JUMP JUMPDEST PUSH1 0x0 PUSH2 0x11A0 DUP3 PUSH2 0x1175 JUMP JUMPDEST SWAP1 POP SWAP2 SWAP1 POP JUMP JUMPDEST PUSH2 0x11B0 DUP2 PUSH2 0x1195 JUMP JUMPDEST DUP3 MSTORE POP POP JUMP JUMPDEST PUSH1 0x0 PUSH1 0x20 DUP3 ADD SWAP1 POP PUSH2 0x11CB PUSH1 0x0 DUP4 ADD DUP5 PUSH2 0x11A7 JUMP JUMPDEST SWAP3 SWAP2 POP POP JUMP JUMPDEST PUSH1 0x0 DUP1 PUSH1 0x0 PUSH1 0x60 DUP5 DUP7 SUB SLT ISZERO PUSH2 0x11EA JUMPI PUSH2 0x11E9 PUSH2 0xCF5 JUMP JUMPDEST JUMPDEST PUSH1 0x0 PUSH2 0x11F8 DUP7 DUP3 DUP8 ADD PUSH2 0xF08 JUMP JUMPDEST SWAP4 POP POP PUSH1 0x20 DUP5 ADD CALLDATALOAD PUSH8 0xFFFFFFFFFFFFFFFF DUP2 GT ISZERO PUSH2 0x1219 JUMPI PUSH2 0x1218 PUSH2 0xCFA JUMP JUMPDEST JUMPDEST PUSH2 0x1225 DUP7 DUP3 DUP8 ADD PUSH2 0xE17 JUMP JUMPDEST SWAP3 POP POP PUSH1 0x40 PUSH2 0x1236 DUP7 DUP3 DUP8 ADD PUSH2 0xF08 JUMP JUMPDEST SWAP2 POP POP SWAP3 POP SWAP3 POP SWAP3 JUMP JUMPDEST PUSH1 0x0 PUSH1 0x80 DUP3 ADD SWAP1 POP PUSH2 0x1255 PUSH1 0x0 DUP4 ADD DUP8 PUSH2 0xEC7 JUMP JUMPDEST PUSH2 0x1262 PUSH1 0x20 DUP4 ADD DUP7 PUSH2 0xEC7 JUMP JUMPDEST PUSH2 0x126F PUSH1 0x40 DUP4 ADD DUP6 PUSH2 0xEC7 JUMP JUMPDEST PUSH2 0x127C PUSH1 0x60 DUP4 ADD DUP5 PUSH2 0x114B JUMP JUMPDEST SWAP6 SWAP5 POP POP POP POP POP JUMP JUMPDEST PUSH32 0x4E487B7100000000000000000000000000000000000000000000000000000000 PUSH1 0x0 MSTORE PUSH1 0x11 PUSH1 0x4 MSTORE PUSH1 0x24 PUSH1 0x0 REVERT JUMPDEST PUSH1 0x0 PUSH2 0x12BF DUP3 PUSH2 0xEBD JUMP JUMPDEST SWAP2 POP PUSH32 0xFFFFFFFFFFFFFFFFFFFFFFFFFFFFFFFFFFFFFFFFFFFFFFFFFFFFFFFFFFFFFFFF DUP3 EQ ISZERO PUSH2 0x12F2 JUMPI PUSH2 0x12F1 PUSH2 0x1285 JUMP JUMPDEST JUMPDEST PUSH1 0x1 DUP3 ADD SWAP1 POP SWAP2 SWAP1 POP JUMP JUMPDEST PUSH32 0x4E487B7100000000000000000000000000000000000000000000000000000000 PUSH1 0x0 MSTORE PUSH1 0x22 PUSH1 0x4 MSTORE PUSH1 0x24 PUSH1 0x0 REVERT JUMPDEST PUSH1 0x0 PUSH1 0x2 DUP3 DIV SWAP1 POP PUSH1 0x1 DUP3 AND DUP1 PUSH2 0x1344 JUMPI PUSH1 0x7F DUP3 AND SWAP2 POP JUMPDEST PUSH1 0x20 DUP3 LT DUP2 EQ ISZERO PUSH2 0x1358 JUMPI PUSH2 0x1357 PUSH2 0x12FD JUMP JUMPDEST JUMPDEST POP SWAP2 SWAP1 POP JUMP JUMPDEST PUSH1 0x0 PUSH2 0x1369 DUP3 PUSH2 0xEBD JUMP JUMPDEST SWAP2 POP PUSH2 0x1374 DUP4 PUSH2 0xEBD JUMP JUMPDEST SWAP3 POP DUP3 PUSH32 0xFFFFFFFFFFFFFFFFFFFFFFFFFFFFFFFFFFFFFFFFFFFFFFFFFFFFFFFFFFFFFFFF SUB DUP3 GT ISZERO PUSH2 0x13A9 JUMPI PUSH2 0x13A8 PUSH2 0x1285 JUMP JUMPDEST JUMPDEST DUP3 DUP3 ADD SWAP1 POP SWAP3 SWAP2 POP POP JUMP JUMPDEST PUSH1 0x0 PUSH2 0x13BF DUP3 PUSH2 0xEBD JUMP JUMPDEST SWAP2 POP PUSH1 0x0 DUP3 EQ ISZERO PUSH2 0x13D3 JUMPI PUSH2 0x13D2 PUSH2 0x1285 JUMP JUMPDEST JUMPDEST PUSH1 0x1 DUP3 SUB SWAP1 POP SWAP2 SWAP1 POP JUMP INVALID LOG2 PUSH5 0x6970667358 0x22 SLT KECCAK256 BYTE 0xBB COINBASE 0x4B BLOCKHASH DUP8 DUP12 0xCE PUSH1 0xC2 CREATE2 POP CALLDATACOPY 0xB6 PUSH2 0x6464 SWAP9 0xDF 0xD3 0xD8 0xD4 OR ORIGIN SUB 0xDD 0xF6 DUP16 PUSH3 0xED302B PUSH5 0x736F6C6343 STOP ADDMOD SIGNEXTEND STOP CALLER "},"gasEstimates":{"creation":{"codeDepositCost":"1028000","executionCost":"infinite","totalCost":"infinite"},"external":{"advancePosition()":"28892","closeContract()":"26623","contractIsOpen()":"2515","getDetails()":"infinite","getExaminee(uint256)":"infinite","getHospitalName(uint256)":"infinite","getHospitalService(uint256,uint256)":"infinite","getServiceInHospital(uint256,uint256)":"infinite","joinExaminee(string,string)":"infinite","manager()":"2578","newHospital(string,string)":"infinite","newServiceInHopsital(uint256,string,uint256)":"infinite","numExaminees()":"2517","numHospitals()":"2452","numSelections()":"2496","takePosition(uint256,uint256,uint256)":"infinite","version()":"infinite"}},"methodIdentifiers":{"advancePosition()":"17fed492","closeContract()":"610be654","contractIsOpen()":"a5d47a56","getDetails()":"fbbf93a0","getExaminee(uint256)":"b6778976","getHospitalName(uint256)":"1ba3c1b6","getHospitalService(uint256,uint256)":"30e526dd","getServiceInHospital(uint256,uint256)":"757c3aab","joinExaminee(string,string)":"0540bccd","manager()":"481c6a75","newHospital(string,string)":"0cf9a07d","newServiceInHopsital(uint256,string,uint256)":"9e4529c9","numExaminees()":"def7134e","numHospitals()":"55586f9e","numSelections()":"673d3087","takePosition(uint256,uint256,uint256)":"3e2032ab","version()":"54fd4d50"}},"storageLayout":{"storage":[{"astId":72,"contract":"contractFile:MIR_Hospital_Selection","label":"manager","offset":0,"slot":"0","type":"t_address"},{"astId":74,"contract":"contractFile:MIR_Hospital_Selection","label":"version","offset":0,"slot":"1","type":"t_string_storage"},{"astId":76,"contract":"contractFile:MIR_Hospital_Selection","label":"contractIsOpen","offset":0,"slot":"2","type":"t_bool"},{"astId":78,"contract":"contractFile:MIR_Hospital_Selection","label":"numHospitals","offset":0,"slot":"3","type":"t_uint256"},{"astId":83,"contract":"contractFile:MIR_Hospital_Selection","label":"hospitals","offset":0,"slot":"4","type":"t_mapping(t_uint256,t_struct(Hospital)57_storage)"},{"astId":85,"contract":"contractFile:MIR_Hospital_Selection","label":"numExaminees","offset":0,"slot":"5","type":"t_uint256"},{"astId":90,"contract":"contractFile:MIR_Hospital_Selection","label":"examinees","offset":0,"slot":"6","type":"t_mapping(t_uint256,t_struct(Examinee)70_storage)"},{"astId":92,"contract":"contractFile:MIR_Hospital_Selection","label":"numSelections","offset":0,"slot":"7","type":"t_uint256"}],"types":{"t_address":{"encoding":"inplace","label":"address","numberOfBytes":"20"},"t_bool":{"encoding":"inplace","label":"bool","numberOfBytes":"1"},"t_mapping(t_uint256,t_struct(Examinee)70_storage)":{"encoding":"mapping","key":"t_uint256","label":"mapping(uint256 => struct MIR_Hospital_Selection.Examinee)","numberOfBytes":"32","value":"t_struct(Examinee)70_storage"},"t_mapping(t_uint256,t_struct(Hospital)57_storage)":{"encoding":"mapping","key":"t_uint256","label":"mapping(uint256 => struct MIR_Hospital_Selection.Hospital)","numberOfBytes":"32","value":"t_struct(Hospital)57_storage"},"t_mapping(t_uint256,t_struct(Service)45_storage)":{"encoding":"mapping","key":"t_uint256","label":"mapping(uint256 => struct MIR_Hospital_Selection.Service)","numberOfBytes":"32","value":"t_struct(Service)45_storage"},"t_mapping(t_uint256,t_uint256)":{"encoding":"mapping","key":"t_uint256","label":"mapping(uint256 => uint256)","numberOfBytes":"32","value":"t_uint256"},"t_string_storage":{"encoding":"bytes","label":"string","numberOfBytes":"32"},"t_struct(Examinee)70_storage":{"encoding":"inplace","label":"struct MIR_Hospital_Selection.Examinee","members":[{"astId":59,"contract":"contractFile:MIR_Hospital_Selection","label":"addr","offset":0,"slot":"0","type":"t_address"},{"astId":61,"contract":"contractFile:MIR_Hospital_Selection","label":"unique","offset":0,"slot":"1","type":"t_uint256"},{"astId":63,"contract":"contractFile:MIR_Hospital_Selection","label":"name","offset":0,"slot":"2","type":"t_string_storage"},{"astId":65,"contract":"contractFile:MIR_Hospital_Selection","label":"surnames","offset":0,"slot":"3","type":"t_string_storage"},{"astId":69,"contract":"contractFile:MIR_Hospital_Selection","label":"hospital2Service","offset":0,"slot":"4","type":"t_mapping(t_uint256,t_uint256)"}],"numberOfBytes":"160"},"t_struct(Hospital)57_storage":{"encoding":"inplace","label":"struct MIR_Hospital_Selection.Hospital","members":[{"astId":47,"contract":"contractFile:MIR_Hospital_Selection","label":"unique","offset":0,"slot":"0","type":"t_string_storage"},{"astId":49,"contract":"contractFile:MIR_Hospital_Selection","label":"name","offset":0,"slot":"1","type":"t_string_storage"},{"astId":51,"contract":"contractFile:MIR_Hospital_Selection","label":"numServices","offset":0,"slot":"2","type":"t_uint256"},{"astId":56,"contract":"contractFile:MIR_Hospital_Selection","label":"servicesInHospital","offset":0,"slot":"3","type":"t_mapping(t_uint256,t_struct(Service)45_storage)"}],"numberOfBytes":"128"},"t_struct(Service)45_storage":{"encoding":"inplace","label":"struct MIR_Hospital_Selection.Service","members":[{"astId":42,"contract":"contractFile:MIR_Hospital_Selection","label":"department","offset":0,"slot":"0","type":"t_string_storage"},{"astId":44,"contract":"contractFile:MIR_Hospital_Selection","label":"ammount","offset":0,"slot":"1","type":"t_uint256"}],"numberOfBytes":"64"},"t_uint256":{"encoding":"inplace","label":"uint256","numberOfBytes":"32"}}},"userdoc":{"kind":"user","methods":{},"version":1}}